{
  "contractName": "AuditCriteriaManager",
  "abi": [
    {
      "anonymous": false,
      "inputs": [
        {
          "indexed": true,
          "name": "CriteriaIndex",
          "type": "uint256"
        },
        {
          "indexed": false,
          "name": "index",
          "type": "uint256"
        },
        {
          "indexed": false,
          "name": "CriteriaText",
          "type": "string"
        },
        {
          "indexed": false,
          "name": "maxScore",
          "type": "uint256"
        }
      ],
      "name": "LogNewCriteria",
      "type": "event"
    },
    {
      "anonymous": false,
      "inputs": [
        {
          "indexed": true,
          "name": "CriteriaIndex",
          "type": "uint256"
        },
        {
          "indexed": false,
          "name": "index",
          "type": "uint256"
        },
        {
          "indexed": false,
          "name": "CriteriaText",
          "type": "string"
        },
        {
          "indexed": false,
          "name": "maxScore",
          "type": "uint256"
        }
      ],
      "name": "LogUpdateCriteria",
      "type": "event"
    },
    {
      "anonymous": false,
      "inputs": [
        {
          "indexed": true,
          "name": "CriteriaIndex",
          "type": "uint256"
        },
        {
          "indexed": false,
          "name": "index",
          "type": "uint256"
        }
      ],
      "name": "LogDeleteCriteria",
      "type": "event"
    },
    {
      "anonymous": false,
      "inputs": [
        {
          "indexed": true,
          "name": "CriteriaIndex",
          "type": "uint256"
        },
        {
          "indexed": false,
          "name": "criteriaStatus",
          "type": "bool"
        }
      ],
      "name": "LogCriteriaStatusChange",
      "type": "event"
    },
    {
      "constant": true,
      "inputs": [
        {
          "name": "indexExist",
          "type": "uint256"
        }
      ],
      "name": "isCriteria",
      "outputs": [
        {
          "name": "isIndeed",
          "type": "bool"
        }
      ],
      "payable": false,
      "stateMutability": "view",
      "type": "function"
    },
    {
      "constant": false,
      "inputs": [
        {
          "name": "newCriteriaText",
          "type": "string"
        },
        {
          "name": "minScore",
          "type": "uint256"
        },
        {
          "name": "maxScore",
          "type": "uint256"
        },
        {
          "name": "isActive",
          "type": "bool"
        }
      ],
      "name": "insertCriteria",
      "outputs": [
        {
          "name": "index",
          "type": "uint256"
        }
      ],
      "payable": false,
      "stateMutability": "nonpayable",
      "type": "function"
    },
    {
      "constant": false,
      "inputs": [],
      "name": "deleteAllCriteria",
      "outputs": [],
      "payable": false,
      "stateMutability": "nonpayable",
      "type": "function"
    },
    {
      "constant": false,
      "inputs": [
        {
          "name": "deleteCriteriaIndex",
          "type": "uint256"
        }
      ],
      "name": "deleteCriteria",
      "outputs": [
        {
          "name": "index",
          "type": "uint256"
        }
      ],
      "payable": false,
      "stateMutability": "nonpayable",
      "type": "function"
    },
    {
      "constant": true,
      "inputs": [
        {
          "name": "criteriaIndex",
          "type": "uint256"
        }
      ],
      "name": "getCriteria",
      "outputs": [
        {
          "name": "criteriaText",
          "type": "string"
        },
        {
          "name": "maxScore",
          "type": "uint256"
        },
        {
          "name": "minScore",
          "type": "uint256"
        },
        {
          "name": "isActive",
          "type": "bool"
        }
      ],
      "payable": false,
      "stateMutability": "view",
      "type": "function"
    },
    {
      "constant": true,
      "inputs": [
        {
          "name": "criteriaIndex",
          "type": "uint256"
        }
      ],
      "name": "getCriteriaText",
      "outputs": [
        {
          "name": "criteriaText",
          "type": "string"
        }
      ],
      "payable": false,
      "stateMutability": "view",
      "type": "function"
    },
    {
      "constant": true,
      "inputs": [
        {
          "name": "criteriaIndex",
          "type": "uint256"
        }
      ],
      "name": "getMaxScore",
      "outputs": [
        {
          "name": "maxScore",
          "type": "uint256"
        }
      ],
      "payable": false,
      "stateMutability": "view",
      "type": "function"
    },
    {
      "constant": true,
      "inputs": [
        {
          "name": "criteriaIndex",
          "type": "uint256"
        }
      ],
      "name": "getMinScore",
      "outputs": [
        {
          "name": "minScore",
          "type": "uint256"
        }
      ],
      "payable": false,
      "stateMutability": "view",
      "type": "function"
    },
    {
      "constant": true,
      "inputs": [
        {
          "name": "criteriaIndex",
          "type": "uint256"
        }
      ],
      "name": "getStatus",
      "outputs": [
        {
          "name": "isActive",
          "type": "bool"
        }
      ],
      "payable": false,
      "stateMutability": "view",
      "type": "function"
    },
    {
      "constant": false,
      "inputs": [
        {
          "name": "criteriaIndex",
          "type": "uint256"
        },
        {
          "name": "criteriaText",
          "type": "string"
        }
      ],
      "name": "updateCriteriaText",
      "outputs": [
        {
          "name": "success",
          "type": "bool"
        }
      ],
      "payable": false,
      "stateMutability": "nonpayable",
      "type": "function"
    },
    {
      "constant": false,
      "inputs": [
        {
          "name": "index",
          "type": "uint256"
        },
        {
          "name": "MaxScore",
          "type": "uint256"
        },
        {
          "name": "MinScore",
          "type": "uint256"
        }
      ],
      "name": "updateMaxMinScore",
      "outputs": [
        {
          "name": "success",
          "type": "bool"
        }
      ],
      "payable": false,
      "stateMutability": "nonpayable",
      "type": "function"
    },
    {
      "constant": false,
      "inputs": [
        {
          "name": "index",
          "type": "uint256"
        },
        {
          "name": "status",
          "type": "bool"
        }
      ],
      "name": "changeStatus",
      "outputs": [
        {
          "name": "success",
          "type": "bool"
        }
      ],
      "payable": false,
      "stateMutability": "nonpayable",
      "type": "function"
    },
    {
      "constant": true,
      "inputs": [],
      "name": "getCriteriaCount",
      "outputs": [
        {
          "name": "count",
          "type": "uint256"
        }
      ],
      "payable": false,
      "stateMutability": "view",
      "type": "function"
    },
    {
      "constant": true,
      "inputs": [
        {
          "name": "index",
          "type": "uint256"
        }
      ],
      "name": "getCriteriaAtIndex",
      "outputs": [
        {
          "name": "criteriaIndex",
          "type": "uint256"
        }
      ],
      "payable": false,
      "stateMutability": "view",
      "type": "function"
    }
  ],
  "bytecode": "0x608060405234801561001057600080fd5b50610d05806100206000396000f3006080604052600436106100cf5763ffffffff7c01000000000000000000000000000000000000000000000000000000006000350416631afe0bbc81146100d45780632e70cbfd146100fb57806348d007c6146101135780635487193c1461018557806359b630d11461019c5780635c622a0e146101b45780636776c6bb146101cc57806372b4763c146101e45780638931828f146102025780638d15438e146102ab578063ae48388d14610313578063b60215931461032b578063d54d535b14610343578063fa2693b3146103d0575b600080fd5b3480156100e057600080fd5b506100e96103ed565b60408051918252519081900360200190f35b34801561010757600080fd5b506100e96004356103f4565b34801561011f57600080fd5b5060408051602060046024803582810135601f81018590048502860185019096528585526101719583359536956044949193909101919081908401838280828437509497506104239650505050505050565b604080519115158252519081900360200190f35b34801561019157600080fd5b5061019a610527565b005b3480156101a857600080fd5b506100e9600435610535565b3480156101c057600080fd5b50610171600435610561565b3480156101d857600080fd5b506100e9600435610590565b3480156101f057600080fd5b506101716004356024356044356105b3565b34801561020e57600080fd5b5061021a6004356106b4565b604051808060200185815260200184815260200183151515158152602001828103825286818151815260200191508051906020019080838360005b8381101561026d578181015183820152602001610255565b50505050905090810190601f16801561029a5780820380516001836020036101000a031916815260200191505b509550505050505060405180910390f35b3480156102b757600080fd5b506040805160206004803580820135601f81018490048402850184019095528484526100e99436949293602493928401919081908401838280828437509497505084359550505060208301359260400135151591506107909050565b34801561031f57600080fd5b506100e96004356108e4565b34801561033757600080fd5b50610171600435610a84565b34801561034f57600080fd5b5061035b600435610acc565b6040805160208082528351818301528351919283929083019185019080838360005b8381101561039557818101518382015260200161037d565b50505050905090810190601f1680156103c25780820380516001836020036101000a031916815260200191505b509250505060405180910390f35b3480156103dc57600080fd5b506101716004356024351515610b7f565b6001545b90565b60006103ff82610a84565b151561040a57600080fd5b506000818152602081905260409020600201545b919050565b600061042e83610a84565b151561043957600080fd5b600083815260208181526040909120835161045692850190610bf7565b50600083815260208181526040808320600481015460029091015482518281529283018190526060838501818152885191850191909152875189967f0c1348932d85a8e6cd65504d996eec15538198f7f878b1ed1538b5e2a1af7a8b9694958a959093926080850192918701918190849084905b838110156104e25781810151838201526020016104ca565b50505050905090810190601f16801561050f5780820380516001836020036101000a031916815260200191505b5094505050505060405180910390a250600192915050565b61053360016000610c75565b565b600061054082610a84565b151561054b57600080fd5b5060009081526020819052604090206001015490565b600061056c82610a84565b151561057757600080fd5b5060009081526020819052604090206003015460ff1690565b60006001828154811015156105a157fe5b90600052602060002001549050919050565b60006105be84610a84565b15156105c957600080fd5b600084815260208181526040918290206002808201879055600180830187905560048301548551818152958601889052606094860185815284549283161561010002600019019092169290920493850184905288947f0c1348932d85a8e6cd65504d996eec15538198f7f878b1ed1538b5e2a1af7a8b9492939288929060808301908590801561069a5780601f1061066f5761010080835404028352916020019161069a565b820191906000526020600020905b81548152906001019060200180831161067d57829003601f168201915b505094505050505060405180910390a25060019392505050565b606060008060006106c485610a84565b15156106cf57600080fd5b600085815260208181526040918290206002808201546001808401546003850154855488516101009482161594909402600019011694909404601f81018790048702830187019097528682529395919460ff909316929091869183018282801561077a5780601f1061074f5761010080835404028352916020019161077a565b820191906000526020600020905b81548152906001019060200180831161075d57829003601f168201915b5050505050935093509350935093509193509193565b60008061079b6103ed565b60008181526020818152604090912088519293506107bd929091890190610bf7565b5060008181526020818152604080832060018082018a90556002820189905560038201805460ff191689151517905580548082019091557fb10e2d527612073b26eecdfd717e6a320cf44b4afac2b0732d9fcbe2b7fa0cf681018690556004909101819055815181815291820188905260608284018181528b51918401919091528a5186957f029b14de10d3e6ca536bbb8aae7ea299ced00c37fd6975e22c47d64288f575249593948d948c9491939192608085019291870191908190849084905b8381101561089757818101518382015260200161087f565b50505050905090810190601f1680156108c45780820380516001836020036101000a031916815260200191505b5094505050505060405180910390a2505060015460001901949350505050565b60008060006108f284610a84565b15156108fd57600080fd5b6000848152602081905260409020600401546001805491935090600019810190811061092557fe5b906000526020600020015490508060018381548110151561094257fe5b600091825260208083209091019290925582815290819052604090206004018290556001805490610977906000198301610c96565b5060408051838152905185917f06368e3b045c241b21a8e84227a9a0171afcde2f84e8271f7b85f02e7c0074a8919081900360200190a26000818152602081815260409182902060028082015484518781529485018190526060938501848152835460001961010060018316150201169290920493850184905285947f0c1348932d85a8e6cd65504d996eec15538198f7f878b1ed1538b5e2a1af7a8b9488949390608083019085908015610a6d5780601f10610a4257610100808354040283529160200191610a6d565b820191906000526020600020905b815481529060010190602001808311610a5057829003601f168201915b505094505050505060405180910390a25092915050565b6001546000901515610a985750600061041e565b600082815260208190526040902060040154600180548492908110610ab957fe5b9060005260206000200154149050919050565b6060610ad782610a84565b1515610ae257600080fd5b6000828152602081815260409182902080548351601f600260001961010060018616150201909316929092049182018490048402810184019094528084529091830182828015610b735780601f10610b4857610100808354040283529160200191610b73565b820191906000526020600020905b815481529060010190602001808311610b5657829003601f168201915b50505050509050919050565b6000610b8a83610a84565b1515610b9557600080fd5b60008381526020818152604091829020600301805460ff19168515151790819055825160ff90911615158152915185927f9b09c9cca318477de66c1408ea6804b392307d6447ccab407becad2fd19a6a6292908290030190a250600192915050565b828054600181600116156101000203166002900490600052602060002090601f016020900481019282601f10610c3857805160ff1916838001178555610c65565b82800160010185558215610c65579182015b82811115610c65578251825591602001919060010190610c4a565b50610c71929150610cbf565b5090565b5080546000825590600052602060002090810190610c939190610cbf565b50565b815481835581811115610cba57600083815260209020610cba918101908301610cbf565b505050565b6103f191905b80821115610c715760008155600101610cc55600a165627a7a7230582068f2738b49d2a1a4600ea9bd50665be10bcf08ec467101b187b4412c9673f6400029",
  "source": "pragma solidity ^ 0.4 .18;\r\n\r\ncontract AuditCriteriaManager {\r\n\r\n  struct CriteriaStruct {\r\n    string criteriaText;\r\n    uint minScore;\r\n    uint maxScore;\r\n    bool isActive;\r\n    uint256 index;\r\n  }\r\n\r\n  mapping(uint256 => CriteriaStruct) private CriteriaStructs;\r\n  uint256[] private CriteriaIndex;\r\n\r\n  event LogNewCriteria(uint256 indexed CriteriaIndex, uint index, string CriteriaText, uint maxScore);\r\n  event LogUpdateCriteria(uint256 indexed CriteriaIndex, uint index, string CriteriaText, uint maxScore);\r\n  event LogDeleteCriteria(uint256 indexed CriteriaIndex, uint index);\r\n  event LogCriteriaStatusChange(uint256 indexed CriteriaIndex, bool criteriaStatus);\r\n\r\n  function isCriteria(uint indexExist)\r\n  public\r\n  constant\r\n  returns(bool isIndeed) {\r\n    if (CriteriaIndex.length == 0) return false;\r\n    return (CriteriaIndex[CriteriaStructs[indexExist].index] == indexExist);\r\n  }\r\n\r\n  function insertCriteria(\r\n    string newCriteriaText,\r\n    uint minScore,\r\n    uint maxScore,\r\n    bool isActive)\r\n  public\r\n  returns(uint256 index) {\r\n    uint256 currentIndex = getCriteriaCount();\r\n    CriteriaStructs[currentIndex].criteriaText = newCriteriaText;\r\n    CriteriaStructs[currentIndex].minScore = minScore;\r\n    CriteriaStructs[currentIndex].maxScore = maxScore;\r\n    CriteriaStructs[currentIndex].isActive = isActive;\r\n    \r\n    CriteriaStructs[currentIndex].index = CriteriaIndex.push(currentIndex) - 1;\r\n\r\n    emit LogNewCriteria(\r\n      currentIndex,\r\n      CriteriaStructs[currentIndex].index,\r\n      newCriteriaText,\r\n      maxScore);\r\n    return CriteriaIndex.length - 1;\r\n  }\r\n\r\n  function deleteAllCriteria() public\r\n  {\r\n    delete CriteriaIndex;\r\n  }\r\n\r\n  function deleteCriteria(uint256 deleteCriteriaIndex)\r\n  public\r\n  returns(uint256 index) {\r\n    if (!isCriteria(deleteCriteriaIndex)) revert();\r\n\r\n    uint256 rowToDelete = CriteriaStructs[deleteCriteriaIndex].index;\r\n    uint256 keyToMove   = CriteriaIndex[CriteriaIndex.length - 1];\r\n    CriteriaIndex[rowToDelete] = keyToMove;\r\n    CriteriaStructs[keyToMove].index = rowToDelete;\r\n    CriteriaIndex.length--;\r\n\r\n    emit LogDeleteCriteria(\r\n      deleteCriteriaIndex,\r\n      rowToDelete);\r\n    emit LogUpdateCriteria(\r\n      keyToMove,\r\n      rowToDelete,\r\n      CriteriaStructs[keyToMove].criteriaText,\r\n      CriteriaStructs[keyToMove].maxScore);\r\n    return rowToDelete;\r\n  }\r\n\r\n  function getCriteria(uint256 criteriaIndex)\r\n  public\r\n  constant\r\n  returns(string criteriaText, uint maxScore, uint minScore, bool isActive) {\r\n    if (!isCriteria(criteriaIndex)) revert();\r\n\r\n    return (\r\n      CriteriaStructs[criteriaIndex].criteriaText,\r\n      CriteriaStructs[criteriaIndex].maxScore,\r\n      CriteriaStructs[criteriaIndex].minScore,\r\n      CriteriaStructs[criteriaIndex].isActive);\r\n  }\r\n\r\n\r\n  function getCriteriaText(uint256 criteriaIndex)\r\n  public\r\n  constant\r\n  returns(string criteriaText) {\r\n    if (!isCriteria(criteriaIndex)) revert();\r\n\r\n    return (\r\n      CriteriaStructs[criteriaIndex].criteriaText);\r\n  }\r\n\r\n  function getMaxScore(uint256 criteriaIndex)\r\n  public\r\n  constant\r\n  returns(uint maxScore) {\r\n    if (!isCriteria(criteriaIndex)) revert();\r\n\r\n    return (CriteriaStructs[criteriaIndex].maxScore);\r\n  }\r\n\r\n  function getMinScore(uint256 criteriaIndex)\r\n  public\r\n  constant\r\n  returns(uint minScore) {\r\n    if (!isCriteria(criteriaIndex)) revert();\r\n\r\n    return (CriteriaStructs[criteriaIndex].minScore);\r\n  }\r\n\r\n  function getStatus(uint256 criteriaIndex)\r\n  public\r\n  constant\r\n  returns(bool isActive) {\r\n    if (!isCriteria(criteriaIndex)) revert();\r\n\r\n    return (CriteriaStructs[criteriaIndex].isActive);\r\n  }  \r\n\r\n  function updateCriteriaText(uint256 criteriaIndex, string criteriaText)\r\n  public\r\n  returns(bool success) {\r\n    if (!isCriteria(criteriaIndex)) revert();\r\n\r\n    CriteriaStructs[criteriaIndex].criteriaText = criteriaText;\r\n    emit LogUpdateCriteria(\r\n      criteriaIndex,\r\n      CriteriaStructs[criteriaIndex].index,\r\n      criteriaText,\r\n      CriteriaStructs[criteriaIndex].maxScore);\r\n    return true;\r\n  }\r\n\r\n  function updateMaxMinScore(uint256 index, uint MaxScore, uint MinScore)\r\n  public\r\n  returns(bool success) {\r\n    if (!isCriteria(index)) revert();\r\n\r\n    CriteriaStructs[index].maxScore = MaxScore;\r\n    CriteriaStructs[index].minScore = MinScore;\r\n    emit LogUpdateCriteria(\r\n      index,\r\n      CriteriaStructs[index].index,\r\n      CriteriaStructs[index].criteriaText,\r\n      CriteriaStructs[index].minScore);\r\n    return true;\r\n  }\r\n\r\n  function changeStatus(uint256 index, bool status)\r\n  public\r\n  returns(bool success) {\r\n    if (!isCriteria(index)) revert();\r\n\r\n    CriteriaStructs[index].isActive = status;\r\n\r\n    emit LogCriteriaStatusChange(\r\n      index, CriteriaStructs[index].isActive);\r\n    return true;\r\n  }\r\n\r\n\r\n  function getCriteriaCount()\r\n  public\r\n  constant\r\n  returns(uint256 count) {\r\n    return CriteriaIndex.length;\r\n  }\r\n\r\n  function getCriteriaAtIndex(uint index)\r\n  public\r\n  constant\r\n  returns(uint256 criteriaIndex) {\r\n    return CriteriaIndex[index];\r\n  }\r\n\r\n}",
  "sourcePath": "D:\\Development\\HelloToken\\hellonetmarket\\ethereum\\contracts\\AuditCriteriaManager.sol",
  "compiler": {
    "name": "solc",
    "version": "0.4.24+commit.e67f0147.Emscripten.clang"
  },
  "schemaVersion": "2.0.1",
  "updatedAt": "2018-10-13T10:09:33.016Z"
}