{
  "contractName": "AuditCriteriaManager",
  "abi": [
    {
      "anonymous": false,
      "inputs": [
        {
          "indexed": true,
          "name": "CriteriaIndex",
          "type": "uint256"
        },
        {
          "indexed": false,
          "name": "index",
          "type": "uint256"
        },
        {
          "indexed": false,
          "name": "CriteriaText",
          "type": "string"
        },
        {
          "indexed": false,
          "name": "maxScore",
          "type": "uint256"
        }
      ],
      "name": "LogNewCriteria",
      "type": "event"
    },
    {
      "anonymous": false,
      "inputs": [
        {
          "indexed": true,
          "name": "CriteriaIndex",
          "type": "uint256"
        },
        {
          "indexed": false,
          "name": "index",
          "type": "uint256"
        },
        {
          "indexed": false,
          "name": "CriteriaText",
          "type": "string"
        },
        {
          "indexed": false,
          "name": "maxScore",
          "type": "uint256"
        }
      ],
      "name": "LogUpdateCriteria",
      "type": "event"
    },
    {
      "anonymous": false,
      "inputs": [
        {
          "indexed": true,
          "name": "CriteriaIndex",
          "type": "uint256"
        },
        {
          "indexed": false,
          "name": "index",
          "type": "uint256"
        }
      ],
      "name": "LogDeleteCriteria",
      "type": "event"
    },
    {
      "anonymous": false,
      "inputs": [
        {
          "indexed": true,
          "name": "CriteriaIndex",
          "type": "uint256"
        },
        {
          "indexed": false,
          "name": "criteriaStatus",
          "type": "bool"
        }
      ],
      "name": "LogCriteriaStatusChange",
      "type": "event"
    },
    {
      "constant": true,
      "inputs": [
        {
          "name": "indexExist",
          "type": "uint256"
        }
      ],
      "name": "isCriteria",
      "outputs": [
        {
          "name": "isIndeed",
          "type": "bool"
        }
      ],
      "payable": false,
      "stateMutability": "view",
      "type": "function"
    },
    {
      "constant": false,
      "inputs": [
        {
          "name": "newCriteriaText",
          "type": "string"
        },
        {
          "name": "minScore",
          "type": "uint256"
        },
        {
          "name": "maxScore",
          "type": "uint256"
        },
        {
          "name": "isActive",
          "type": "bool"
        }
      ],
      "name": "insertCriteria",
      "outputs": [
        {
          "name": "index",
          "type": "uint256"
        }
      ],
      "payable": false,
      "stateMutability": "nonpayable",
      "type": "function"
    },
    {
      "constant": false,
      "inputs": [],
      "name": "deleteAllCriteria",
      "outputs": [],
      "payable": false,
      "stateMutability": "nonpayable",
      "type": "function"
    },
    {
      "constant": false,
      "inputs": [
        {
          "name": "deleteCriteriaIndex",
          "type": "uint256"
        }
      ],
      "name": "deleteCriteria",
      "outputs": [
        {
          "name": "index",
          "type": "uint256"
        }
      ],
      "payable": false,
      "stateMutability": "nonpayable",
      "type": "function"
    },
    {
      "constant": true,
      "inputs": [
        {
          "name": "criteriaIndex",
          "type": "uint256"
        }
      ],
      "name": "getCriteria",
      "outputs": [
        {
          "name": "criteriaText",
          "type": "string"
        },
        {
          "name": "maxScore",
          "type": "uint256"
        },
        {
          "name": "minScore",
          "type": "uint256"
        },
        {
          "name": "isActive",
          "type": "bool"
        }
      ],
      "payable": false,
      "stateMutability": "view",
      "type": "function"
    },
    {
      "constant": false,
      "inputs": [
        {
          "name": "criteriaIndex",
          "type": "uint256"
        },
        {
          "name": "criteriaText",
          "type": "string"
        }
      ],
      "name": "updateCriteriaText",
      "outputs": [
        {
          "name": "success",
          "type": "bool"
        }
      ],
      "payable": false,
      "stateMutability": "nonpayable",
      "type": "function"
    },
    {
      "constant": false,
      "inputs": [
        {
          "name": "index",
          "type": "uint256"
        },
        {
          "name": "MaxScore",
          "type": "uint256"
        },
        {
          "name": "MinScore",
          "type": "uint256"
        }
      ],
      "name": "updateMaxMinScore",
      "outputs": [
        {
          "name": "success",
          "type": "bool"
        }
      ],
      "payable": false,
      "stateMutability": "nonpayable",
      "type": "function"
    },
    {
      "constant": false,
      "inputs": [
        {
          "name": "index",
          "type": "uint256"
        },
        {
          "name": "status",
          "type": "bool"
        }
      ],
      "name": "changeStatus",
      "outputs": [
        {
          "name": "success",
          "type": "bool"
        }
      ],
      "payable": false,
      "stateMutability": "nonpayable",
      "type": "function"
    },
    {
      "constant": true,
      "inputs": [],
      "name": "getCriteriaCount",
      "outputs": [
        {
          "name": "count",
          "type": "uint256"
        }
      ],
      "payable": false,
      "stateMutability": "view",
      "type": "function"
    },
    {
      "constant": true,
      "inputs": [
        {
          "name": "index",
          "type": "uint256"
        }
      ],
      "name": "getCriteriaAtIndex",
      "outputs": [
        {
          "name": "criteriaIndex",
          "type": "uint256"
        }
      ],
      "payable": false,
      "stateMutability": "view",
      "type": "function"
    }
  ],
  "bytecode": "0x608060405234801561001057600080fd5b50610ac8806100206000396000f3006080604052600436106100a35763ffffffff7c01000000000000000000000000000000000000000000000000000000006000350416631afe0bbc81146100a857806348d007c6146100cf5780635487193c146101415780636776c6bb1461015857806372b4763c146101705780638931828f1461018e5780638d15438e14610237578063ae48388d1461029f578063b6021593146102b7578063fa2693b3146102cf575b600080fd5b3480156100b457600080fd5b506100bd6102ec565b60408051918252519081900360200190f35b3480156100db57600080fd5b5060408051602060046024803582810135601f810185900485028601850190965285855261012d9583359536956044949193909101919081908401838280828437509497506102f39650505050505050565b604080519115158252519081900360200190f35b34801561014d57600080fd5b506101566103f7565b005b34801561016457600080fd5b506100bd600435610405565b34801561017c57600080fd5b5061012d600435602435604435610429565b34801561019a57600080fd5b506101a660043561052a565b604051808060200185815260200184815260200183151515158152602001828103825286818151815260200191508051906020019080838360005b838110156101f95781810151838201526020016101e1565b50505050905090810190601f1680156102265780820380516001836020036101000a031916815260200191505b509550505050505060405180910390f35b34801561024357600080fd5b506040805160206004803580820135601f81018490048402850184019095528484526100bd9436949293602493928401919081908401838280828437509497505084359550505060208301359260400135151591506106069050565b3480156102ab57600080fd5b506100bd60043561075a565b3480156102c357600080fd5b5061012d6004356108fa565b3480156102db57600080fd5b5061012d6004356024351515610942565b6001545b90565b60006102fe836108fa565b151561030957600080fd5b6000838152602081815260409091208351610326928501906109ba565b50600083815260208181526040808320600481015460029091015482518281529283018190526060838501818152885191850191909152875189967f0c1348932d85a8e6cd65504d996eec15538198f7f878b1ed1538b5e2a1af7a8b9694958a959093926080850192918701918190849084905b838110156103b257818101518382015260200161039a565b50505050905090810190601f1680156103df5780820380516001836020036101000a031916815260200191505b5094505050505060405180910390a250600192915050565b61040360016000610a38565b565b600060018281548110151561041657fe5b906000526020600020015490505b919050565b6000610434846108fa565b151561043f57600080fd5b600084815260208181526040918290206002808201879055600180830187905560048301548551818152958601889052606094860185815284549283161561010002600019019092169290920493850184905288947f0c1348932d85a8e6cd65504d996eec15538198f7f878b1ed1538b5e2a1af7a8b949293928892906080830190859080156105105780601f106104e557610100808354040283529160200191610510565b820191906000526020600020905b8154815290600101906020018083116104f357829003601f168201915b505094505050505060405180910390a25060019392505050565b6060600080600061053a856108fa565b151561054557600080fd5b600085815260208181526040918290206002808201546001808401546003850154855488516101009482161594909402600019011694909404601f81018790048702830187019097528682529395919460ff90931692909186918301828280156105f05780601f106105c5576101008083540402835291602001916105f0565b820191906000526020600020905b8154815290600101906020018083116105d357829003601f168201915b5050505050935093509350935093509193509193565b6000806106116102ec565b60008181526020818152604090912088519293506106339290918901906109ba565b5060008181526020818152604080832060018082018a90556002820189905560038201805460ff191689151517905580548082019091557fb10e2d527612073b26eecdfd717e6a320cf44b4afac2b0732d9fcbe2b7fa0cf681018690556004909101819055815181815291820188905260608284018181528b51918401919091528a5186957f029b14de10d3e6ca536bbb8aae7ea299ced00c37fd6975e22c47d64288f575249593948d948c9491939192608085019291870191908190849084905b8381101561070d5781810151838201526020016106f5565b50505050905090810190601f16801561073a5780820380516001836020036101000a031916815260200191505b5094505050505060405180910390a2505060015460001901949350505050565b6000806000610768846108fa565b151561077357600080fd5b6000848152602081905260409020600401546001805491935090600019810190811061079b57fe5b90600052602060002001549050806001838154811015156107b857fe5b6000918252602080832090910192909255828152908190526040902060040182905560018054906107ed906000198301610a59565b5060408051838152905185917f06368e3b045c241b21a8e84227a9a0171afcde2f84e8271f7b85f02e7c0074a8919081900360200190a26000818152602081815260409182902060028082015484518781529485018190526060938501848152835460001961010060018316150201169290920493850184905285947f0c1348932d85a8e6cd65504d996eec15538198f7f878b1ed1538b5e2a1af7a8b94889493906080830190859080156108e35780601f106108b8576101008083540402835291602001916108e3565b820191906000526020600020905b8154815290600101906020018083116108c657829003601f168201915b505094505050505060405180910390a25092915050565b600154600090151561090e57506000610424565b60008281526020819052604090206004015460018054849290811061092f57fe5b9060005260206000200154149050919050565b600061094d836108fa565b151561095857600080fd5b60008381526020818152604091829020600301805460ff19168515151790819055825160ff90911615158152915185927f9b09c9cca318477de66c1408ea6804b392307d6447ccab407becad2fd19a6a6292908290030190a250600192915050565b828054600181600116156101000203166002900490600052602060002090601f016020900481019282601f106109fb57805160ff1916838001178555610a28565b82800160010185558215610a28579182015b82811115610a28578251825591602001919060010190610a0d565b50610a34929150610a82565b5090565b5080546000825590600052602060002090810190610a569190610a82565b50565b815481835581811115610a7d57600083815260209020610a7d918101908301610a82565b505050565b6102f091905b80821115610a345760008155600101610a885600a165627a7a72305820dbdd376beef18ac2fb3f5d52b330fc11aad36c4bec4844b7917614c26fe5df270029",
  "source": "pragma solidity ^ 0.4 .18;\r\n\r\ncontract AuditCriteriaManager {\r\n\r\n  struct CriteriaStruct {\r\n    string criteriaText;\r\n    uint minScore;\r\n    uint maxScore;\r\n    bool isActive;\r\n    uint256 index;\r\n  }\r\n\r\n  mapping(uint256 => CriteriaStruct) private CriteriaStructs;\r\n  uint256[] private CriteriaIndex;\r\n\r\n  event LogNewCriteria(uint256 indexed CriteriaIndex, uint index, string CriteriaText, uint maxScore);\r\n  event LogUpdateCriteria(uint256 indexed CriteriaIndex, uint index, string CriteriaText, uint maxScore);\r\n  event LogDeleteCriteria(uint256 indexed CriteriaIndex, uint index);\r\n  event LogCriteriaStatusChange(uint256 indexed CriteriaIndex, bool criteriaStatus);\r\n\r\n  function isCriteria(uint indexExist)\r\n  public\r\n  constant\r\n  returns(bool isIndeed) {\r\n    if (CriteriaIndex.length == 0) return false;\r\n    return (CriteriaIndex[CriteriaStructs[indexExist].index] == indexExist);\r\n  }\r\n\r\n  function insertCriteria(\r\n    string newCriteriaText,\r\n    uint minScore,\r\n    uint maxScore,\r\n    bool isActive)\r\n  public\r\n  returns(uint256 index) {\r\n    uint256 currentIndex = getCriteriaCount();\r\n    CriteriaStructs[currentIndex].criteriaText = newCriteriaText;\r\n    CriteriaStructs[currentIndex].minScore = minScore;\r\n    CriteriaStructs[currentIndex].maxScore = maxScore;\r\n    CriteriaStructs[currentIndex].isActive = isActive;\r\n    CriteriaStructs[currentIndex].index = CriteriaIndex.push(currentIndex) - 1;\r\n\r\n    emit LogNewCriteria(\r\n      currentIndex,\r\n      CriteriaStructs[currentIndex].index,\r\n      newCriteriaText,\r\n      maxScore);\r\n    return CriteriaIndex.length - 1;\r\n  }\r\n\r\n  function deleteAllCriteria() public\r\n  {\r\n    delete CriteriaIndex;\r\n  }\r\n\r\n  function deleteCriteria(uint256 deleteCriteriaIndex)\r\n  public\r\n  returns(uint256 index) {\r\n    if (!isCriteria(deleteCriteriaIndex)) revert();\r\n\r\n    uint256 rowToDelete = CriteriaStructs[deleteCriteriaIndex].index;\r\n    uint256 keyToMove   = CriteriaIndex[CriteriaIndex.length - 1];\r\n    CriteriaIndex[rowToDelete] = keyToMove;\r\n    CriteriaStructs[keyToMove].index = rowToDelete;\r\n    CriteriaIndex.length--;\r\n\r\n    emit LogDeleteCriteria(\r\n      deleteCriteriaIndex,\r\n      rowToDelete);\r\n    emit LogUpdateCriteria(\r\n      keyToMove,\r\n      rowToDelete,\r\n      CriteriaStructs[keyToMove].criteriaText,\r\n      CriteriaStructs[keyToMove].maxScore);\r\n    return rowToDelete;\r\n  }\r\n\r\n  function getCriteria(uint256 criteriaIndex)\r\n  public\r\n  constant\r\n  returns(string criteriaText, uint maxScore, uint minScore, bool isActive) {\r\n    if (!isCriteria(criteriaIndex)) revert();\r\n\r\n    return (\r\n      CriteriaStructs[criteriaIndex].criteriaText,\r\n      CriteriaStructs[criteriaIndex].maxScore,\r\n      CriteriaStructs[criteriaIndex].minScore,\r\n      CriteriaStructs[criteriaIndex].isActive);\r\n  }\r\n\r\n  function updateCriteriaText(uint256 criteriaIndex, string criteriaText)\r\n  public\r\n  returns(bool success) {\r\n    if (!isCriteria(criteriaIndex)) revert();\r\n\r\n    CriteriaStructs[criteriaIndex].criteriaText = criteriaText;\r\n    emit LogUpdateCriteria(\r\n      criteriaIndex,\r\n      CriteriaStructs[criteriaIndex].index,\r\n      criteriaText,\r\n      CriteriaStructs[criteriaIndex].maxScore);\r\n    return true;\r\n  }\r\n\r\n  function updateMaxMinScore(uint256 index, uint MaxScore, uint MinScore)\r\n  public\r\n  returns(bool success) {\r\n    if (!isCriteria(index)) revert();\r\n\r\n    CriteriaStructs[index].maxScore = MaxScore;\r\n    CriteriaStructs[index].minScore = MinScore;\r\n    emit LogUpdateCriteria(\r\n      index,\r\n      CriteriaStructs[index].index,\r\n      CriteriaStructs[index].criteriaText,\r\n      CriteriaStructs[index].minScore);\r\n    return true;\r\n  }\r\n\r\n  function changeStatus(uint256 index, bool status)\r\n  public\r\n  returns(bool success) {\r\n    if (!isCriteria(index)) revert();\r\n\r\n    CriteriaStructs[index].isActive = status;\r\n\r\n    emit LogCriteriaStatusChange(\r\n      index, CriteriaStructs[index].isActive);\r\n    return true;\r\n  }\r\n\r\n\r\n  function getCriteriaCount()\r\n  public\r\n  constant\r\n  returns(uint256 count) {\r\n    return CriteriaIndex.length;\r\n  }\r\n\r\n  function getCriteriaAtIndex(uint index)\r\n  public\r\n  constant\r\n  returns(uint256 criteriaIndex) {\r\n    return CriteriaIndex[index];\r\n  }\r\n\r\n}",
  "sourcePath": "D:\\Development\\HelloToken\\hellonetmarket\\ethereum\\contracts\\AuditCriteriaManager.sol",
  "compiler": {
    "name": "solc",
    "version": "0.4.24+commit.e67f0147.Emscripten.clang"
  },
  "schemaVersion": "2.0.1",
  "updatedAt": "2018-10-12T17:29:21.807Z"
}