{
  "contractName": "AuditCriteriaManager",
  "abi": [
    {
      "anonymous": false,
      "inputs": [
        {
          "indexed": true,
          "name": "CriteriaIndex",
          "type": "uint256"
        },
        {
          "indexed": false,
          "name": "index",
          "type": "uint256"
        },
        {
          "indexed": false,
          "name": "CriteriaText",
          "type": "bytes32"
        },
        {
          "indexed": false,
          "name": "maxScore",
          "type": "uint256"
        }
      ],
      "name": "LogNewCriteria",
      "type": "event"
    },
    {
      "anonymous": false,
      "inputs": [
        {
          "indexed": true,
          "name": "CriteriaIndex",
          "type": "uint256"
        },
        {
          "indexed": false,
          "name": "index",
          "type": "uint256"
        },
        {
          "indexed": false,
          "name": "CriteriaText",
          "type": "bytes32"
        },
        {
          "indexed": false,
          "name": "maxScore",
          "type": "uint256"
        }
      ],
      "name": "LogUpdateCriteria",
      "type": "event"
    },
    {
      "anonymous": false,
      "inputs": [
        {
          "indexed": true,
          "name": "CriteriaIndex",
          "type": "uint256"
        },
        {
          "indexed": false,
          "name": "index",
          "type": "uint256"
        }
      ],
      "name": "LogDeleteCriteria",
      "type": "event"
    },
    {
      "constant": true,
      "inputs": [
        {
          "name": "indexExist",
          "type": "uint256"
        }
      ],
      "name": "isCriteria",
      "outputs": [
        {
          "name": "isIndeed",
          "type": "bool"
        }
      ],
      "payable": false,
      "stateMutability": "view",
      "type": "function"
    },
    {
      "constant": false,
      "inputs": [
        {
          "name": "newCriteriaText",
          "type": "bytes32"
        },
        {
          "name": "minScore",
          "type": "uint256"
        },
        {
          "name": "maxScore",
          "type": "uint256"
        },
        {
          "name": "isActive",
          "type": "bool"
        }
      ],
      "name": "insertCriteria",
      "outputs": [
        {
          "name": "index",
          "type": "uint256"
        }
      ],
      "payable": false,
      "stateMutability": "nonpayable",
      "type": "function"
    },
    {
      "constant": false,
      "inputs": [
        {
          "name": "deleteCriteriaIndex",
          "type": "uint256"
        }
      ],
      "name": "deleteCriteria",
      "outputs": [
        {
          "name": "index",
          "type": "uint256"
        }
      ],
      "payable": false,
      "stateMutability": "nonpayable",
      "type": "function"
    },
    {
      "constant": true,
      "inputs": [
        {
          "name": "criteriaIndex",
          "type": "uint256"
        }
      ],
      "name": "getCriteria",
      "outputs": [
        {
          "name": "criteriaText",
          "type": "bytes32"
        },
        {
          "name": "maxScore",
          "type": "uint256"
        },
        {
          "name": "minScore",
          "type": "uint256"
        },
        {
          "name": "isActive",
          "type": "bool"
        }
      ],
      "payable": false,
      "stateMutability": "view",
      "type": "function"
    },
    {
      "constant": false,
      "inputs": [
        {
          "name": "criteriaIndex",
          "type": "uint256"
        },
        {
          "name": "criteriaText",
          "type": "bytes32"
        }
      ],
      "name": "updateCriteriaText",
      "outputs": [
        {
          "name": "success",
          "type": "bool"
        }
      ],
      "payable": false,
      "stateMutability": "nonpayable",
      "type": "function"
    },
    {
      "constant": false,
      "inputs": [
        {
          "name": "index",
          "type": "uint256"
        },
        {
          "name": "MaxScore",
          "type": "uint256"
        },
        {
          "name": "MinScore",
          "type": "uint256"
        }
      ],
      "name": "updateMaxMinScore",
      "outputs": [
        {
          "name": "success",
          "type": "bool"
        }
      ],
      "payable": false,
      "stateMutability": "nonpayable",
      "type": "function"
    },
    {
      "constant": true,
      "inputs": [],
      "name": "getCriteriaCount",
      "outputs": [
        {
          "name": "count",
          "type": "uint256"
        }
      ],
      "payable": false,
      "stateMutability": "view",
      "type": "function"
    },
    {
      "constant": true,
      "inputs": [
        {
          "name": "index",
          "type": "uint256"
        }
      ],
      "name": "getCriteriaAtIndex",
      "outputs": [
        {
          "name": "criteriaIndex",
          "type": "uint256"
        }
      ],
      "payable": false,
      "stateMutability": "view",
      "type": "function"
    }
  ],
  "bytecode": "0x608060405234801561001057600080fd5b506105d3806100206000396000f30060806040526004361061008d5763ffffffff7c01000000000000000000000000000000000000000000000000000000006000350416631afe0bbc81146100925780633d69ba9e146100b95780636776c6bb146100dc57806372b4763c146100f45780638931828f14610126578063ae48388d14610166578063b60215931461017e578063efef7d2214610196575b600080fd5b34801561009e57600080fd5b506100a76101b1565b60408051918252519081900360200190f35b3480156100c557600080fd5b506100a760043560243560443560643515156101b8565b3480156100e857600080fd5b506100a760043561027f565b34801561010057600080fd5b506101126004356024356044356102a3565b604080519115158252519081900360200190f35b34801561013257600080fd5b5061013e600435610329565b6040805194855260208501939093528383019190915215156060830152519081900360800190f35b34801561017257600080fd5b506100a7600435610372565b34801561018a57600080fd5b5061011260043561049a565b3480156101a257600080fd5b506101126004356024356104e2565b6001545b90565b6000806101c36101b1565b6000818152602081815260409182902089815560018082018a90556002820189905560038201805460ff191689151517905580548082019091557fb10e2d527612073b26eecdfd717e6a320cf44b4afac2b0732d9fcbe2b7fa0cf6810185905560049091018190558251908152908101899052808201879052905191925082917f1d993ec08481c99bf5092f1110228ab96e7c3a9ed793ff80146c9d250658f0c4916060908290030190a2505060015460001901949350505050565b600060018281548110151561029057fe5b906000526020600020015490505b919050565b60006102ae8461049a565b15156102b957600080fd5b60008481526020818152604091829020600281018690556001810185905560048101549054835191825291810191909152808201849052905185917f979922c7e8fc9a4ff4f3569549e039cf2da0065c31c65d09a9482bf88977dc25919081900360600190a25060019392505050565b6000806000806103388561049a565b151561034357600080fd5b505050600091825250602081905260409020805460028201546001830154600390930154919390929160ff1690565b60008060006103808461049a565b151561038b57600080fd5b600084815260208190526040902060040154600180549193509060001981019081106103b357fe5b90600052602060002001549050806001838154811015156103d057fe5b600091825260208083209091019290925582815290819052604090206004018290556001805490610405906000198301610560565b5060408051838152905185917f06368e3b045c241b21a8e84227a9a0171afcde2f84e8271f7b85f02e7c0074a8919081900360200190a260008181526020818152604091829020805460029091015483518681529283019190915281830152905182917f979922c7e8fc9a4ff4f3569549e039cf2da0065c31c65d09a9482bf88977dc25919081900360600190a25092915050565b60015460009015156104ae5750600061029e565b6000828152602081905260409020600401546001805484929081106104cf57fe5b9060005260206000200154149050919050565b60006104ed8361049a565b15156104f857600080fd5b600083815260208181526040918290208481556004810154600290910154835191825291810185905280830191909152905184917f979922c7e8fc9a4ff4f3569549e039cf2da0065c31c65d09a9482bf88977dc25919081900360600190a250600192915050565b81548183558181111561058457600083815260209020610584918101908301610589565b505050565b6101b591905b808211156105a3576000815560010161058f565b50905600a165627a7a723058206be59d9098d66f88146565a09a5ee50263d8236be230c26b86061fa053e459e10029",
  "source": "pragma solidity ^0.4.18;\r\n\r\ncontract AuditCriteriaManager {\r\n\r\n  struct CriteriaStruct {\r\n    bytes32 criteriaText;\r\n    uint minScore;\r\n    uint maxScore;\r\n    bool isActive;\r\n    uint256 index;\r\n  }\r\n  \r\n  mapping(uint256 => CriteriaStruct) private CriteriaStructs;\r\n  uint256[] private CriteriaIndex;\r\n\r\n  event LogNewCriteria   (uint256 indexed CriteriaIndex, uint index, bytes32 CriteriaText, uint maxScore);\r\n  event LogUpdateCriteria(uint256 indexed CriteriaIndex, uint index, bytes32 CriteriaText, uint maxScore);\r\n  event LogDeleteCriteria(uint256 indexed CriteriaIndex, uint index);\r\n  \r\n  function isCriteria(uint indexExist)\r\n    public \r\n    constant\r\n    returns(bool isIndeed) \r\n  {\r\n    if(CriteriaIndex.length == 0) return false;\r\n    return (CriteriaIndex[CriteriaStructs[indexExist].index] == indexExist);\r\n  }\r\n\r\n  function insertCriteria(\r\n    bytes32 newCriteriaText, \r\n    uint minScore, \r\n    uint maxScore,\r\n    bool isActive) \r\n    public\r\n    returns(uint256 index)\r\n  {\r\n    //if(isCriteria(CriteriaAddress)) revert();\r\n    uint256 currentIndex = getCriteriaCount();\r\n\r\n    CriteriaStructs[currentIndex].criteriaText  = newCriteriaText;\r\n    CriteriaStructs[currentIndex].minScore      = minScore;\r\n    CriteriaStructs[currentIndex].maxScore      = maxScore;\r\n    CriteriaStructs[currentIndex].isActive      = isActive;\r\n    CriteriaStructs[currentIndex].index         = CriteriaIndex.push(currentIndex)-1;\r\n\r\n    emit LogNewCriteria(\r\n        currentIndex, \r\n        CriteriaStructs[currentIndex].index, \r\n        newCriteriaText, \r\n        maxScore);\r\n    return CriteriaIndex.length-1;\r\n  }\r\n\r\n  function deleteCriteria(uint256 deleteCriteriaIndex) \r\n    public\r\n    returns(uint256 index)\r\n  {\r\n    if(!isCriteria(deleteCriteriaIndex)) revert();\r\n\r\n    uint256 rowToDelete = CriteriaStructs[deleteCriteriaIndex].index;\r\n    uint256 keyToMove   = CriteriaIndex[CriteriaIndex.length-1];\r\n    CriteriaIndex[rowToDelete] = keyToMove;\r\n    CriteriaStructs[keyToMove].index = rowToDelete; \r\n    CriteriaIndex.length--;\r\n    emit LogDeleteCriteria(\r\n        deleteCriteriaIndex, \r\n        rowToDelete);\r\n    emit LogUpdateCriteria(\r\n        keyToMove, \r\n        rowToDelete, \r\n        CriteriaStructs[keyToMove].criteriaText, \r\n        CriteriaStructs[keyToMove].maxScore);\r\n    return rowToDelete;\r\n  }\r\n  \r\n  function getCriteria(uint256 criteriaIndex)\r\n    public \r\n    constant\r\n    returns(bytes32 criteriaText, uint maxScore, uint minScore, bool isActive)\r\n  {\r\n    if(!isCriteria(criteriaIndex)) revert();\r\n\r\n    return(\r\n      CriteriaStructs[criteriaIndex].criteriaText, \r\n      CriteriaStructs[criteriaIndex].maxScore, \r\n      CriteriaStructs[criteriaIndex].minScore,\r\n      CriteriaStructs[criteriaIndex].isActive);\r\n  } \r\n  \r\n  function updateCriteriaText(uint256 criteriaIndex, bytes32 criteriaText) \r\n    public\r\n    returns(bool success) \r\n  {\r\n    if(!isCriteria(criteriaIndex)) revert();\r\n\r\n    CriteriaStructs[criteriaIndex].criteriaText = criteriaText;\r\n    emit LogUpdateCriteria(\r\n      criteriaIndex, \r\n      CriteriaStructs[criteriaIndex].index,\r\n      criteriaText, \r\n      CriteriaStructs[criteriaIndex].maxScore);\r\n    return true;\r\n  }\r\n  \r\n  function updateMaxMinScore(uint256 index, uint MaxScore, uint MinScore) \r\n    public\r\n    returns(bool success) \r\n  {\r\n    if(!isCriteria(index)) revert();\r\n\r\n    CriteriaStructs[index].maxScore = MaxScore;\r\n    CriteriaStructs[index].minScore = MinScore;\r\n    emit LogUpdateCriteria(\r\n      index, \r\n      CriteriaStructs[index].index,\r\n      CriteriaStructs[index].criteriaText,\r\n      CriteriaStructs[index].minScore);\r\n    return true;\r\n  }\r\n\r\n  function getCriteriaCount() \r\n    public\r\n    constant\r\n    returns(uint256 count)\r\n  {\r\n    return CriteriaIndex.length;\r\n  }\r\n\r\n  function getCriteriaAtIndex(uint index)\r\n    public\r\n    constant\r\n    returns(uint256 criteriaIndex)\r\n  {\r\n    return CriteriaIndex[index];\r\n  }\r\n\r\n}",
  "sourcePath": "D:\\Development\\HelloToken\\hellonetmarket\\ethereum\\contracts\\AuditCriteriaManager.sol",
  "compiler": {
    "name": "solc",
    "version": "0.4.24+commit.e67f0147.Emscripten.clang"
  },
  "schemaVersion": "2.0.1",
  "updatedAt": "2018-10-08T16:52:52.839Z"
}