{
  "contractName": "Company",
  "abi": [
    {
      "constant": true,
      "inputs": [
        {
          "name": "",
          "type": "address"
        }
      ],
      "name": "isSupportAgent",
      "outputs": [
        {
          "name": "",
          "type": "bool"
        }
      ],
      "payable": false,
      "stateMutability": "view",
      "type": "function"
    },
    {
      "constant": true,
      "inputs": [
        {
          "name": "",
          "type": "uint256"
        }
      ],
      "name": "supportAgentRecords",
      "outputs": [
        {
          "name": "",
          "type": "address"
        }
      ],
      "payable": false,
      "stateMutability": "view",
      "type": "function"
    },
    {
      "constant": false,
      "inputs": [
        {
          "name": "_address",
          "type": "address"
        },
        {
          "name": "_email",
          "type": "string"
        },
        {
          "name": "_fName",
          "type": "string"
        },
        {
          "name": "_lName",
          "type": "string"
        },
        {
          "name": "_timeZone",
          "type": "string"
        }
      ],
      "name": "addSupportAgent",
      "outputs": [
        {
          "name": "index",
          "type": "uint256"
        }
      ],
      "payable": false,
      "stateMutability": "nonpayable",
      "type": "function"
    },
    {
      "constant": false,
      "inputs": [
        {
          "name": "_address",
          "type": "address"
        }
      ],
      "name": "removeOneSupportAgent",
      "outputs": [
        {
          "name": "",
          "type": "uint256"
        }
      ],
      "payable": false,
      "stateMutability": "nonpayable",
      "type": "function"
    },
    {
      "constant": false,
      "inputs": [],
      "name": "removeAllSupportAgent",
      "outputs": [
        {
          "name": "",
          "type": "uint256"
        }
      ],
      "payable": false,
      "stateMutability": "nonpayable",
      "type": "function"
    },
    {
      "constant": true,
      "inputs": [],
      "name": "findAllSupportAgents",
      "outputs": [
        {
          "name": "",
          "type": "address[]"
        }
      ],
      "payable": false,
      "stateMutability": "view",
      "type": "function"
    },
    {
      "constant": true,
      "inputs": [
        {
          "name": "index",
          "type": "uint256"
        }
      ],
      "name": "findSupportAgentAddressById",
      "outputs": [
        {
          "name": "",
          "type": "address"
        }
      ],
      "payable": false,
      "stateMutability": "view",
      "type": "function"
    },
    {
      "constant": true,
      "inputs": [
        {
          "name": "_address",
          "type": "address"
        }
      ],
      "name": "findSupportAgentArrayIndex",
      "outputs": [
        {
          "name": "",
          "type": "uint256"
        }
      ],
      "payable": false,
      "stateMutability": "view",
      "type": "function"
    },
    {
      "constant": true,
      "inputs": [
        {
          "name": "_address",
          "type": "address"
        }
      ],
      "name": "getAgentEmail",
      "outputs": [
        {
          "name": "",
          "type": "string"
        }
      ],
      "payable": false,
      "stateMutability": "view",
      "type": "function"
    },
    {
      "constant": true,
      "inputs": [
        {
          "name": "_address",
          "type": "address"
        }
      ],
      "name": "findSupportAgentByAddress",
      "outputs": [
        {
          "name": "",
          "type": "string"
        },
        {
          "name": "",
          "type": "string"
        },
        {
          "name": "",
          "type": "string"
        },
        {
          "name": "",
          "type": "string"
        }
      ],
      "payable": false,
      "stateMutability": "view",
      "type": "function"
    },
    {
      "constant": true,
      "inputs": [],
      "name": "countSupportAgents",
      "outputs": [
        {
          "name": "",
          "type": "uint256"
        }
      ],
      "payable": false,
      "stateMutability": "view",
      "type": "function"
    }
  ],
  "bytecode": "0x608060405234801561001057600080fd5b506112cb806100206000396000f3006080604052600436106100ae5763ffffffff7c010000000000000000000000000000000000000000000000000000000060003504166319df220d81146100b35780632accc6bd146100da578063413e2523146102a557806351eef9d6146102c657806361293545146102db57806383936f8c1461030f5780638fd2f1a614610330578063beee39c614610395578063c5722598146104b6578063c99901b01461054c578063fe67910014610581575b600080fd5b3480156100bf57600080fd5b506100c8610599565b60408051918252519081900360200190f35b3480156100e657600080fd5b506100fb600160a060020a0360043516610669565b6040518080602001806020018060200180602001858103855289818151815260200191508051906020019080838360005b8381101561014457818101518382015260200161012c565b50505050905090810190601f1680156101715780820380516001836020036101000a031916815260200191505b5085810384528851815288516020918201918a019080838360005b838110156101a457818101518382015260200161018c565b50505050905090810190601f1680156101d15780820380516001836020036101000a031916815260200191505b50858103835287518152875160209182019189019080838360005b838110156102045781810151838201526020016101ec565b50505050905090810190601f1680156102315780820380516001836020036101000a031916815260200191505b50858103825286518152865160209182019188019080838360005b8381101561026457818101518382015260200161024c565b50505050905090810190601f1680156102915780820380516001836020036101000a031916815260200191505b509850505050505050505060405180910390f35b3480156102b157600080fd5b506100c8600160a060020a0360043516610988565b3480156102d257600080fd5b506100c8610afe565b3480156102e757600080fd5b506102f3600435610b05565b60408051600160a060020a039092168252519081900360200190f35b34801561031b57600080fd5b506100c8600160a060020a0360043516610b20565b34801561033c57600080fd5b50610345610bdc565b60408051602080825283518183015283519192839290830191858101910280838360005b83811015610381578181015183820152602001610369565b505050509050019250505060405180910390f35b3480156103a157600080fd5b5060408051602060046024803582810135601f81018590048502860185019096528585526100c8958335600160a060020a031695369560449491939091019190819084018382808284375050604080516020601f89358b018035918201839004830284018301909452808352979a99988101979196509182019450925082915084018382808284375050604080516020601f89358b018035918201839004830284018301909452808352979a99988101979196509182019450925082915084018382808284375050604080516020601f89358b018035918201839004830284018301909452808352979a999881019791965091820194509250829150840183828082843750949750610c3e9650505050505050565b3480156104c257600080fd5b506104d7600160a060020a0360043516610fc4565b6040805160208082528351818301528351919283929083019185019080838360005b838110156105115781810151838201526020016104f9565b50505050905090810190601f16801561053e5780820380516001836020036101000a031916815260200191505b509250505060405180910390f35b34801561055857600080fd5b5061056d600160a060020a036004351661111c565b604080519115158252519081900360200190f35b34801561058d57600080fd5b506102f3600435611131565b600080805b60035482101561064e57506000818152602081815260408083208054600160a060020a031680855260048452828520805460ff191690556002845291842084905584845291839052815473ffffffffffffffffffffffffffffffffffffffff191682559161060f6001830182611159565b61061d600283016000611159565b61062b600383016000611159565b610639600483016000611159565b5060006005919091015560019091019061059e565b61065a600360006111a0565b610662610afe565b9250505090565b600160a060020a03811660009081526004602052604081205460609182918291829160ff1615156001146107125760408051600080516020611280833981519152815260206004820152602f60248201527f5468657265206973206e6f2073756368206167656e742077697468207468652060448201527f676976656e206164647265737320210000000000000000000000000000000000606482015290519081900360840190fd5b50600160a060020a0385166000908152600260208181526040808420548085528483529381902060018082018054845192811615610100026000190116869004601f810186900486028301860190945283825294820193600383019360049093019286918301828280156107c75780601f1061079c576101008083540402835291602001916107c7565b820191906000526020600020905b8154815290600101906020018083116107aa57829003601f168201915b5050865460408051602060026001851615610100026000190190941693909304601f8101849004840282018401909252818152959950889450925084019050828280156108555780601f1061082a57610100808354040283529160200191610855565b820191906000526020600020905b81548152906001019060200180831161083857829003601f168201915b5050855460408051602060026001851615610100026000190190941693909304601f8101849004840282018401909252818152959850879450925084019050828280156108e35780601f106108b8576101008083540402835291602001916108e3565b820191906000526020600020905b8154815290600101906020018083116108c657829003601f168201915b5050845460408051602060026001851615610100026000190190941693909304601f8101849004840282018401909252818152959750869450925084019050828280156109715780601f1061094657610100808354040283529160200191610971565b820191906000526020600020905b81548152906001019060200180831161095457829003601f168201915b505050505090509450945094509450509193509193565b600160a060020a038116600090815260046020526040812054819060ff161515600114610a2a5760408051600080516020611280833981519152815260206004820152602f60248201527f5468657265206973206e6f2073756368206167656e742077697468207468652060448201527f676976656e206164647265737320210000000000000000000000000000000000606482015290519081900360840190fd5b50600160a060020a0382166000908152600260209081526040808320805460048452828520805460ff1916905590849055808452918390528220805473ffffffffffffffffffffffffffffffffffffffff191681559091610a8e6001830182611159565b610a9c600283016000611159565b610aaa600383016000611159565b610ab8600483016000611159565b506000600591909101556003805482908110610ad057fe5b60009182526020822001556003805490610aee9060001983016111be565b50610af7610afe565b9392505050565b6003545b90565b600090815260208190526040902054600160a060020a031690565b600160a060020a03811660009081526004602052604081205460ff161515600114610bc05760408051600080516020611280833981519152815260206004820152602f60248201527f5468657265206973206e6f2073756368206167656e742077697468207468652060448201527f676976656e206164647265737320210000000000000000000000000000000000606482015290519081900360840190fd5b50600160a060020a031660009081526002602052604090205490565b60606001805480602002602001604051908101604052809291908181526020018280548015610c3457602002820191906000526020600020905b8154600160a060020a03168152600190910190602001808311610c16575b5050505050905090565b600160a060020a038516600090815260046020526040812054819060ff1615610cb65760408051600080516020611280833981519152815260206004820152601560248201527f4167656e7420616c726561647920657869737420210000000000000000000000604482015290519081900360640190fd5b855160051115610d155760408051600080516020611280833981519152815260206004820152601760248201527f496e76616c696420456d61696c20616464726573732021000000000000000000604482015290519081900360640190fd5b845160031115610d9a5760408051600080516020611280833981519152815260206004820152602b60248201527f4669727374206e616d652073686f756c6420636f6e7461696e206d696e696d7560448201527f6d2033206c657474657273000000000000000000000000000000000000000000606482015290519081900360840190fd5b835160031115610e1f5760408051600080516020611280833981519152815260206004820152602a60248201527f4c617374206e616d652073686f756c6420636f6e7461696e206d696e696d756d60448201527f2033206c65747465727300000000000000000000000000000000000000000000606482015290519081900360840190fd5b825160031115610e7e5760408051600080516020611280833981519152815260206004820152601360248201527f54696d657a6f6e6520697320496e76616c696400000000000000000000000000604482015290519081900360640190fd5b610e86610afe565b600160a060020a0388166000818152600460209081526040808320805460ff191660019081179091558584528383529220805473ffffffffffffffffffffffffffffffffffffffff191690931783558951939450610eec939290910191908901906111e7565b506000818152602081815260409091208651610f10926002909201918801906111e7565b506000818152602081815260409091208551610f34926003909201918701906111e7565b506000818152602081815260409091208451610f58926004909201918601906111e7565b50600380546001810182557fc2575a0e9e593c00f959f8c92f12db2869c3395a3b0502d05e2516446f71f85b810183905560008381526020818152604080832060050193909355600160a060020a038b1682526002905220829055546000190191505095945050505050565b600160a060020a0381166000908152600460205260408120546060919060ff1615156001146110685760408051600080516020611280833981519152815260206004820152602f60248201527f5468657265206973206e6f2073756368206167656e742077697468207468652060448201527f676976656e206164647265737320210000000000000000000000000000000000606482015290519081900360840190fd5b50600160a060020a038216600090815260026020818152604080842054808552848352938190206001908101805483519281161561010002600019011694909404601f8101849004840282018401909252818152929183018282801561110f5780601f106110e45761010080835404028352916020019161110f565b820191906000526020600020905b8154815290600101906020018083116110f257829003601f168201915b5050505050915050919050565b60046020526000908152604090205460ff1681565b600180548290811061113f57fe5b600091825260209091200154600160a060020a0316905081565b50805460018160011615610100020316600290046000825580601f1061117f575061119d565b601f01602090049060005260206000209081019061119d9190611265565b50565b508054600082559060005260206000209081019061119d9190611265565b8154818355818111156111e2576000838152602090206111e2918101908301611265565b505050565b828054600181600116156101000203166002900490600052602060002090601f016020900481019282601f1061122857805160ff1916838001178555611255565b82800160010185558215611255579182015b8281111561125557825182559160200191906001019061123a565b50611261929150611265565b5090565b610b0291905b80821115611261576000815560010161126b560008c379a000000000000000000000000000000000000000000000000000000000a165627a7a72305820794b49a8c5ce6b98886dbf13cea5b908b3e1a280a7a63f3f44726bfa7105c2c40029",
  "source": "pragma solidity ^ 0.4 .18;\r\n\r\ncontract Company {\r\n\r\n    struct SupportAgent {\r\n        address agentAddress;\r\n        string email;\r\n        string fName;\r\n        string lName;\r\n        string timeZone;\r\n        uint index;\r\n    }\r\n\r\n    mapping(uint256 => SupportAgent) private SupportAgents;\r\n    address[] public supportAgentRecords;\r\n    \r\n    mapping(address => uint256) private agentRecords;\r\n    \r\n    uint256[] private agentIndex;\r\n    \r\n    \r\n    mapping(address => bool) public isSupportAgent;\r\n\r\n    //////////////////////////////////////////////////////////////////////////////////////////////////////\r\n    modifier agentDoesNotExist(address supportagent) {\r\n        require(!isSupportAgent[supportagent]);\r\n        _;\r\n    }\r\n\r\n    modifier agentExist(address supportagent) {\r\n        require(isSupportAgent[supportagent]);\r\n        _;\r\n    }\r\n\r\n    modifier notNull(address _address) {\r\n        require(_address != 0);\r\n        _;\r\n    }\r\n    //////////////////////////////////////////////////////////////////////////////////////////////////////\r\n\r\n    function addSupportAgent(address _address, string _email, string _fName, string _lName, string _timeZone) \r\n    public\r\n      returns(uint256 index) {\r\n        \r\n        \r\n        // If the first argument of `require` evaluates\r\n        // to `false`, execution terminates and all\r\n        // changes to the state and to Ether balances\r\n        // are reverted.\r\n        // This used to consume all gas in old EVM versions, but\r\n        // not anymore.\r\n        // It is often a good idea to use `require` to check if\r\n        // functions are called correctly.\r\n        // As a second argument, you can also provide an\r\n        // explanation about what went wrong.        \r\n            \r\n        require(\r\n            isSupportAgent[_address] == false,\r\n            \"Agent already exist !\"\r\n            );            \r\n        \r\n        \r\n        require(\r\n            (bytes(_email).length < 5)==false,\r\n            \"Invalid Email address !\"\r\n            );\r\n    \r\n        require(\r\n            (bytes(_fName).length < 3)==false,\r\n            \"First name should contain minimum 3 letters\"\r\n            );        \r\n        \r\n        require(\r\n            (bytes(_lName).length < 3)==false,\r\n            \"Last name should contain minimum 3 letters\"\r\n            );                \r\n            \r\n        require(\r\n            (bytes(_timeZone).length < 3)==false,\r\n            \"Timezone is Invalid\"\r\n            );      \r\n            \r\n        uint256 currentIndex = countSupportAgents();\r\n        isSupportAgent[_address] = true;\r\n        \r\n        SupportAgents[currentIndex].agentAddress = _address;\r\n        SupportAgents[currentIndex].email        = _email;\r\n        SupportAgents[currentIndex].fName        = _fName;\r\n        SupportAgents[currentIndex].lName        = _lName;        \r\n        SupportAgents[currentIndex].timeZone     = _timeZone;\r\n\r\n        SupportAgents[currentIndex].index = agentIndex.push(currentIndex) - 1;\r\n        \r\n        agentRecords[_address] = currentIndex;\r\n        \r\n        return agentIndex.length-1;\r\n    }\r\n\r\n    function removeOneSupportAgent(address _address) public returns(uint) {\r\n        \r\n        require(\r\n            isSupportAgent[_address] == true,\r\n            \"There is no such agent with the given address !\"\r\n            );            \r\n        \r\n\r\n         uint256 index = agentRecords[_address];    \r\n                \r\n         delete isSupportAgent[_address];\r\n         delete agentRecords[_address];\r\n         \r\n         delete SupportAgents[index];\r\n         delete agentIndex[index];\r\n         \r\n         agentIndex.length--;\r\n        \r\n        return countSupportAgents();\r\n    }\r\n\r\n    function removeAllSupportAgent() public returns(uint) {\r\n\r\n        for (uint i=0; i < agentIndex.length; i++) \r\n        {\r\n         address agentAddress = SupportAgents[i].agentAddress;    \r\n         \r\n         delete isSupportAgent[agentAddress];\r\n         delete agentRecords[agentAddress];\r\n         delete SupportAgents[i];\r\n         \r\n        }\r\n        delete agentIndex;        \r\n        return countSupportAgents();\r\n    }\r\n    \r\n\r\n    function findAllSupportAgents() view public returns(address[]) {\r\n        return supportAgentRecords;\r\n    }\r\n\r\n    function findSupportAgentAddressById(uint index) view public returns(address) {\r\n        return (SupportAgents[index].agentAddress);\r\n    }\r\n\r\n    function findSupportAgentArrayIndex(address _address) view public returns(uint) {\r\n\r\n        require(\r\n            isSupportAgent[_address] == true,\r\n            \"There is no such agent with the given address !\"\r\n            );            \r\n\r\n        return agentRecords[_address];\r\n\r\n    }\r\n\r\n    \r\n    function getAgentEmail(address _address) view public returns(string) \r\n    {\r\n        require(\r\n            isSupportAgent[_address] == true,\r\n            \"There is no such agent with the given address !\"\r\n            );          \r\n        \r\n        uint256 index = agentRecords[_address];    \r\n        \r\n        return (SupportAgents[index].email);\r\n    }\r\n    \r\n    \r\n   function findSupportAgentByAddress(address _address) view public returns(string, string, string, string) \r\n    {\r\n        require(\r\n            isSupportAgent[_address] == true,\r\n            \"There is no such agent with the given address !\"\r\n            );          \r\n            \r\n        uint256 index = agentRecords[_address];    \r\n            \r\n        return \r\n        (SupportAgents[index].email, \r\n        SupportAgents[index].fName, \r\n        SupportAgents[index].lName,\r\n        SupportAgents[index].timeZone);\r\n    }\r\n      \r\n    \r\n    function countSupportAgents() view public returns(uint256) {\r\n        return agentIndex.length;\r\n    }\r\n    \r\n}",
  "sourcePath": "D:\\Development\\HelloToken\\hellonetmarket\\ethereum\\contracts\\Company.sol",
  "compiler": {
    "name": "solc",
    "version": "0.4.24+commit.e67f0147.Emscripten.clang"
  },
  "schemaVersion": "2.0.1",
  "updatedAt": "2018-10-13T10:09:33.022Z"
}