{
  "contractName": "Company",
  "abi": [
    {
      "constant": true,
      "inputs": [
        {
          "name": "",
          "type": "address"
        }
      ],
      "name": "isSupportAgent",
      "outputs": [
        {
          "name": "",
          "type": "bool"
        }
      ],
      "payable": false,
      "stateMutability": "view",
      "type": "function"
    },
    {
      "constant": true,
      "inputs": [
        {
          "name": "",
          "type": "uint256"
        }
      ],
      "name": "supportAgentRecords",
      "outputs": [
        {
          "name": "",
          "type": "address"
        }
      ],
      "payable": false,
      "stateMutability": "view",
      "type": "function"
    },
    {
      "constant": false,
      "inputs": [
        {
          "name": "_address",
          "type": "address"
        },
        {
          "name": "_email",
          "type": "string"
        },
        {
          "name": "_fName",
          "type": "string"
        },
        {
          "name": "_lName",
          "type": "string"
        },
        {
          "name": "_timeZone",
          "type": "string"
        }
      ],
      "name": "addSupportAgent",
      "outputs": [],
      "payable": false,
      "stateMutability": "nonpayable",
      "type": "function"
    },
    {
      "constant": false,
      "inputs": [
        {
          "name": "_address",
          "type": "address"
        }
      ],
      "name": "removeOneSupportAgent",
      "outputs": [
        {
          "name": "",
          "type": "uint256"
        }
      ],
      "payable": false,
      "stateMutability": "nonpayable",
      "type": "function"
    },
    {
      "constant": false,
      "inputs": [],
      "name": "removeAllSupportAgent",
      "outputs": [
        {
          "name": "",
          "type": "uint256"
        }
      ],
      "payable": false,
      "stateMutability": "nonpayable",
      "type": "function"
    },
    {
      "constant": true,
      "inputs": [],
      "name": "findAllSupportAgents",
      "outputs": [
        {
          "name": "",
          "type": "address[]"
        }
      ],
      "payable": false,
      "stateMutability": "view",
      "type": "function"
    },
    {
      "constant": true,
      "inputs": [
        {
          "name": "index",
          "type": "uint256"
        }
      ],
      "name": "findSupportAgentAddressById",
      "outputs": [
        {
          "name": "",
          "type": "address"
        }
      ],
      "payable": false,
      "stateMutability": "view",
      "type": "function"
    },
    {
      "constant": true,
      "inputs": [
        {
          "name": "_address",
          "type": "address"
        }
      ],
      "name": "findSupportAgentArrayIndex",
      "outputs": [
        {
          "name": "",
          "type": "uint256"
        }
      ],
      "payable": false,
      "stateMutability": "view",
      "type": "function"
    },
    {
      "constant": true,
      "inputs": [
        {
          "name": "_address",
          "type": "address"
        }
      ],
      "name": "findSupportAgentByAddress",
      "outputs": [
        {
          "name": "",
          "type": "string"
        },
        {
          "name": "",
          "type": "string"
        },
        {
          "name": "",
          "type": "string"
        },
        {
          "name": "",
          "type": "string"
        }
      ],
      "payable": false,
      "stateMutability": "view",
      "type": "function"
    },
    {
      "constant": true,
      "inputs": [],
      "name": "countSupportAgents",
      "outputs": [
        {
          "name": "",
          "type": "uint256"
        }
      ],
      "payable": false,
      "stateMutability": "view",
      "type": "function"
    }
  ],
  "bytecode": "0x608060405234801561001057600080fd5b50610db6806100206000396000f3006080604052600436106100a35763ffffffff7c010000000000000000000000000000000000000000000000000000000060003504166319df220d81146100a85780632accc6bd146100cf578063413e25231461029a57806351eef9d6146102bb57806361293545146102d057806383936f8c146103045780638fd2f1a614610325578063beee39c61461038a578063c99901b0146104ad578063fe679100146104e2575b600080fd5b3480156100b457600080fd5b506100bd6104fa565b60408051918252519081900360200190f35b3480156100db57600080fd5b506100f0600160a060020a036004351661059c565b6040518080602001806020018060200180602001858103855289818151815260200191508051906020019080838360005b83811015610139578181015183820152602001610121565b50505050905090810190601f1680156101665780820380516001836020036101000a031916815260200191505b5085810384528851815288516020918201918a019080838360005b83811015610199578181015183820152602001610181565b50505050905090810190601f1680156101c65780820380516001836020036101000a031916815260200191505b50858103835287518152875160209182019189019080838360005b838110156101f95781810151838201526020016101e1565b50505050905090810190601f1680156102265780820380516001836020036101000a031916815260200191505b50858103825286518152865160209182019188019080838360005b83811015610259578181015183820152602001610241565b50505050905090810190601f1680156102865780820380516001836020036101000a031916815260200191505b509850505050505050505060405180910390f35b3480156102a657600080fd5b506100bd600160a060020a036004351661080e565b3480156102c757600080fd5b506100bd610907565b3480156102dc57600080fd5b506102e860043561090e565b60408051600160a060020a039092168252519081900360200190f35b34801561031057600080fd5b506100bd600160a060020a036004351661093a565b34801561033157600080fd5b5061033a610958565b60408051602080825283518183015283519192839290830191858101910280838360005b8381101561037657818101518382015260200161035e565b505050509050019250505060405180910390f35b34801561039657600080fd5b5060408051602060046024803582810135601f81018590048502860185019096528585526104ab958335600160a060020a031695369560449491939091019190819084018382808284375050604080516020601f89358b018035918201839004830284018301909452808352979a99988101979196509182019450925082915084018382808284375050604080516020601f89358b018035918201839004830284018301909452808352979a99988101979196509182019450925082915084018382808284375050604080516020601f89358b018035918201839004830284018301909452808352979a9998810197919650918201945092508291508401838280828437509497506109ba9650505050505050565b005b3480156104b957600080fd5b506104ce600160a060020a0360043516610cd6565b604080519115158252519081900360200190f35b3480156104ee57600080fd5b506102e8600435610ceb565b600080805b6001546000190182101561058d576105168261090e565b600160a060020a0381166000908152600260205260409020805460ff1916905560018054919250908390811061054857fe5b6000918252602090912001805473ffffffffffffffffffffffffffffffffffffffff191690556001805490610581906000198301610d13565b506001909101906104ff565b610595610907565b9250505090565b600160a060020a038116600090815260208181526040918290208054835160026001808416156101000260001901909316819004601f8101869004860283018601909652858252606095869586958695909490850193850192600386019286919083018282801561064e5780601f106106235761010080835404028352916020019161064e565b820191906000526020600020905b81548152906001019060200180831161063157829003601f168201915b5050865460408051602060026001851615610100026000190190941693909304601f8101849004840282018401909252818152959950889450925084019050828280156106dc5780601f106106b1576101008083540402835291602001916106dc565b820191906000526020600020905b8154815290600101906020018083116106bf57829003601f168201915b5050855460408051602060026001851615610100026000190190941693909304601f81018490048402820184019092528181529598508794509250840190508282801561076a5780601f1061073f5761010080835404028352916020019161076a565b820191906000526020600020905b81548152906001019060200180831161074d57829003601f168201915b5050845460408051602060026001851615610100026000190190941693909304601f8101849004840282018401909252818152959750869450925084019050828280156107f85780601f106107cd576101008083540402835291602001916107f8565b820191906000526020600020905b8154815290600101906020018083116107db57829003601f168201915b5050505050905093509350935093509193509193565b60008061081a8361093a565b6001805491925090600019810190811061083057fe5b60009182526020909120015460018054600160a060020a03909216918390811061085657fe5b6000918252602090912001805473ffffffffffffffffffffffffffffffffffffffff1916600160a060020a039290921691909117905560018054600019810190811061089e57fe5b6000918252602090912001805473ffffffffffffffffffffffffffffffffffffffff1916905560018054906108d7906000198301610d13565b50600160a060020a0383166000908152600260205260409020805460ff19169055610900610907565b9392505050565b6001545b90565b600060018281548110151561091f57fe5b600091825260209091200154600160a060020a031692915050565b600160a060020a031660009081526020819052604090206004015490565b606060018054806020026020016040519081016040528092919081815260200182805480156109b057602002820191906000526020600020905b8154600160a060020a03168152600190910190602001808311610992575b5050505050905090565b6109c2610d3c565b600160a060020a038616600090815260208181526040918290208251815460026001821615610100026000190190911604601f8101849004909302810160c090810190945260a08101838152909391928492849190840182828015610a685780601f10610a3d57610100808354040283529160200191610a68565b820191906000526020600020905b815481529060010190602001808311610a4b57829003601f168201915b50505050508152602001600182018054600181600116156101000203166002900480601f016020809104026020016040519081016040528092919081815260200182805460018160011615610100020316600290048015610b0a5780601f10610adf57610100808354040283529160200191610b0a565b820191906000526020600020905b815481529060010190602001808311610aed57829003601f168201915b5050509183525050600282810180546040805160206001841615610100026000190190931694909404601f81018390048302850183019091528084529381019390830182828015610b9c5780601f10610b7157610100808354040283529160200191610b9c565b820191906000526020600020905b815481529060010190602001808311610b7f57829003601f168201915b505050918352505060038201805460408051602060026001851615610100026000190190941693909304601f8101849004840282018401909252818152938201939291830182828015610c305780601f10610c0557610100808354040283529160200191610c30565b820191906000526020600020905b815481529060010190602001808311610c1357829003601f168201915b5050509183525050600491909101546020918201529581528086019490945250604080840192909252606083015260018054608090930183905282810181557fb10e2d527612073b26eecdfd717e6a320cf44b4afac2b0732d9fcbe2b7fa0cf69092018054600160a060020a0390951673ffffffffffffffffffffffffffffffffffffffff1990951685179055600093845260029092529120805460ff19169091179055565b60026020526000908152604090205460ff1681565b6001805482908110610cf957fe5b600091825260209091200154600160a060020a0316905081565b815481835581811115610d3757600083815260209020610d37918101908301610d6c565b505050565b60a06040519081016040528060608152602001606081526020016060815260200160608152602001600081525090565b61090b91905b80821115610d865760008155600101610d72565b50905600a165627a7a72305820c3a07cfcc84956a555f4211c1d551ad0dbf93ab2867966607f5f8ac928de6ba00029",
  "source": "pragma solidity ^0.4.18;\r\n\r\ncontract Company {\r\n    \r\n    struct SupportAgent\r\n    {\r\n\tstring\temail;\r\n        string\tfName;\r\n        string\tlName;\r\n\tstring\ttimeZone;\r\n\tuint\tagentIndex;\t\r\n    }\r\n    \r\n    mapping (address => SupportAgent) supportAgents;\r\n    address[] public supportAgentRecords;\r\n    mapping (address => bool) public isSupportAgent;\r\n\r\n//////////////////////////////////////////////////////////////////////////////////////////////////////\r\n    modifier agentDoesNotExist(address supportagent) {\r\n        require(!isSupportAgent[supportagent]);\r\n        _;\r\n    }\r\n\r\n    modifier agentExist(address supportagent) {\r\n        require(isSupportAgent[supportagent]);\r\n        _;\r\n    }\r\n\r\n    modifier notNull(address _address) {\r\n        require(_address != 0);\r\n        _;\r\n    }\r\n//////////////////////////////////////////////////////////////////////////////////////////////////////\r\n    \r\n    function addSupportAgent(address _address, string _email, string _fName, string _lName, string _timeZone) public \r\n    {\r\n        SupportAgent memory supportAgent = supportAgents[_address];\r\n        \r\n        supportAgent.email\t = _email;\r\n        supportAgent.fName\t = _fName;\r\n        supportAgent.lName\t = _lName;\r\n\tsupportAgent.timeZone\t = _timeZone;\r\n\tsupportAgent.agentIndex =  supportAgentRecords.length;  // Row ID (Array Index) of an Agent\r\n        \r\n        supportAgentRecords.push(_address) -1;\r\n\r\n\tisSupportAgent[_address] = true;\r\n    }\r\n\r\n    function removeOneSupportAgent(address _address) public returns (uint)\r\n    {\r\n\t/*\r\n\t\tSwap the last agent to position of the to-be remove agent position\r\n\t*/\r\n\r\n\tuint removeThisAgent = findSupportAgentArrayIndex(_address); // Get the Array Index\r\n\r\n\tsupportAgentRecords[removeThisAgent] = supportAgentRecords[supportAgentRecords.length - 1];\r\n\r\n\tdelete supportAgentRecords[supportAgentRecords.length - 1]; \r\n\r\n\tsupportAgentRecords.length--;\r\n\r\n\tisSupportAgent[_address] = false;\r\n\r\n\treturn countSupportAgents();\r\n    }\r\n\r\n    function removeAllSupportAgent() public returns (uint)\r\n    {\r\n\tfor (uint i = 0; i < supportAgentRecords.length - 1; i++) \r\n\t{\r\n\t\r\n\t  address _address = findSupportAgentAddressById(i);\r\n          isSupportAgent[_address] = false;\r\n\r\n\t  delete supportAgentRecords[i];\r\n\t  supportAgentRecords.length--;\r\n\t}\r\n\treturn countSupportAgents();\r\n    }\r\n    \r\n    function findAllSupportAgents() view public returns(address[]) {\r\n        return supportAgentRecords;\r\n    }\r\n\r\n    function findSupportAgentAddressById(uint index) view public returns (address)\r\n    {\r\n\treturn (supportAgentRecords[index]);\t\r\n    }\r\n\r\n    function findSupportAgentArrayIndex(address _address) view public returns (uint) \r\n    {\r\n        return (supportAgents[_address].agentIndex);\r\n    }\r\n    \r\n\t\r\n    function findSupportAgentByAddress(address _address) view public returns (string, string, string,string) \r\n    {\r\n        return (supportAgents[_address].email, supportAgents[_address].fName, supportAgents[_address].lName,supportAgents[_address].timeZone);\r\n    }\r\n    \r\n    function countSupportAgents() view public returns (uint) {\r\n        return supportAgentRecords.length;\r\n    }\r\n}",
  "sourcePath": "D:\\Development\\HelloToken\\hellonetmarket\\ethereum\\contracts\\Company.sol",
  "compiler": {
    "name": "solc",
    "version": "0.4.24+commit.e67f0147.Emscripten.clang"
  },
  "schemaVersion": "2.0.1",
  "updatedAt": "2018-10-06T17:51:37.381Z"
}