{
  "contractName": "JobApplicant",
  "abi": [
    {
      "constant": true,
      "inputs": [],
      "name": "applicationTimeout",
      "outputs": [
        {
          "name": "",
          "type": "uint256"
        }
      ],
      "payable": false,
      "stateMutability": "view",
      "type": "function"
    },
    {
      "constant": true,
      "inputs": [],
      "name": "created",
      "outputs": [
        {
          "name": "",
          "type": "uint256"
        }
      ],
      "payable": false,
      "stateMutability": "view",
      "type": "function"
    },
    {
      "constant": true,
      "inputs": [],
      "name": "applicant",
      "outputs": [
        {
          "name": "",
          "type": "address"
        }
      ],
      "payable": false,
      "stateMutability": "view",
      "type": "function"
    },
    {
      "constant": true,
      "inputs": [],
      "name": "listingContract",
      "outputs": [
        {
          "name": "",
          "type": "address"
        }
      ],
      "payable": false,
      "stateMutability": "view",
      "type": "function"
    },
    {
      "inputs": [
        {
          "name": "_listingContractAddress",
          "type": "address"
        },
        {
          "name": "_applicant",
          "type": "address"
        }
      ],
      "payable": false,
      "stateMutability": "nonpayable",
      "type": "constructor"
    },
    {
      "anonymous": false,
      "inputs": [
        {
          "indexed": false,
          "name": "stage",
          "type": "uint8"
        }
      ],
      "name": "JobApplicationChange",
      "type": "event"
    },
    {
      "anonymous": false,
      "inputs": [
        {
          "indexed": false,
          "name": "reviewer",
          "type": "address"
        },
        {
          "indexed": false,
          "name": "reviewee",
          "type": "address"
        },
        {
          "indexed": false,
          "name": "revieweeRole",
          "type": "uint8"
        },
        {
          "indexed": false,
          "name": "rating",
          "type": "uint8"
        },
        {
          "indexed": false,
          "name": "ipfsHash",
          "type": "bytes32"
        }
      ],
      "name": "JobApplicationReview",
      "type": "event"
    },
    {
      "constant": true,
      "inputs": [],
      "name": "data",
      "outputs": [
        {
          "name": "_stage",
          "type": "uint8"
        },
        {
          "name": "_listingContract",
          "type": "address"
        },
        {
          "name": "_applicant",
          "type": "address"
        },
        {
          "name": "_created",
          "type": "uint256"
        },
        {
          "name": "_applicantTimout",
          "type": "uint256"
        }
      ],
      "payable": false,
      "stateMutability": "view",
      "type": "function"
    },
    {
      "constant": true,
      "inputs": [],
      "name": "stage",
      "outputs": [
        {
          "name": "_stage",
          "type": "uint8"
        }
      ],
      "payable": false,
      "stateMutability": "view",
      "type": "function"
    },
    {
      "constant": false,
      "inputs": [],
      "name": "cancelApplication",
      "outputs": [],
      "payable": false,
      "stateMutability": "nonpayable",
      "type": "function"
    },
    {
      "constant": false,
      "inputs": [],
      "name": "callForInterview",
      "outputs": [],
      "payable": false,
      "stateMutability": "nonpayable",
      "type": "function"
    },
    {
      "constant": false,
      "inputs": [],
      "name": "rejectApplication",
      "outputs": [],
      "payable": false,
      "stateMutability": "nonpayable",
      "type": "function"
    },
    {
      "constant": false,
      "inputs": [],
      "name": "interviewSuccessful",
      "outputs": [],
      "payable": false,
      "stateMutability": "nonpayable",
      "type": "function"
    },
    {
      "constant": false,
      "inputs": [],
      "name": "interviewNotSelected",
      "outputs": [],
      "payable": false,
      "stateMutability": "nonpayable",
      "type": "function"
    },
    {
      "constant": false,
      "inputs": [],
      "name": "offerJob",
      "outputs": [],
      "payable": false,
      "stateMutability": "nonpayable",
      "type": "function"
    },
    {
      "constant": false,
      "inputs": [],
      "name": "acceptJobOffer",
      "outputs": [],
      "payable": false,
      "stateMutability": "nonpayable",
      "type": "function"
    },
    {
      "constant": false,
      "inputs": [],
      "name": "rejectJobOffer",
      "outputs": [],
      "payable": false,
      "stateMutability": "nonpayable",
      "type": "function"
    },
    {
      "constant": false,
      "inputs": [],
      "name": "startEmployment",
      "outputs": [],
      "payable": false,
      "stateMutability": "nonpayable",
      "type": "function"
    },
    {
      "constant": false,
      "inputs": [],
      "name": "terminateEmployment",
      "outputs": [],
      "payable": false,
      "stateMutability": "nonpayable",
      "type": "function"
    },
    {
      "constant": false,
      "inputs": [],
      "name": "openDispute",
      "outputs": [],
      "payable": false,
      "stateMutability": "nonpayable",
      "type": "function"
    }
  ],
  "bytecode": "0x60806040526000805460ff1916905534801561001a57600080fd5b50604051604080610c4c833981016040819052815160209092015160018054600160a060020a031916600160a060020a03808416919091179091556000805461010060a860020a0319166101009286169290920291909117908190554260025590917f6ad037c505eea6fc4312e7006a92c508ba229fdd5aca3a7c821a3ea70f864f2a9160ff16908082600b8111156100af57fe5b60ff16815260200191505060405180910390a15050610b79806100d36000396000f3006080604052600436106100d75763ffffffff60e060020a600035041663038e514f81146100dc57806305c180c31461010357806308283c0d1461011a578063325a19f11461012f57806342578d3c146101445780634fd6137c1461015957806359c884c21461016e57806363b6853f1461018357806373d4a13a146101985780637c2c5af7146101fa578063819a625f1461020f57806388e687ea14610224578063b4d2231c14610255578063b91956681461026a578063c040e6b81461027f578063d5165327146102b8578063ebc4f86a146102cd575b600080fd5b3480156100e857600080fd5b506100f16102e2565b60408051918252519081900360200190f35b34801561010f57600080fd5b506101186102e8565b005b34801561012657600080fd5b506101186103ff565b34801561013b57600080fd5b506100f16104ae565b34801561015057600080fd5b506101186104b4565b34801561016557600080fd5b50610118610592565b34801561017a57600080fd5b50610118610670565b34801561018f57600080fd5b50610118610737565b3480156101a457600080fd5b506101ad6107fe565b6040518086600b8111156101bd57fe5b60ff168152600160a060020a0395861660208201529390941660408085019190915260608401929092526080830152519081900360a00192509050f35b34801561020657600080fd5b50610118610837565b34801561021b57600080fd5b50610118610882565b34801561023057600080fd5b50610239610949565b60408051600160a060020a039092168252519081900360200190f35b34801561026157600080fd5b50610118610958565b34801561027657600080fd5b50610118610a1f565b34801561028b57600080fd5b50610294610a6a565b6040518082600b8111156102a457fe5b60ff16815260200191505060405180910390f35b3480156102c457600080fd5b50610239610a73565b3480156102d957600080fd5b50610118610a87565b60035481565b600060019054906101000a9004600160a060020a0316600160a060020a0316638da5cb5b6040518163ffffffff1660e060020a028152600401602060405180830381600087803b15801561033b57600080fd5b505af115801561034f573d6000803e3d6000fd5b505050506040513d602081101561036557600080fd5b5051600160a060020a0316331461037b57600080fd5b600980610386610a6a565b600b81111561039157fe5b1461039b57600080fd5b60008054600b919060ff19166001835b02179055506000546040517f6ad037c505eea6fc4312e7006a92c508ba229fdd5aca3a7c821a3ea70f864f2a9160ff16908082600b8111156103e957fe5b60ff16815260200191505060405180910390a150565b600154600160a060020a0316331461041657600080fd5b6000610420610a6a565b600b81111561042b57fe5b14806104495750600161043c610a6a565b600b81111561044757fe5b145b151561045457600080fd5b6000805460ff1916600217908190556040517f6ad037c505eea6fc4312e7006a92c508ba229fdd5aca3a7c821a3ea70f864f2a9160ff16908082600b81111561049957fe5b60ff16815260200191505060405180910390a1565b60025481565b600154600160a060020a03163314806105535750600060019054906101000a9004600160a060020a0316600160a060020a0316638da5cb5b6040518163ffffffff1660e060020a028152600401602060405180830381600087803b15801561051b57600080fd5b505af115801561052f573d6000803e3d6000fd5b505050506040513d602081101561054557600080fd5b5051600160a060020a031633145b151561055e57600080fd5b600480610569610a6a565b600b81111561057457fe5b1461057e57600080fd5b600080546009919060ff19166001836103ab565b600154600160a060020a03163314806106315750600060019054906101000a9004600160a060020a0316600160a060020a0316638da5cb5b6040518163ffffffff1660e060020a028152600401602060405180830381600087803b1580156105f957600080fd5b505af115801561060d573d6000803e3d6000fd5b505050506040513d602081101561062357600080fd5b5051600160a060020a031633145b151561063c57600080fd5b600980610647610a6a565b600b81111561065257fe5b1461065c57600080fd5b60008054600a919060ff19166001836103ab565b600060019054906101000a9004600160a060020a0316600160a060020a0316638da5cb5b6040518163ffffffff1660e060020a028152600401602060405180830381600087803b1580156106c357600080fd5b505af11580156106d7573d6000803e3d6000fd5b505050506040513d60208110156106ed57600080fd5b5051600160a060020a0316331461070357600080fd5b60018061070e610a6a565b600b81111561071957fe5b1461072357600080fd5b600080546007919060ff19166001836103ab565b600060019054906101000a9004600160a060020a0316600160a060020a0316638da5cb5b6040518163ffffffff1660e060020a028152600401602060405180830381600087803b15801561078a57600080fd5b505af115801561079e573d6000803e3d6000fd5b505050506040513d60208110156107b457600080fd5b5051600160a060020a031633146107ca57600080fd5b6000806107d5610a6a565b600b8111156107e057fe5b146107ea57600080fd5b600080546008919060ff19166001836103ab565b600080600080600061080e610a6a565b6000546001546002549298610100909204600160a060020a039081169850169550909350909150565b600154600160a060020a0316331461084e57600080fd5b600780610859610a6a565b600b81111561086457fe5b1461086e57600080fd5b600080546005919060ff19166001836103ab565b600060019054906101000a9004600160a060020a0316600160a060020a0316638da5cb5b6040518163ffffffff1660e060020a028152600401602060405180830381600087803b1580156108d557600080fd5b505af11580156108e9573d6000803e3d6000fd5b505050506040513d60208110156108ff57600080fd5b5051600160a060020a0316331461091557600080fd5b600080610920610a6a565b600b81111561092b57fe5b1461093557600080fd5b600080546006919060ff19166001836103ab565b600154600160a060020a031681565b600060019054906101000a9004600160a060020a0316600160a060020a0316638da5cb5b6040518163ffffffff1660e060020a028152600401602060405180830381600087803b1580156109ab57600080fd5b505af11580156109bf573d6000803e3d6000fd5b505050506040513d60208110156109d557600080fd5b5051600160a060020a031633146109eb57600080fd5b6006806109f6610a6a565b600b811115610a0157fe5b14610a0b57600080fd5b600080546003919060ff19166001836103ab565b600154600160a060020a03163314610a3657600080fd5b600780610a41610a6a565b600b811115610a4c57fe5b14610a5657600080fd5b600080546004919060ff19166001836103ab565b60005460ff1690565b6000546101009004600160a060020a031681565b600060019054906101000a9004600160a060020a0316600160a060020a0316638da5cb5b6040518163ffffffff1660e060020a028152600401602060405180830381600087803b158015610ada57600080fd5b505af1158015610aee573d6000803e3d6000fd5b505050506040513d6020811015610b0457600080fd5b5051600160a060020a03163314610b1a57600080fd5b600680610b25610a6a565b600b811115610b3057fe5b14610b3a57600080fd5b600080546001919060ff191682806103ab5600a165627a7a72305820faa1d72b80321aa1bdad74a5214d50841524aa68b680192e621f0e0682c9a7610029",
  "source": "pragma solidity 0.4.24;\r\n\r\n// /// @title JobApplicant\r\n// /// @dev An Application to a Job Listing and its status\r\nimport \"./Listing.sol\";\r\n\r\n\r\ncontract JobApplicant \r\n{\r\n\r\n  /*\r\n  * Events\r\n  */\r\n\r\n    event JobApplicationChange(Stages stage);\r\n    event JobApplicationReview(address reviewer, address reviewee, Roles revieweeRole, uint8 rating, bytes32 ipfsHash);\r\n\r\n    /*\r\n    * Enum\r\n    */\r\n\r\n    enum Stages {\r\n\r\n      // Applicant Status\r\n      AWAITING_INTERVIEW,\t\t\t// Applicant applied for interview and waiting for the interview\r\n      AWAITING_JOBOFFER,\t\t\t// Applicant attended the interview and waiting for the job offer\r\n      CANCEL_APPLICATION,\t\t\t// Applicant cancelled the job application, after applying for the job\r\n      INTERVIEW_NOT_SELECTED,       //Applicant Unsuccessful/Failed the Interview\r\n      JOBOFFER_ACCEPTED,            //Applicant Accepts the Job Offer\r\n      JOBOFFER_NOT_ACCEPTED,            //Applicant Rejects the Job Offer\r\n\r\n\r\n      // Employer Status\r\n      INTERVIEW_PENDING,\t\t\t// Employer reviewed the application and send interview call and waiting for interview acceptance\r\n      JOBOFFER_PENDING,\t\t\t// Employer finished interview and sent job offer and waiting for acceptance from the applicant\r\n      APPLICATION_REJECTED,\t\t// Applicant not eligible for the job\r\n\r\n      EMPLOYMENT_PERIOD,\t\t\t// Both Employer and Applicant agreed and Job in progress\r\n\r\n      IN_DISPUTE,\t\t\t\t    // We are in a dispute between employer and employee on payments    \r\n      EMPLOYMENT_TERMINATION\t\t// End of Job Contract\r\n\r\n    }\r\n\r\n    enum Roles {\r\n      APPLICANT,\r\n      EMPLOYER\r\n    }\r\n\r\n    /*\r\n    * Storage\r\n    */\r\n\r\n    Stages private internalStage = Stages.AWAITING_INTERVIEW;\r\n    Listing public listingContract; // listing that is being purchased\r\n    address public applicant; // User who is buying. Seller is derived from listing\r\n    uint public created;\r\n    uint public applicationTimeout;\r\n\r\n    /*\r\n    * Modifiers\r\n    */\r\n\r\n    modifier isEmployer() {\r\n        require(msg.sender == listingContract.owner());\r\n        _;\r\n    }\r\n\r\n    modifier isApplicant() {\r\n        require(msg.sender == applicant);\r\n        _;\r\n    }\r\n\r\n    modifier isEmployerOrApplicant() {\r\n        require(\r\n            msg.sender == applicant ||\r\n            msg.sender == listingContract.owner()\r\n        );\r\n        _;\r\n    }\r\n\r\n    modifier atStage(Stages _stage) {\r\n        require(stage() == _stage);\r\n        _;\r\n    }\r\n\r\n    /*\r\n    * Public functions\r\n    */\r\n\r\n    constructor (\r\n      address _listingContractAddress,\r\n      address _applicant\r\n    )\r\n    public\r\n    {\r\n        applicant = _applicant;\r\n        listingContract = Listing(_listingContractAddress);\r\n        created = now;\r\n        emit JobApplicationChange(internalStage);\r\n    }\r\n\r\n    function data()\r\n    public\r\n    view\r\n    returns (Stages _stage, Listing _listingContract, address _applicant, uint _created, uint _applicantTimout) {\r\n        return (stage(), listingContract, applicant, created, _applicantTimout);\r\n    }\r\n    \r\n /////////////////////////////////////////////////////////////////////////////////////////////////////////////////////////\r\n  //\t\tThis function returns the current status of the application\r\n  /////////////////////////////////////////////////////////////////////////////////////////////////////////////////////////\r\n    function stage()\r\n    public\r\n    view\r\n    returns (Stages _stage)\r\n    {\r\n        return internalStage;\r\n    }\r\n\r\n  //////////////////////////////////////////////////////////////////////////////////////////////////////////////\r\n  //\tApplicant cancels the job application\r\n  //////////////////////////////////////////////////////////////////////////////////////////////////////////////\r\n    function cancelApplication()\r\n    public\r\n    isApplicant\r\n    {\r\n        // Must be in a valid stage\r\n        require(\r\n            stage() == Stages.AWAITING_INTERVIEW ||\r\n            stage() == Stages.AWAITING_JOBOFFER\r\n        );\r\n\r\n\r\n        internalStage = Stages.CANCEL_APPLICATION;\r\n        emit JobApplicationChange(internalStage);\r\n\r\n    }\r\n\r\n  //////////////////////////////////////////////////////////////////////////////////////////////////////////////\r\n  //\tCall the Applicant for an interview\r\n  //////////////////////////////////////////////////////////////////////////////////////////////////////////////\r\n    function callForInterview()\r\n    public\r\n    isEmployer\r\n    atStage(Stages.AWAITING_INTERVIEW)\r\n    {\r\n        internalStage = Stages.INTERVIEW_PENDING;\r\n        emit JobApplicationChange(internalStage);\r\n    }\r\n\r\n   //////////////////////////////////////////////////////////////////////////////////////////////////////////////\r\n  //\tReject an Application\r\n  //////////////////////////////////////////////////////////////////////////////////////////////////////////////\r\n    function rejectApplication()\r\n    public\r\n    isEmployer\r\n    atStage(Stages.AWAITING_INTERVIEW)\r\n    {\r\n        internalStage = Stages.APPLICATION_REJECTED;\r\n        emit JobApplicationChange(internalStage);\r\n    }\r\n\r\n//////////////////////////////////////////////////////////////////////////////////////////////////////////////\r\n  //\tPassed the Interview\r\n  //////////////////////////////////////////////////////////////////////////////////////////////////////////////\r\n    function interviewSuccessful()\r\n    public\r\n    isEmployer\r\n    atStage(Stages.INTERVIEW_PENDING)\r\n    {\r\n        internalStage = Stages.AWAITING_JOBOFFER;\r\n        emit JobApplicationChange(internalStage);\r\n    }\r\n \r\n \r\n//////////////////////////////////////////////////////////////////////////////////////////////////////////////\r\n  //\tNot Selected in the Interview\r\n  //////////////////////////////////////////////////////////////////////////////////////////////////////////////\r\n    function interviewNotSelected()\r\n    public\r\n    isEmployer\r\n    atStage(Stages.INTERVIEW_PENDING)\r\n    {\r\n        internalStage = Stages.INTERVIEW_NOT_SELECTED;\r\n        emit JobApplicationChange(internalStage);\r\n    }\r\n \r\n //////////////////////////////////////////////////////////////////////////////////////////////////////////////\r\n  //\tOffer Job\r\n  //////////////////////////////////////////////////////////////////////////////////////////////////////////////\r\n    function offerJob()\r\n    public\r\n    isEmployer\r\n    atStage(Stages.AWAITING_JOBOFFER)\r\n    {\r\n        internalStage = Stages.JOBOFFER_PENDING;\r\n        emit JobApplicationChange(internalStage);\r\n    }\r\n \r\n  //////////////////////////////////////////////////////////////////////////////////////////////////////////////\r\n  //\tAccept the JobOffer\r\n  //////////////////////////////////////////////////////////////////////////////////////////////////////////////\r\n    function acceptJobOffer()\r\n    public\r\n    isApplicant\r\n    atStage(Stages.JOBOFFER_PENDING)\r\n    {\r\n        internalStage = Stages.JOBOFFER_ACCEPTED; //Is this needed or directly go to EMPLOYMENT_PERIOD?\r\n        emit JobApplicationChange(internalStage);\r\n    }\r\n \r\n //////////////////////////////////////////////////////////////////////////////////////////////////////////////\r\n  //\tReject the JobOffer\r\n  //////////////////////////////////////////////////////////////////////////////////////////////////////////////\r\n    function rejectJobOffer()\r\n    public\r\n    isApplicant\r\n    atStage(Stages.JOBOFFER_PENDING)\r\n    {\r\n        internalStage = Stages.JOBOFFER_NOT_ACCEPTED;\r\n        emit JobApplicationChange(internalStage);\r\n    }\r\n \r\n //////////////////////////////////////////////////////////////////////////////////////////////////////////////\r\n  //\tStart Employment\r\n  //////////////////////////////////////////////////////////////////////////////////////////////////////////////\r\n    function startEmployment()\r\n    public\r\n    isEmployerOrApplicant\r\n    atStage(Stages.JOBOFFER_ACCEPTED)\r\n    {\r\n        internalStage = Stages.EMPLOYMENT_PERIOD; //Is this needed or directly go to EMPLOYMENT_PERIOD?\r\n        emit JobApplicationChange(internalStage);\r\n    }\r\n \r\n\r\n  //////////////////////////////////////////////////////////////////////////////////////////////////////////////\r\n  //\tTerminate the Job Contract any time\r\n  //////////////////////////////////////////////////////////////////////////////////////////////////////////////\r\n    function terminateEmployment()\r\n    public\r\n    isEmployer\r\n    atStage(Stages.EMPLOYMENT_PERIOD)\r\n    {\r\n        internalStage = Stages.EMPLOYMENT_TERMINATION;\r\n        emit JobApplicationChange(internalStage);\r\n    }  \r\n\r\n  //////////////////////////////////////////////////////////////////////////////////////////////////////////////\r\n  //\tProblem between employer and employee either open a dispute\r\n  //////////////////////////////////////////////////////////////////////////////////////////////////////////////\r\n    function openDispute()\r\n    public\r\n    isEmployerOrApplicant\r\n    atStage(Stages.EMPLOYMENT_PERIOD)\r\n    {\r\n        internalStage = Stages.IN_DISPUTE;\r\n        emit JobApplicationChange(internalStage);\r\n    }  \r\n//////////////////////////////////////////////////////////////////////////////////////////////////////////////  \r\n}",
  "sourcePath": "D:\\Development\\HelloToken\\hellonetmarket\\ethereum\\contracts\\JobApplicant.sol",
  "compiler": {
    "name": "solc",
    "version": "0.4.24+commit.e67f0147.Emscripten.clang"
  },
  "schemaVersion": "2.0.1",
  "updatedAt": "2018-10-08T17:12:18.980Z"
}