{
  "contractName": "JobApplicant",
  "abi": [
    {
      "constant": true,
      "inputs": [],
      "name": "applicationTimeout",
      "outputs": [
        {
          "name": "",
          "type": "uint256"
        }
      ],
      "payable": false,
      "stateMutability": "view",
      "type": "function"
    },
    {
      "constant": true,
      "inputs": [],
      "name": "created",
      "outputs": [
        {
          "name": "",
          "type": "uint256"
        }
      ],
      "payable": false,
      "stateMutability": "view",
      "type": "function"
    },
    {
      "constant": true,
      "inputs": [],
      "name": "applicant",
      "outputs": [
        {
          "name": "",
          "type": "address"
        }
      ],
      "payable": false,
      "stateMutability": "view",
      "type": "function"
    },
    {
      "constant": true,
      "inputs": [],
      "name": "listingContract",
      "outputs": [
        {
          "name": "",
          "type": "address"
        }
      ],
      "payable": false,
      "stateMutability": "view",
      "type": "function"
    },
    {
      "inputs": [
        {
          "name": "_listingContractAddress",
          "type": "address"
        },
        {
          "name": "_applicant",
          "type": "address"
        }
      ],
      "payable": false,
      "stateMutability": "nonpayable",
      "type": "constructor"
    },
    {
      "anonymous": false,
      "inputs": [
        {
          "indexed": false,
          "name": "stage",
          "type": "uint8"
        }
      ],
      "name": "JobApplicationChange",
      "type": "event"
    },
    {
      "anonymous": false,
      "inputs": [
        {
          "indexed": false,
          "name": "reviewer",
          "type": "address"
        },
        {
          "indexed": false,
          "name": "reviewee",
          "type": "address"
        },
        {
          "indexed": false,
          "name": "revieweeRole",
          "type": "uint8"
        },
        {
          "indexed": false,
          "name": "rating",
          "type": "uint8"
        },
        {
          "indexed": false,
          "name": "ipfsHash",
          "type": "bytes32"
        }
      ],
      "name": "JobApplicationReview",
      "type": "event"
    },
    {
      "constant": true,
      "inputs": [],
      "name": "data",
      "outputs": [
        {
          "name": "_stage",
          "type": "uint8"
        },
        {
          "name": "_listingContract",
          "type": "address"
        },
        {
          "name": "_applicant",
          "type": "address"
        },
        {
          "name": "_created",
          "type": "uint256"
        },
        {
          "name": "_applicantTimout",
          "type": "uint256"
        }
      ],
      "payable": false,
      "stateMutability": "view",
      "type": "function"
    },
    {
      "constant": false,
      "inputs": [],
      "name": "cancelApplication",
      "outputs": [],
      "payable": false,
      "stateMutability": "nonpayable",
      "type": "function"
    },
    {
      "constant": false,
      "inputs": [],
      "name": "callForInterview",
      "outputs": [],
      "payable": false,
      "stateMutability": "nonpayable",
      "type": "function"
    },
    {
      "constant": true,
      "inputs": [],
      "name": "stage",
      "outputs": [
        {
          "name": "_stage",
          "type": "uint8"
        }
      ],
      "payable": false,
      "stateMutability": "view",
      "type": "function"
    },
    {
      "constant": false,
      "inputs": [],
      "name": "terminateEmployment",
      "outputs": [],
      "payable": false,
      "stateMutability": "nonpayable",
      "type": "function"
    },
    {
      "constant": false,
      "inputs": [],
      "name": "openDispute",
      "outputs": [],
      "payable": false,
      "stateMutability": "nonpayable",
      "type": "function"
    }
  ],
  "bytecode": "0x608060405260008060006101000a81548160ff0219169083600881111561002257fe5b021790555034801561003357600080fd5b50604051604080610b9b833981018060405281019080805190602001909291908051906020019092919050505080600160006101000a81548173ffffffffffffffffffffffffffffffffffffffff021916908373ffffffffffffffffffffffffffffffffffffffff16021790555081600060016101000a81548173ffffffffffffffffffffffffffffffffffffffff021916908373ffffffffffffffffffffffffffffffffffffffff160217905550426002819055507f6ad037c505eea6fc4312e7006a92c508ba229fdd5aca3a7c821a3ea70f864f2a6000809054906101000a900460ff166040518082600881111561012957fe5b60ff16815260200191505060405180910390a15050610a4e8061014d6000396000f3006080604052600436106100a4576000357c0100000000000000000000000000000000000000000000000000000000900463ffffffff168063038e514f146100a957806305c180c3146100d457806308283c0d146100eb578063325a19f1146101025780634fd6137c1461012d57806373d4a13a14610144578063819a625f146101f157806388e687ea14610208578063c040e6b81461025f578063d516532714610298575b600080fd5b3480156100b557600080fd5b506100be6102ef565b6040518082815260200191505060405180910390f35b3480156100e057600080fd5b506100e96102f5565b005b3480156100f757600080fd5b50610100610493565b005b34801561010e57600080fd5b506101176105bb565b6040518082815260200191505060405180910390f35b34801561013957600080fd5b506101426105c1565b005b34801561015057600080fd5b506101596107b7565b6040518086600881111561016957fe5b60ff1681526020018573ffffffffffffffffffffffffffffffffffffffff1673ffffffffffffffffffffffffffffffffffffffff1681526020018473ffffffffffffffffffffffffffffffffffffffff1673ffffffffffffffffffffffffffffffffffffffff1681526020018381526020018281526020019550505050505060405180910390f35b3480156101fd57600080fd5b50610206610822565b005b34801561021457600080fd5b5061021d6109c0565b604051808273ffffffffffffffffffffffffffffffffffffffff1673ffffffffffffffffffffffffffffffffffffffff16815260200191505060405180910390f35b34801561026b57600080fd5b506102746109e6565b6040518082600881111561028457fe5b60ff16815260200191505060405180910390f35b3480156102a457600080fd5b506102ad6109fc565b604051808273ffffffffffffffffffffffffffffffffffffffff1673ffffffffffffffffffffffffffffffffffffffff16815260200191505060405180910390f35b60035481565b600060019054906101000a900473ffffffffffffffffffffffffffffffffffffffff1673ffffffffffffffffffffffffffffffffffffffff16638da5cb5b6040518163ffffffff167c0100000000000000000000000000000000000000000000000000000000028152600401602060405180830381600087803b15801561037b57600080fd5b505af115801561038f573d6000803e3d6000fd5b505050506040513d60208110156103a557600080fd5b810190808051906020019092919050505073ffffffffffffffffffffffffffffffffffffffff163373ffffffffffffffffffffffffffffffffffffffff161415156103ef57600080fd5b600660088111156103fc57fe5b6104046109e6565b600881111561040f57fe5b14151561041b57600080fd5b60086000806101000a81548160ff0219169083600881111561043957fe5b02179055507f6ad037c505eea6fc4312e7006a92c508ba229fdd5aca3a7c821a3ea70f864f2a6000809054906101000a900460ff166040518082600881111561047e57fe5b60ff16815260200191505060405180910390a1565b600160009054906101000a900473ffffffffffffffffffffffffffffffffffffffff1673ffffffffffffffffffffffffffffffffffffffff163373ffffffffffffffffffffffffffffffffffffffff161415156104ef57600080fd5b600060088111156104fc57fe5b6105046109e6565b600881111561050f57fe5b148061053857506001600881111561052357fe5b61052b6109e6565b600881111561053657fe5b145b151561054357600080fd5b60026000806101000a81548160ff0219169083600881111561056157fe5b02179055507f6ad037c505eea6fc4312e7006a92c508ba229fdd5aca3a7c821a3ea70f864f2a6000809054906101000a900460ff16604051808260088111156105a657fe5b60ff16815260200191505060405180910390a1565b60025481565b600160009054906101000a900473ffffffffffffffffffffffffffffffffffffffff1673ffffffffffffffffffffffffffffffffffffffff163373ffffffffffffffffffffffffffffffffffffffff1614806107085750600060019054906101000a900473ffffffffffffffffffffffffffffffffffffffff1673ffffffffffffffffffffffffffffffffffffffff16638da5cb5b6040518163ffffffff167c0100000000000000000000000000000000000000000000000000000000028152600401602060405180830381600087803b15801561069e57600080fd5b505af11580156106b2573d6000803e3d6000fd5b505050506040513d60208110156106c857600080fd5b810190808051906020019092919050505073ffffffffffffffffffffffffffffffffffffffff163373ffffffffffffffffffffffffffffffffffffffff16145b151561071357600080fd5b6006600881111561072057fe5b6107286109e6565b600881111561073357fe5b14151561073f57600080fd5b60076000806101000a81548160ff0219169083600881111561075d57fe5b02179055507f6ad037c505eea6fc4312e7006a92c508ba229fdd5aca3a7c821a3ea70f864f2a6000809054906101000a900460ff16604051808260088111156107a257fe5b60ff16815260200191505060405180910390a1565b60008060008060006107c76109e6565b600060019054906101000a900473ffffffffffffffffffffffffffffffffffffffff16600160009054906101000a900473ffffffffffffffffffffffffffffffffffffffff1660025484945094509450945094509091929394565b600060019054906101000a900473ffffffffffffffffffffffffffffffffffffffff1673ffffffffffffffffffffffffffffffffffffffff16638da5cb5b6040518163ffffffff167c0100000000000000000000000000000000000000000000000000000000028152600401602060405180830381600087803b1580156108a857600080fd5b505af11580156108bc573d6000803e3d6000fd5b505050506040513d60208110156108d257600080fd5b810190808051906020019092919050505073ffffffffffffffffffffffffffffffffffffffff163373ffffffffffffffffffffffffffffffffffffffff1614151561091c57600080fd5b6000600881111561092957fe5b6109316109e6565b600881111561093c57fe5b14151561094857600080fd5b60036000806101000a81548160ff0219169083600881111561096657fe5b02179055507f6ad037c505eea6fc4312e7006a92c508ba229fdd5aca3a7c821a3ea70f864f2a6000809054906101000a900460ff16604051808260088111156109ab57fe5b60ff16815260200191505060405180910390a1565b600160009054906101000a900473ffffffffffffffffffffffffffffffffffffffff1681565b60008060009054906101000a900460ff16905090565b600060019054906101000a900473ffffffffffffffffffffffffffffffffffffffff16815600a165627a7a723058206f30f79775665214b4ef78f6d80ac0ed4c26ea62d74dd454a99d4ecf3b9574b60029",
  "source": "pragma solidity 0.4.24;\r\n\r\n// /// @title JobApplicant\r\n// /// @dev An Application to a Job Listing and its status\r\nimport \"./Listing.sol\";\r\n\r\n\r\ncontract JobApplicant \r\n{\r\n\r\n  /*\r\n  * Events\r\n  */\r\n\r\n    event JobApplicationChange(Stages stage);\r\n    event JobApplicationReview(address reviewer, address reviewee, Roles revieweeRole, uint8 rating, bytes32 ipfsHash);\r\n\r\n    /*\r\n    * Enum\r\n    */\r\n\r\n    enum Stages {\r\n\r\n      // Applicant Status\r\n      AWAITING_INTERVIEW,\t\t\t// Applicant applied for interview and waiting for the interview\r\n      AWAITING_JOBOFFER,\t\t\t// Applicant attended the interview and waiting for the job offer\r\n      CANCEL_APPLICATION,\t\t\t// Applicant cancelled the job application, after applying for the job\r\n\r\n      // Employer Status\r\n      INTERVIEW_PENDING,\t\t\t// Employer reviewed the application and send interview call and waiting for interview acceptance\r\n      JOBOFFER_PENDING,\t\t\t// Employer finished interview and sent job offer and waiting for acceptance from the applicant\r\n      APPLICATION_REJECTED,\t\t// Applicant not eligible for the job\r\n\r\n      EMPLOYEMENT_PERIOD,\t\t\t// Both Employer and Applicant agreed and Job in progress\r\n\r\n      IN_DISPUTE,\t\t\t\t// We are in a dispute between employer and employee on payments    \r\n      EMPLOYEMENT_TERMINATION\t\t// End of Job Contract\r\n\r\n    }\r\n\r\n    enum Roles {\r\n      APPLICANT,\r\n      EMPLOYER\r\n    }\r\n\r\n    /*\r\n    * Storage\r\n    */\r\n\r\n    Stages private internalStage = Stages.AWAITING_INTERVIEW;\r\n    Listing public listingContract; // listing that is being purchased\r\n    address public applicant; // User who is buying. Seller is derived from listing\r\n    uint public created;\r\n    uint public applicationTimeout;\r\n\r\n    /*\r\n    * Modifiers\r\n    */\r\n\r\n    modifier isEmployer() {\r\n        require(msg.sender == listingContract.owner());\r\n        _;\r\n    }\r\n\r\n    modifier isApplicant() {\r\n        require(msg.sender == applicant);\r\n        _;\r\n    }\r\n\r\n    modifier atStage(Stages _stage) {\r\n        require(stage() == _stage);\r\n        _;\r\n    }\r\n\r\n    /*\r\n    * Public functions\r\n    */\r\n\r\n    constructor (\r\n      address _listingContractAddress,\r\n      address _applicant\r\n    )\r\n    public\r\n    {\r\n        applicant = _applicant;\r\n        listingContract = Listing(_listingContractAddress);\r\n        created = now;\r\n        emit JobApplicationChange(internalStage);\r\n    }\r\n\r\n    function data()\r\n    public\r\n    view\r\n    returns (Stages _stage, Listing _listingContract, address _applicant, uint _created, uint _applicantTimout) {\r\n        return (stage(), listingContract, applicant, created, _applicantTimout);\r\n    }\r\n    \r\n\r\n  //////////////////////////////////////////////////////////////////////////////////////////////////////////////\r\n  //\tApplicant cancels the job application\r\n  //////////////////////////////////////////////////////////////////////////////////////////////////////////////\r\n    function cancelApplication()\r\n    public\r\n    {\r\n        // This should be called only by the job listing owner\r\n        require(\r\n            msg.sender == applicant\r\n        );\r\n        \r\n\r\n        // Must be in a valid stage\r\n        require(\r\n            stage() == Stages.AWAITING_INTERVIEW ||\r\n            stage() == Stages.AWAITING_JOBOFFER\r\n        );\r\n\r\n\r\n        internalStage = Stages.CANCEL_APPLICATION;\r\n        emit JobApplicationChange(internalStage);\r\n\r\n    }\r\n\r\n  //////////////////////////////////////////////////////////////////////////////////////////////////////////////\r\n  //\tCall the Applicant for an interview\r\n  //////////////////////////////////////////////////////////////////////////////////////////////////////////////\r\n    function callForInterview()\r\n    public\r\n    {\r\n        // This should be called only by the job listing owner\r\n        require(\r\n            msg.sender == listingContract.owner()\r\n        );\r\n\r\n\r\n        // Must be in a valid stage\r\n        require(\r\n            stage() == Stages.AWAITING_INTERVIEW\r\n        );\r\n\r\n        internalStage = Stages.INTERVIEW_PENDING;\r\n        emit JobApplicationChange(internalStage);\r\n\r\n    }\r\n\r\n  /////////////////////////////////////////////////////////////////////////////////////////////////////////////////////////\r\n  //\t\tThis function returns the current status of the application\r\n  /////////////////////////////////////////////////////////////////////////////////////////////////////////////////////////\r\n    function stage()\r\n    public\r\n    view\r\n    returns (Stages _stage)\r\n    {\r\n        return internalStage;\r\n    }\r\n  //////////////////////////////////////////////////////////////////////////////////////////////////////////////\r\n  //\tTerminate the Job Contract any time\r\n  //////////////////////////////////////////////////////////////////////////////////////////////////////////////\r\n    function terminateEmployment()\r\n    public\r\n    {\r\n      // Must be employee \r\n        require(\r\n            msg.sender == listingContract.owner()\r\n        );\r\n\r\n      // Must be in a valid stage\r\n        require(\r\n            stage() == Stages.EMPLOYEMENT_PERIOD\r\n        );\r\n\r\n        internalStage = Stages.EMPLOYEMENT_TERMINATION;\r\n        emit JobApplicationChange(internalStage);\r\n\r\n      // TODO: Create a dispute contract?\r\n      // Right now there's no way to exit this state.\r\n    }  \r\n  //////////////////////////////////////////////////////////////////////////////////////////////////////////////\r\n  //\tProblem between employer and employee either open a dispute\r\n  //////////////////////////////////////////////////////////////////////////////////////////////////////////////\r\n    function openDispute()\r\n    public\r\n    {\r\n      // Must be employee or employer\r\n        require(\r\n            msg.sender == applicant ||\r\n            msg.sender == listingContract.owner()\r\n        );\r\n\r\n        // Must be in a valid stage\r\n        require(\r\n            stage() == Stages.EMPLOYEMENT_PERIOD\r\n        );\r\n\r\n        internalStage = Stages.IN_DISPUTE;\r\n        emit JobApplicationChange(internalStage);\r\n\r\n      // TODO: Create a dispute contract?\r\n      // Right now there's no way to exit this state.\r\n    }  \r\n//////////////////////////////////////////////////////////////////////////////////////////////////////////////  \r\n}",
  "sourcePath": "C:\\i\\HT\\hellonetmarket\\ethereum\\contracts\\JobApplicant.sol",
  "compiler": {
    "name": "solc",
    "version": "0.4.24+commit.e67f0147.Emscripten.clang"
  },
  "schemaVersion": "2.0.1",
  "updatedAt": "2018-08-01T21:17:35.786Z"
}