{
  "contractName": "ListingsRegistry",
  "abi": [
    {
      "constant": true,
      "inputs": [],
      "name": "owner",
      "outputs": [
        {
          "name": "",
          "type": "address"
        }
      ],
      "payable": false,
      "stateMutability": "view",
      "type": "function"
    },
    {
      "constant": true,
      "inputs": [
        {
          "name": "",
          "type": "uint256"
        }
      ],
      "name": "listings",
      "outputs": [
        {
          "name": "",
          "type": "address"
        }
      ],
      "payable": false,
      "stateMutability": "view",
      "type": "function"
    },
    {
      "inputs": [],
      "payable": false,
      "stateMutability": "nonpayable",
      "type": "constructor"
    },
    {
      "anonymous": false,
      "inputs": [
        {
          "indexed": false,
          "name": "_index",
          "type": "uint256"
        }
      ],
      "name": "NewListing",
      "type": "event"
    },
    {
      "constant": true,
      "inputs": [],
      "name": "listingsLength",
      "outputs": [
        {
          "name": "",
          "type": "uint256"
        }
      ],
      "payable": false,
      "stateMutability": "view",
      "type": "function"
    },
    {
      "constant": true,
      "inputs": [],
      "name": "getListings",
      "outputs": [
        {
          "name": "",
          "type": "address[]"
        }
      ],
      "payable": false,
      "stateMutability": "view",
      "type": "function"
    },
    {
      "constant": true,
      "inputs": [
        {
          "name": "_index",
          "type": "uint256"
        }
      ],
      "name": "getListing",
      "outputs": [
        {
          "name": "",
          "type": "address"
        },
        {
          "name": "",
          "type": "address"
        },
        {
          "name": "",
          "type": "bytes32"
        },
        {
          "name": "",
          "type": "uint256"
        },
        {
          "name": "",
          "type": "uint256"
        },
        {
          "name": "",
          "type": "uint256"
        },
        {
          "name": "",
          "type": "uint256"
        }
      ],
      "payable": false,
      "stateMutability": "view",
      "type": "function"
    },
    {
      "constant": false,
      "inputs": [
        {
          "name": "_ipfsHash",
          "type": "bytes32"
        },
        {
          "name": "_workingHours",
          "type": "uint256"
        },
        {
          "name": "_resourceType",
          "type": "uint256"
        },
        {
          "name": "_resourceRate",
          "type": "uint256"
        },
        {
          "name": "_totalResourceRequired",
          "type": "uint256"
        }
      ],
      "name": "create",
      "outputs": [
        {
          "name": "",
          "type": "uint256"
        }
      ],
      "payable": false,
      "stateMutability": "nonpayable",
      "type": "function"
    },
    {
      "constant": false,
      "inputs": [
        {
          "name": "_ipfsHash",
          "type": "bytes32"
        },
        {
          "name": "_workingHours",
          "type": "uint256"
        },
        {
          "name": "_resourceType",
          "type": "uint256"
        },
        {
          "name": "_resourceRate",
          "type": "uint256"
        },
        {
          "name": "_totalResourceRequired",
          "type": "uint256"
        },
        {
          "name": "_creatorAddress",
          "type": "address"
        }
      ],
      "name": "createOnBehalf",
      "outputs": [
        {
          "name": "",
          "type": "uint256"
        }
      ],
      "payable": false,
      "stateMutability": "nonpayable",
      "type": "function"
    }
  ],
  "bytecode": "0x608060405234801561001057600080fd5b50336000806101000a81548173ffffffffffffffffffffffffffffffffffffffff021916908373ffffffffffffffffffffffffffffffffffffffff16021790555061188a806100606000396000f300608060405260043610610083576000357c0100000000000000000000000000000000000000000000000000000000900463ffffffff168063107a274a1461008857806336a8c793146101535780637afd81f5146101e05780637d1fbc9b1461020b5780638da5cb5b14610278578063de74e57b146102cf578063f1b2d6a31461033c575b600080fd5b34801561009457600080fd5b506100b3600480360381019080803590602001909291905050506103a8565b604051808873ffffffffffffffffffffffffffffffffffffffff1673ffffffffffffffffffffffffffffffffffffffff1681526020018773ffffffffffffffffffffffffffffffffffffffff1673ffffffffffffffffffffffffffffffffffffffff168152602001866000191660001916815260200185815260200184815260200183815260200182815260200197505050505050505060405180910390f35b34801561015f57600080fd5b506101ca600480360381019080803560001916906020019092919080359060200190929190803590602001909291908035906020019092919080359060200190929190803573ffffffffffffffffffffffffffffffffffffffff169060200190929190505050610916565b6040518082815260200191505060405180910390f35b3480156101ec57600080fd5b506101f5610b1d565b6040518082815260200191505060405180910390f35b34801561021757600080fd5b50610262600480360381019080803560001916906020019092919080359060200190929190803590602001909291908035906020019092919080359060200190929190505050610b2a565b6040518082815260200191505060405180910390f35b34801561028457600080fd5b5061028d610c6c565b604051808273ffffffffffffffffffffffffffffffffffffffff1673ffffffffffffffffffffffffffffffffffffffff16815260200191505060405180910390f35b3480156102db57600080fd5b506102fa60048036038101908080359060200190929190505050610c91565b604051808273ffffffffffffffffffffffffffffffffffffffff1673ffffffffffffffffffffffffffffffffffffffff16815260200191505060405180910390f35b34801561034857600080fd5b50610351610ccf565b6040518080602001828103825283818151815260200191508051906020019060200280838360005b83811015610394578082015181840152602081019050610379565b505050509050019250505060405180910390f35b60008060008060008060006001888154811015156103c257fe5b9060005260206000200160009054906101000a900473ffffffffffffffffffffffffffffffffffffffff166001898154811015156103fc57fe5b9060005260206000200160009054906101000a900473ffffffffffffffffffffffffffffffffffffffff1673ffffffffffffffffffffffffffffffffffffffff16638da5cb5b6040518163ffffffff167c0100000000000000000000000000000000000000000000000000000000028152600401602060405180830381600087803b15801561048a57600080fd5b505af115801561049e573d6000803e3d6000fd5b505050506040513d60208110156104b457600080fd5b810190808051906020019092919050505060018a8154811015156104d457fe5b9060005260206000200160009054906101000a900473ffffffffffffffffffffffffffffffffffffffff1673ffffffffffffffffffffffffffffffffffffffff1663c623674f6040518163ffffffff167c0100000000000000000000000000000000000000000000000000000000028152600401602060405180830381600087803b15801561056257600080fd5b505af1158015610576573d6000803e3d6000fd5b505050506040513d602081101561058c57600080fd5b810190808051906020019092919050505060018b8154811015156105ac57fe5b9060005260206000200160009054906101000a900473ffffffffffffffffffffffffffffffffffffffff1673ffffffffffffffffffffffffffffffffffffffff1663bc65793e6040518163ffffffff167c0100000000000000000000000000000000000000000000000000000000028152600401602060405180830381600087803b15801561063a57600080fd5b505af115801561064e573d6000803e3d6000fd5b505050506040513d602081101561066457600080fd5b810190808051906020019092919050505060018c81548110151561068457fe5b9060005260206000200160009054906101000a900473ffffffffffffffffffffffffffffffffffffffff1673ffffffffffffffffffffffffffffffffffffffff1663f7d221906040518163ffffffff167c0100000000000000000000000000000000000000000000000000000000028152600401602060405180830381600087803b15801561071257600080fd5b505af1158015610726573d6000803e3d6000fd5b505050506040513d602081101561073c57600080fd5b810190808051906020019092919050505060018d81548110151561075c57fe5b9060005260206000200160009054906101000a900473ffffffffffffffffffffffffffffffffffffffff1673ffffffffffffffffffffffffffffffffffffffff1663883c22c56040518163ffffffff167c0100000000000000000000000000000000000000000000000000000000028152600401602060405180830381600087803b1580156107ea57600080fd5b505af11580156107fe573d6000803e3d6000fd5b505050506040513d602081101561081457600080fd5b810190808051906020019092919050505060018e81548110151561083457fe5b9060005260206000200160009054906101000a900473ffffffffffffffffffffffffffffffffffffffff1673ffffffffffffffffffffffffffffffffffffffff16634b91b9556040518163ffffffff167c0100000000000000000000000000000000000000000000000000000000028152600401602060405180830381600087803b1580156108c257600080fd5b505af11580156108d6573d6000803e3d6000fd5b505050506040513d60208110156108ec57600080fd5b81019080805190602001909291905050509650965096509650965096509650919395979092949650565b60008060009054906101000a900473ffffffffffffffffffffffffffffffffffffffff1673ffffffffffffffffffffffffffffffffffffffff163373ffffffffffffffffffffffffffffffffffffffff161415156109dc576040517f08c379a000000000000000000000000000000000000000000000000000000000815260040180806020018281038252601f8152602001807f4f6e6c792063616c6c61626c65206279207265676973747279206f776e65720081525060200191505060405180910390fd5b60018288888888886109ec610d5d565b808773ffffffffffffffffffffffffffffffffffffffff1673ffffffffffffffffffffffffffffffffffffffff16815260200186600019166000191681526020018581526020018481526020018381526020018281526020019650505050505050604051809103906000f080158015610a69573d6000803e3d6000fd5b5090806001815401808255809150509060018203906000526020600020016000909192909190916101000a81548173ffffffffffffffffffffffffffffffffffffffff021916908373ffffffffffffffffffffffffffffffffffffffff160217905550507fd8562534ed9a3ce564a595a66dbcc871a37cff70205ea8bc8d0276dcaa4d100960018080549050036040518082815260200191505060405180910390a160018054905090509695505050505050565b6000600180549050905090565b60006001338787878787610b3c610d5d565b808773ffffffffffffffffffffffffffffffffffffffff1673ffffffffffffffffffffffffffffffffffffffff16815260200186600019166000191681526020018581526020018481526020018381526020018281526020019650505050505050604051809103906000f080158015610bb9573d6000803e3d6000fd5b5090806001815401808255809150509060018203906000526020600020016000909192909190916101000a81548173ffffffffffffffffffffffffffffffffffffffff021916908373ffffffffffffffffffffffffffffffffffffffff160217905550507fd8562534ed9a3ce564a595a66dbcc871a37cff70205ea8bc8d0276dcaa4d100960018080549050036040518082815260200191505060405180910390a1600180549050905095945050505050565b6000809054906101000a900473ffffffffffffffffffffffffffffffffffffffff1681565b600181815481101515610ca057fe5b906000526020600020016000915054906101000a900473ffffffffffffffffffffffffffffffffffffffff1681565b60606001805480602002602001604051908101604052809291908181526020018280548015610d5357602002820191906000526020600020905b8160009054906101000a900473ffffffffffffffffffffffffffffffffffffffff1673ffffffffffffffffffffffffffffffffffffffff1681526020019060010190808311610d09575b5050505050905090565b604051610af180610d6e833901905600608060405234801561001057600080fd5b5060405160c080610af1833981018060405281019080805190602001909291908051906020019092919080519060200190929190805190602001909291908051906020019092919080519060200190929190505050856000806101000a81548173ffffffffffffffffffffffffffffffffffffffff021916908373ffffffffffffffffffffffffffffffffffffffff16021790555033600160006101000a81548173ffffffffffffffffffffffffffffffffffffffff021916908373ffffffffffffffffffffffffffffffffffffffff1602179055508460028160001916905550836005819055508260068190555081600481905550806003819055504260078190555062127500600754016008819055505050505050506109ba806101376000396000f3006080604052600436106100e6576000357c0100000000000000000000000000000000000000000000000000000000900463ffffffff1680632d71426d146100eb578063325a19f11461014257806343d726d61461016d578063455772d2146101845780634665096d146101f05780634b91b9551461021b57806356c1a05314610246578063631fa7b71461025d57806363de53231461028857806373d4a13a146102f5578063883c22c5146103855780638da5cb5b146103b0578063bc65793e14610407578063c623674f14610432578063eea3f82d14610465578063f7d22190146104d2575b600080fd5b3480156100f757600080fd5b506101006104fd565b604051808273ffffffffffffffffffffffffffffffffffffffff1673ffffffffffffffffffffffffffffffffffffffff16815260200191505060405180910390f35b34801561014e57600080fd5b50610157610523565b6040518082815260200191505060405180910390f35b34801561017957600080fd5b50610182610529565b005b34801561019057600080fd5b506101996105ba565b6040518080602001828103825283818151815260200191508051906020019060200280838360005b838110156101dc5780820151818401526020810190506101c1565b505050509050019250505060405180910390f35b3480156101fc57600080fd5b50610205610648565b6040518082815260200191505060405180910390f35b34801561022757600080fd5b5061023061064e565b6040518082815260200191505060405180910390f35b34801561025257600080fd5b5061025b610654565b005b34801561026957600080fd5b50610272610866565b6040518082815260200191505060405180910390f35b34801561029457600080fd5b506102b360048036038101908080359060200190929190505050610873565b604051808273ffffffffffffffffffffffffffffffffffffffff1673ffffffffffffffffffffffffffffffffffffffff16815260200191505060405180910390f35b34801561030157600080fd5b5061030a6108b1565b604051808973ffffffffffffffffffffffffffffffffffffffff1673ffffffffffffffffffffffffffffffffffffffff16815260200188600019166000191681526020018781526020018681526020018581526020018481526020018381526020018281526020019850505050505050505060405180910390f35b34801561039157600080fd5b5061039a61090e565b6040518082815260200191505060405180910390f35b3480156103bc57600080fd5b506103c5610914565b604051808273ffffffffffffffffffffffffffffffffffffffff1673ffffffffffffffffffffffffffffffffffffffff16815260200191505060405180910390f35b34801561041357600080fd5b5061041c610939565b6040518082815260200191505060405180910390f35b34801561043e57600080fd5b5061044761093f565b60405180826000191660001916815260200191505060405180910390f35b34801561047157600080fd5b5061049060048036038101908080359060200190929190505050610945565b604051808273ffffffffffffffffffffffffffffffffffffffff1673ffffffffffffffffffffffffffffffffffffffff16815260200191505060405180910390f35b3480156104de57600080fd5b506104e7610988565b6040518082815260200191505060405180910390f35b600160009054906101000a900473ffffffffffffffffffffffffffffffffffffffff1681565b60075481565b6000809054906101000a900473ffffffffffffffffffffffffffffffffffffffff1673ffffffffffffffffffffffffffffffffffffffff163373ffffffffffffffffffffffffffffffffffffffff1614151561058457600080fd5b60006006819055507ffa378a7d48087b5b4be3b8236f6f8829009c67d0dc3a6a431e43385d52ea2d1d60405160405180910390a1565b6060600980548060200260200160405190810160405280929190818152602001828054801561063e57602002820191906000526020600020905b8160009054906101000a900473ffffffffffffffffffffffffffffffffffffffff1673ffffffffffffffffffffffffffffffffffffffff16815260200190600101908083116105f4575b5050505050905090565b60085481565b60065481565b60006008544210151561066657600080fd5b73__JobApplicationLibrary_________________639038c88630336040518363ffffffff167c0100000000000000000000000000000000000000000000000000000000028152600401808373ffffffffffffffffffffffffffffffffffffffff1673ffffffffffffffffffffffffffffffffffffffff1681526020018273ffffffffffffffffffffffffffffffffffffffff1673ffffffffffffffffffffffffffffffffffffffff1681526020019250505060206040518083038186803b15801561073157600080fd5b505af4158015610745573d6000803e3d6000fd5b505050506040513d602081101561075b57600080fd5b8101908080519060200190929190505050905060098190806001815401808255809150509060018203906000526020600020016000909192909190916101000a81548173ffffffffffffffffffffffffffffffffffffffff021916908373ffffffffffffffffffffffffffffffffffffffff160217905550507f4353a90ced767b2d04726c58d6595ee553129185698c163fbb141f000fe6dbe581604051808273ffffffffffffffffffffffffffffffffffffffff1673ffffffffffffffffffffffffffffffffffffffff16815260200191505060405180910390a17ffa378a7d48087b5b4be3b8236f6f8829009c67d0dc3a6a431e43385d52ea2d1d60405160405180910390a150565b6000600980549050905090565b60098181548110151561088257fe5b906000526020600020016000915054906101000a900473ffffffffffffffffffffffffffffffffffffffff1681565b6000806000806000806000806000809054906101000a900473ffffffffffffffffffffffffffffffffffffffff16600254600554600654600454600354600754600854975097509750975097509750975097509091929394959697565b60055481565b6000809054906101000a900473ffffffffffffffffffffffffffffffffffffffff1681565b60035481565b60025481565b600060098281548110151561095657fe5b9060005260206000200160009054906101000a900473ffffffffffffffffffffffffffffffffffffffff169050919050565b600454815600a165627a7a7230582024501ed10c4299edd005b4a4983f96c8cf3b7bbb9699e7ca3e36c0e72c4f20730029a165627a7a72305820ce864cb7ee256b2d09b5a0528a3665e384c37a6c48611e1394c571535ba52d230029",
  "source": "pragma solidity 0.4.24;\r\n\r\n/// @title Job Listing\r\n/// @dev Used to keep marketplace of job listings from the companies\r\n/// @author Waheed Rahuman waheed@hellotoken.io\r\n\r\nimport \"./Listing.sol\";\r\n\r\ncontract ListingsRegistry {\r\n\r\n  /*\r\n   * Events\r\n   */\r\n\r\n    event NewListing(uint _index);\r\n\r\n  /*\r\n   * Storage\r\n   */\r\n\r\n  // Contract owner\r\n    address public owner;\r\n\r\n  // Array of all listings\r\n    Listing[] public listings;\r\n\r\n  /*\r\n   * Public functions\r\n   */\r\n\r\n    constructor()\r\n      public\r\n    {\r\n      // Defines HelloToken admin address \r\n        owner = msg.sender;\r\n    }\r\n\r\n  /// @dev listingsLength(): Return number of listings\r\n    function listingsLength()\r\n      public\r\n      constant\r\n      returns (uint)\r\n    {\r\n        return listings.length;\r\n    }\r\n    \r\n    function getListings() public view returns (Listing[]){\r\n        return listings;\r\n    }\r\n\r\n    /// @dev getListing(): Return listing info for a given listing\r\n    /// @param _index the index of the listing we want info about\r\n    function getListing(uint _index)\r\n      public\r\n      constant\r\n      returns (Listing, address, bytes32, uint, uint,uint, uint)\r\n    {\r\n      // Test in truffle deelop:\r\n      // ListingsRegistry.deployed().then(function(instance){ return instance.getListing.call(0) })\r\n\r\n      // TODO (Stan): Determine if less gas to do one array lookup into var, and\r\n      // return var struct parts\r\n        return (\r\n          listings[_index],\r\n          listings[_index].owner(),\r\n          listings[_index].ipfsHash(),\r\n          listings[_index].workingHours(),\r\n          listings[_index].resourceType(),\r\n          listings[_index].resourceRate(),\r\n          listings[_index].totalResourceRequired()\r\n        );\r\n    }\r\n\r\n\r\n    /// Sample Remix invocation:\r\n    /// [\"0x01\",\"0x7d\",\"0xfd\",\"0x85\",\"0xd4\",\"0xf6\",\"0xcb\",\"0x4d\",\"0xcd\",\"0x71\",\"0x5a\",\"0x88\",\"0x10\",\"0x1f\",\"0x7b\",\"0x1f\",\"0x06\",\"0xcd\",\"0x1e\",\"0x00\",\"0x9b\",\"0x23\",\"0x27\",\"0xa0\",\"0x80\",\"0x9d\",\"0x01\",\"0xeb\",\"0x9c\",\"0x91\",\"0xf2\",\"0x31\"],\"3140000000000000000\",42\r\n\r\n  /*\r\n  *\t@dev create(); Create a new job requirements\r\n  *\tData Storage\r\n  *\t------------\r\n  *\t_ipfsHash\t\tHash\tHash of data on ipfsHash\r\n  *\t_workingHours\t\tunint\tNo of working hours required\r\n  *\t_resourceType\t\tunint\tResource type Agent or Auditor\r\n  *\t_resourceRate\t\tunint\tRate offered per hour in wei\r\n  *\t_totalResourceRequired\tNumber\tNo of agents/auditors required\r\n  */\r\n\r\n    function create(\r\n        bytes32 _ipfsHash,\r\n        uint _workingHours,\r\n        uint _resourceType,\r\n        uint _resourceRate,\r\n        uint _totalResourceRequired\r\n    )\r\n      public\r\n      returns (uint)\r\n    {\r\n        listings.push(new Listing(msg.sender, _ipfsHash, _workingHours, _resourceType,_resourceRate,_totalResourceRequired));\r\n        emit NewListing(listings.length-1);\r\n        return listings.length;\r\n    }\r\n\r\n\r\n  /*\r\n  *\t@dev createOnBehalf(); Migrate job posting as admin\r\n  *\tData Storage\r\n  *\t------------\r\n  *\t_ipfsHash\t\tHash\tHash of data on ipfsHash\r\n  *\t_workingHours\t\tunint\tNo of working hours required\r\n  *\t_resourceType\t\tunint\tResource type Agent or Auditor\r\n  *\t_resourceRate\t\tunint\tRate offered per hour in wei\r\n  *\t_totalResourceRequired\tNumber\tNo of agents/auditors required\r\n  *\t_creatorAddress\t\tAddress\tAdding listing on behalf of someone (Only by admin)\r\n  */\r\n\r\n    function createOnBehalf(\r\n        bytes32 _ipfsHash,\r\n        uint _workingHours,\r\n        uint _resourceType,\r\n        uint _resourceRate,\r\n        uint _totalResourceRequired,\r\n        address _creatorAddress\r\n    )\r\n      public\r\n      returns (uint)\r\n    {\r\n        require (msg.sender == owner, \"Only callable by registry owner\");\r\n        listings.push(new Listing(_creatorAddress,  _ipfsHash, _workingHours, _resourceType,_resourceRate,_totalResourceRequired));\r\n        emit NewListing(listings.length-1);\r\n        return listings.length;\r\n    }\r\n}",
  "sourcePath": "C:\\i\\HT\\hellonetmarket\\ethereum\\contracts\\ListingsRegistry.sol",
  "compiler": {
    "name": "solc",
    "version": "0.4.24+commit.e67f0147.Emscripten.clang"
  },
  "schemaVersion": "2.0.1",
  "updatedAt": "2018-08-01T21:17:35.780Z"
}