{
  "contractName": "Listing",
  "abi": [
    {
      "constant": true,
      "inputs": [],
      "name": "ListingRegistry",
      "outputs": [
        {
          "name": "",
          "type": "address"
        }
      ],
      "payable": false,
      "stateMutability": "view",
      "type": "function"
    },
    {
      "constant": true,
      "inputs": [],
      "name": "created",
      "outputs": [
        {
          "name": "",
          "type": "uint256"
        }
      ],
      "payable": false,
      "stateMutability": "view",
      "type": "function"
    },
    {
      "constant": true,
      "inputs": [],
      "name": "expiration",
      "outputs": [
        {
          "name": "",
          "type": "uint256"
        }
      ],
      "payable": false,
      "stateMutability": "view",
      "type": "function"
    },
    {
      "constant": true,
      "inputs": [],
      "name": "totalResourceRequired",
      "outputs": [
        {
          "name": "",
          "type": "uint256"
        }
      ],
      "payable": false,
      "stateMutability": "view",
      "type": "function"
    },
    {
      "constant": true,
      "inputs": [
        {
          "name": "",
          "type": "uint256"
        }
      ],
      "name": "applicants",
      "outputs": [
        {
          "name": "",
          "type": "address"
        }
      ],
      "payable": false,
      "stateMutability": "view",
      "type": "function"
    },
    {
      "constant": true,
      "inputs": [],
      "name": "resourceRate",
      "outputs": [
        {
          "name": "",
          "type": "uint256"
        }
      ],
      "payable": false,
      "stateMutability": "view",
      "type": "function"
    },
    {
      "constant": true,
      "inputs": [],
      "name": "owner",
      "outputs": [
        {
          "name": "",
          "type": "address"
        }
      ],
      "payable": false,
      "stateMutability": "view",
      "type": "function"
    },
    {
      "constant": true,
      "inputs": [],
      "name": "workingHours",
      "outputs": [
        {
          "name": "",
          "type": "uint256"
        }
      ],
      "payable": false,
      "stateMutability": "view",
      "type": "function"
    },
    {
      "constant": true,
      "inputs": [],
      "name": "ipfsHash",
      "outputs": [
        {
          "name": "",
          "type": "bytes32"
        }
      ],
      "payable": false,
      "stateMutability": "view",
      "type": "function"
    },
    {
      "constant": true,
      "inputs": [],
      "name": "resourceType",
      "outputs": [
        {
          "name": "",
          "type": "uint256"
        }
      ],
      "payable": false,
      "stateMutability": "view",
      "type": "function"
    },
    {
      "inputs": [
        {
          "name": "_owner",
          "type": "address"
        },
        {
          "name": "_ipfsHash",
          "type": "bytes32"
        },
        {
          "name": "_resourceRate",
          "type": "uint256"
        },
        {
          "name": "_totalResourceRequired",
          "type": "uint256"
        },
        {
          "name": "_resourceType",
          "type": "uint256"
        },
        {
          "name": "_workingHours",
          "type": "uint256"
        }
      ],
      "payable": false,
      "stateMutability": "nonpayable",
      "type": "constructor"
    },
    {
      "anonymous": false,
      "inputs": [
        {
          "indexed": false,
          "name": "_jobApplicantContract",
          "type": "address"
        }
      ],
      "name": "ListingApplied",
      "type": "event"
    },
    {
      "anonymous": false,
      "inputs": [],
      "name": "ListingChange",
      "type": "event"
    },
    {
      "constant": true,
      "inputs": [],
      "name": "data",
      "outputs": [
        {
          "name": "_owner",
          "type": "address"
        },
        {
          "name": "_ipfsHash",
          "type": "bytes32"
        },
        {
          "name": "_resourceRate",
          "type": "uint256"
        },
        {
          "name": "_totalResourceRequired",
          "type": "uint256"
        },
        {
          "name": "_resourceType",
          "type": "uint256"
        },
        {
          "name": "_workingHours",
          "type": "uint256"
        },
        {
          "name": "_created",
          "type": "uint256"
        },
        {
          "name": "_expiration",
          "type": "uint256"
        }
      ],
      "payable": false,
      "stateMutability": "view",
      "type": "function"
    },
    {
      "constant": false,
      "inputs": [],
      "name": "applyToJob",
      "outputs": [],
      "payable": false,
      "stateMutability": "nonpayable",
      "type": "function"
    },
    {
      "constant": true,
      "inputs": [],
      "name": "totalJobApplicants",
      "outputs": [
        {
          "name": "",
          "type": "uint256"
        }
      ],
      "payable": false,
      "stateMutability": "view",
      "type": "function"
    },
    {
      "constant": true,
      "inputs": [
        {
          "name": "_index",
          "type": "uint256"
        }
      ],
      "name": "getApplicant",
      "outputs": [
        {
          "name": "",
          "type": "address"
        }
      ],
      "payable": false,
      "stateMutability": "view",
      "type": "function"
    },
    {
      "constant": true,
      "inputs": [],
      "name": "getApplicants",
      "outputs": [
        {
          "name": "",
          "type": "address[]"
        }
      ],
      "payable": false,
      "stateMutability": "view",
      "type": "function"
    },
    {
      "constant": false,
      "inputs": [],
      "name": "close",
      "outputs": [],
      "payable": false,
      "stateMutability": "nonpayable",
      "type": "function"
    }
  ],
  "bytecode": "0x608060405234801561001057600080fd5b5060405160c08061073a83398101604090815281516020830151918301516060840151608085015160a09095015160008054600160a060020a03909516600160a060020a0319958616179055600180549094163317909355600293909355600555600691909155600491909155600355426007819055621275000160085561069d8061009d6000396000f3006080604052600436106100e55763ffffffff7c01000000000000000000000000000000000000000000000000000000006000350416632d71426d81146100ea578063325a19f11461012857806343d726d61461014f578063455772d2146101665780634665096d146101cb5780634b91b955146101e057806356c1a053146101f5578063631fa7b71461020a57806363de53231461021f57806373d4a13a14610237578063883c22c5146102a45780638da5cb5b146102b9578063bc65793e146102ce578063c623674f146102e3578063eea3f82d146102f8578063f7d2219014610310575b600080fd5b3480156100f657600080fd5b506100ff610325565b6040805173ffffffffffffffffffffffffffffffffffffffff9092168252519081900360200190f35b34801561013457600080fd5b5061013d610341565b60408051918252519081900360200190f35b34801561015b57600080fd5b50610164610347565b005b34801561017257600080fd5b5061017b61039b565b60408051602080825283518183015283519192839290830191858101910280838360005b838110156101b757818101518382015260200161019f565b505050509050019250505060405180910390f35b3480156101d757600080fd5b5061013d61040a565b3480156101ec57600080fd5b5061013d610410565b34801561020157600080fd5b50610164610416565b34801561021657600080fd5b5061013d61058e565b34801561022b57600080fd5b506100ff600435610594565b34801561024357600080fd5b5061024c6105c9565b6040805173ffffffffffffffffffffffffffffffffffffffff90991689526020890197909752878701959095526060870193909352608086019190915260a085015260c084015260e083015251908190036101000190f35b3480156102b057600080fd5b5061013d610604565b3480156102c557600080fd5b506100ff61060a565b3480156102da57600080fd5b5061013d610626565b3480156102ef57600080fd5b5061013d61062c565b34801561030457600080fd5b506100ff600435610632565b34801561031c57600080fd5b5061013d61066b565b60015473ffffffffffffffffffffffffffffffffffffffff1681565b60075481565b60005473ffffffffffffffffffffffffffffffffffffffff16331461036b57600080fd5b600060068190556040517ffa378a7d48087b5b4be3b8236f6f8829009c67d0dc3a6a431e43385d52ea2d1d9190a1565b6060600980548060200260200160405190810160405280929190818152602001828054801561040057602002820191906000526020600020905b815473ffffffffffffffffffffffffffffffffffffffff1681526001909101906020018083116103d5575b5050505050905090565b60085481565b60065481565b600854600090421061042757600080fd5b604080517f9038c886000000000000000000000000000000000000000000000000000000008152306004820152336024820152905173__JobApplicationLibrary_________________91639038c886916044808301926020929190829003018186803b15801561049757600080fd5b505af41580156104ab573d6000803e3d6000fd5b505050506040513d60208110156104c157600080fd5b5051600980546001810182556000919091527f6e1540171b6c0c960b71a7020d9f60077f6af931a8bbf590da0223dacf75c7af01805473ffffffffffffffffffffffffffffffffffffffff831673ffffffffffffffffffffffffffffffffffffffff19909116811790915560408051918252519192507f4353a90ced767b2d04726c58d6595ee553129185698c163fbb141f000fe6dbe5919081900360200190a16040517ffa378a7d48087b5b4be3b8236f6f8829009c67d0dc3a6a431e43385d52ea2d1d90600090a150565b60095490565b60098054829081106105a257fe5b60009182526020909120015473ffffffffffffffffffffffffffffffffffffffff16905081565b60005460025460055460065460045460035460075460085473ffffffffffffffffffffffffffffffffffffffff909716969091929394959697565b60055481565b60005473ffffffffffffffffffffffffffffffffffffffff1681565b60035481565b60025481565b600060098281548110151561064357fe5b60009182526020909120015473ffffffffffffffffffffffffffffffffffffffff1692915050565b600454815600a165627a7a7230582090b6420d9e2c03b67c2596da4a5dc977d67715bf13e5e73cf5ea54d8ac6e7df70029",
  "source": "pragma solidity 0.4.24;\r\n\r\n/// @title Listing\r\n/// @dev To an individual Job Listing, an job applicant can apply and employ can hire\r\n\r\nimport \"./JobApplicant.sol\";\r\nimport \"./JobApplicationLibrary.sol\";\r\n\r\n\r\ncontract Listing {\r\n\r\n  /*\r\n   * Events\r\n   */\r\n\r\n    event ListingApplied(JobApplicant _jobApplicantContract);\r\n    event ListingChange();\r\n\r\n/*\r\n*\tData Storage\r\n*\t------------\r\n*\tWorkingHours\r\n*\tResourceType\r\n*\tresourceRate\r\n*\ttotalResourceRequired\r\n*/\r\n\r\n    address public owner;\r\n    address public ListingRegistry; // TODO: Define interface for real ListingRegistry ?\r\n\r\n    // Assume IPFS defaults for hash: function:0x12=sha2, size:0x20=256 bits\r\n    // See: https://ethereum.stackexchange.com/a/17112/20332\r\n    // This assumption may have to change in future, but saves space now\r\n\r\n    bytes32 public ipfsHash;\r\n    uint public workingHours;\r\n    uint public resourceType;\r\n    uint public resourceRate;\r\n    uint public totalResourceRequired;\r\n    uint public created;\r\n    uint public expiration;\r\n\r\n    // Hire[] public hiring;\r\n    JobApplicant[] public applicants;\r\n\r\n    constructor (\r\n      address _owner,\r\n      bytes32 _ipfsHash,\r\n      uint _resourceRate,\r\n      uint _totalResourceRequired,\r\n      uint _resourceType,\r\n      uint _workingHours\r\n    )\r\n\r\n////////////////////////////////////////////////////////////////////////////////////////////////////////\r\n//\t\t\tData Structure\r\n////////////////////////////////////////////////////////////////////////////////////////////////////////\r\n\r\n    public\r\n    {\r\n        owner\t\t\t= _owner;\r\n        ListingRegistry\t\t= msg.sender; // ListingRegistry(msg.sender);\r\n        ipfsHash\t\t\t= _ipfsHash;\r\n        resourceRate\t\t= _resourceRate;\r\n        totalResourceRequired\t= _totalResourceRequired;\r\n        resourceType\t\t= _resourceType;\r\n        workingHours\t\t= _workingHours;\r\n        created\t\t\t= now;\r\n        expiration\t\t= created + 14 days;\r\n    }\r\n\r\n////////////////////////////////////////////////////////////////////////////////////////////////////////\r\n//\t\t\tCheck whether, modifer is the contract owner of the listing\r\n////////////////////////////////////////////////////////////////////////////////////////////////////////\r\n\r\n    modifier isEmployer() {\r\n        require(msg.sender == owner);\r\n        _;\r\n    }\r\n\r\n////////////////////////////////////////////////////////////////////////////////////////////////////////\r\n//\t\t\tListing Data\r\n////////////////////////////////////////////////////////////////////////////////////////////////////////\r\n    function data()\r\n    public\r\n    view\r\n    returns (address _owner, bytes32 _ipfsHash, uint _resourceRate, uint _totalResourceRequired, uint _resourceType,uint _workingHours,uint _created, uint _expiration)\r\n    {\r\n        return (owner, ipfsHash, resourceRate, totalResourceRequired, resourceType, workingHours, created, expiration);\r\n    }\r\n\r\n/////////////////////////////////////////////////////////////////////////////////////////////////////////////////////\r\n  /// @dev ApplyToJob()\t\t--> An applicant can apply for a Job Listing\r\n/////////////////////////////////////////////////////////////////////////////////////////////////////////////////////\r\n    function applyToJob()\r\n    public    \r\n    {\r\n\r\n    // Ensure that we are not past the expiration\r\n        require(now < expiration);\r\n\r\n        // Create Job Application contract\r\n        JobApplicant applicant = JobApplicationLibrary.newApplicant(this, msg.sender);\r\n\r\n        applicants.push(applicant);\r\n\r\n        // TODO STAN: How to call function *AND* transfer value??\r\n        // applicant.pay.value(msg.value)();\r\n\r\n        emit ListingApplied(applicant);\r\n        emit ListingChange();\r\n    }\r\n\r\n////////////////////////////////////////////////////////////////////////////////////////////////////////\r\n///\t@dev totalJobApplicants(): Return number of applicants for a given Job Listing\r\n////////////////////////////////////////////////////////////////////////////////////////////////////////\r\n    function totalJobApplicants()\r\n      public\r\n      constant\r\n      returns (uint)\r\n    {\r\n        return applicants.length;\r\n    }\r\n\r\n    /// @dev getApplicant(): Return Job Application info for a given Job Listing\r\n    /// @param _index the index of the Listing we want info about\r\n    function getApplicant(uint _index)\r\n      public\r\n      constant\r\n      returns (JobApplicant)\r\n    {\r\n        return (\r\n          applicants[_index]\r\n        );\r\n    }\r\n\r\n    function getApplicants()\r\n      public\r\n      constant\r\n      returns (JobApplicant[])\r\n    {\r\n        return (\r\n          applicants\r\n        );\r\n    }\r\n\r\n////////////////////////////////////////////////////////////////////////////////////////////////////////\r\n///\t\t\tHiring Contract Starts\t\t\t\t\t\t\t      //\r\n////////////////////////////////////////////////////////////////////////////////////////////////////////\r\n\r\n//   function hireApplicant(uint _agentApply)\r\n//     public\r\n//     payable\r\n//   {\r\n//     // Ensure that this is not trying to hire more than required agents\r\n// //    require(_agentApply <= totalResourceRequired);\r\n\r\n//     // Ensure that we are not past the expiration\r\n//     require(now < expiration);\r\n\r\n//     // Create Job Application contract\r\n//     JobApplicant applicant = JobApplicationLibrary.newApplicant(this, msg.sender);\r\n\r\n//     // Count units as sold\r\n//     //totalResourceRequired -= _agentApply;\r\n\r\n//     applicants.push(applicant);\r\n\r\n//     // TODO STAN: How to call function *AND* transfer value??\r\n//     // applicant.pay.value(msg.value)();\r\n\r\n//     emit ListingApplied(applicant);\r\n//     emit ListingChange();\r\n//   }\r\n\r\n////////////////////////////////////////////////////////////////////////////////////////////////////////\r\n  /// @dev close(): Allows an employer to close the Job Listing from further applicants\r\n////////////////////////////////////////////////////////////////////////////////////////////////////////\r\n    function close()\r\n        public\r\n        isEmployer\r\n    {\r\n        totalResourceRequired = 0;\r\n        emit ListingChange();\r\n    }\r\n////////////////////////////////////////////////////////////////////////////////////////////////////////\r\n\r\n}\r\n\r\n\r\n\r\n\r\n",
  "sourcePath": "C:\\i\\HT\\hellonetmarket\\ethereum\\contracts\\Listing.sol",
  "compiler": {
    "name": "solc",
    "version": "0.4.24+commit.e67f0147.Emscripten.clang"
  },
  "schemaVersion": "2.0.1",
  "updatedAt": "2018-08-03T15:01:17.312Z"
}