{
  "contractName": "ListingsRegistry",
  "abi": [
    {
      "constant": true,
      "inputs": [],
      "name": "owner",
      "outputs": [
        {
          "name": "",
          "type": "address"
        }
      ],
      "payable": false,
      "stateMutability": "view",
      "type": "function"
    },
    {
      "constant": true,
      "inputs": [
        {
          "name": "",
          "type": "uint256"
        }
      ],
      "name": "listings",
      "outputs": [
        {
          "name": "",
          "type": "address"
        }
      ],
      "payable": false,
      "stateMutability": "view",
      "type": "function"
    },
    {
      "inputs": [],
      "payable": false,
      "stateMutability": "nonpayable",
      "type": "constructor"
    },
    {
      "anonymous": false,
      "inputs": [
        {
          "indexed": false,
          "name": "_index",
          "type": "uint256"
        }
      ],
      "name": "NewListing",
      "type": "event"
    },
    {
      "constant": true,
      "inputs": [],
      "name": "listingsLength",
      "outputs": [
        {
          "name": "",
          "type": "uint256"
        }
      ],
      "payable": false,
      "stateMutability": "view",
      "type": "function"
    },
    {
      "constant": true,
      "inputs": [],
      "name": "getListings",
      "outputs": [
        {
          "name": "",
          "type": "address[]"
        }
      ],
      "payable": false,
      "stateMutability": "view",
      "type": "function"
    },
    {
      "constant": true,
      "inputs": [
        {
          "name": "_index",
          "type": "uint256"
        }
      ],
      "name": "getListing",
      "outputs": [
        {
          "name": "",
          "type": "address"
        },
        {
          "name": "",
          "type": "address"
        },
        {
          "name": "",
          "type": "bytes32"
        },
        {
          "name": "",
          "type": "uint256"
        },
        {
          "name": "",
          "type": "uint256"
        },
        {
          "name": "",
          "type": "uint256"
        },
        {
          "name": "",
          "type": "uint256"
        }
      ],
      "payable": false,
      "stateMutability": "view",
      "type": "function"
    },
    {
      "constant": true,
      "inputs": [
        {
          "name": "cursor",
          "type": "uint256"
        },
        {
          "name": "howMany",
          "type": "uint256"
        }
      ],
      "name": "fetchPage",
      "outputs": [
        {
          "name": "values",
          "type": "address[]"
        },
        {
          "name": "newCursor",
          "type": "uint256"
        }
      ],
      "payable": false,
      "stateMutability": "view",
      "type": "function"
    },
    {
      "constant": false,
      "inputs": [
        {
          "name": "_ipfsHash",
          "type": "bytes32"
        },
        {
          "name": "_workingHours",
          "type": "uint256"
        },
        {
          "name": "_resourceType",
          "type": "uint256"
        },
        {
          "name": "_resourceRate",
          "type": "uint256"
        },
        {
          "name": "_totalResourceRequired",
          "type": "uint256"
        }
      ],
      "name": "create",
      "outputs": [
        {
          "name": "",
          "type": "uint256"
        }
      ],
      "payable": false,
      "stateMutability": "nonpayable",
      "type": "function"
    },
    {
      "constant": false,
      "inputs": [
        {
          "name": "_ipfsHash",
          "type": "bytes32"
        },
        {
          "name": "_workingHours",
          "type": "uint256"
        },
        {
          "name": "_resourceType",
          "type": "uint256"
        },
        {
          "name": "_resourceRate",
          "type": "uint256"
        },
        {
          "name": "_totalResourceRequired",
          "type": "uint256"
        },
        {
          "name": "_creatorAddress",
          "type": "address"
        }
      ],
      "name": "createOnBehalf",
      "outputs": [
        {
          "name": "",
          "type": "uint256"
        }
      ],
      "payable": false,
      "stateMutability": "nonpayable",
      "type": "function"
    }
  ],
  "bytecode": "0x608060405234801561001057600080fd5b5060008054600160a060020a0319163317905561120e806100326000396000f30060806040526004361061008d5763ffffffff7c0100000000000000000000000000000000000000000000000000000000600035041663107a274a811461009257806336a8c793146100ee5780636519bfa6146101305780637afd81f5146101a65780637d1fbc9b146101bb5780638da5cb5b146101df578063de74e57b14610210578063f1b2d6a314610228575b600080fd5b34801561009e57600080fd5b506100aa60043561028d565b60408051600160a060020a039889168152969097166020870152858701949094526060850192909252608084015260a083015260c082015290519081900360e00190f35b3480156100fa57600080fd5b5061011e600435602435604435606435608435600160a060020a0360a435166106ea565b60408051918252519081900360200190f35b34801561013c57600080fd5b5061014b600435602435610850565b6040518080602001838152602001828103825284818151815260200191508051906020019060200280838360005b83811015610191578181015183820152602001610179565b50505050905001935050505060405180910390f35b3480156101b257600080fd5b5061011e61090c565b3480156101c757600080fd5b5061011e600435602435604435606435608435610912565b3480156101eb57600080fd5b506101f46109ff565b60408051600160a060020a039092168252519081900360200190f35b34801561021c57600080fd5b506101f4600435610a0e565b34801561023457600080fd5b5061023d610a36565b60408051602080825283518183015283519192839290830191858101910280838360005b83811015610279578181015183820152602001610261565b505050509050019250505060405180910390f35b60008060008060008060006001888154811015156102a757fe5b60009182526020909120015460018054600160a060020a03909216918a9081106102cd57fe5b9060005260206000200160009054906101000a9004600160a060020a0316600160a060020a0316638da5cb5b6040518163ffffffff167c0100000000000000000000000000000000000000000000000000000000028152600401602060405180830381600087803b15801561034157600080fd5b505af1158015610355573d6000803e3d6000fd5b505050506040513d602081101561036b57600080fd5b5051600180548b90811061037b57fe5b9060005260206000200160009054906101000a9004600160a060020a0316600160a060020a031663c623674f6040518163ffffffff167c0100000000000000000000000000000000000000000000000000000000028152600401602060405180830381600087803b1580156103ef57600080fd5b505af1158015610403573d6000803e3d6000fd5b505050506040513d602081101561041957600080fd5b5051600180548c90811061042957fe5b9060005260206000200160009054906101000a9004600160a060020a0316600160a060020a031663bc65793e6040518163ffffffff167c0100000000000000000000000000000000000000000000000000000000028152600401602060405180830381600087803b15801561049d57600080fd5b505af11580156104b1573d6000803e3d6000fd5b505050506040513d60208110156104c757600080fd5b5051600180548d9081106104d757fe5b9060005260206000200160009054906101000a9004600160a060020a0316600160a060020a031663f7d221906040518163ffffffff167c0100000000000000000000000000000000000000000000000000000000028152600401602060405180830381600087803b15801561054b57600080fd5b505af115801561055f573d6000803e3d6000fd5b505050506040513d602081101561057557600080fd5b5051600180548e90811061058557fe5b9060005260206000200160009054906101000a9004600160a060020a0316600160a060020a031663883c22c56040518163ffffffff167c0100000000000000000000000000000000000000000000000000000000028152600401602060405180830381600087803b1580156105f957600080fd5b505af115801561060d573d6000803e3d6000fd5b505050506040513d602081101561062357600080fd5b5051600180548f90811061063357fe5b9060005260206000200160009054906101000a9004600160a060020a0316600160a060020a0316634b91b9556040518163ffffffff167c0100000000000000000000000000000000000000000000000000000000028152600401602060405180830381600087803b1580156106a757600080fd5b505af11580156106bb573d6000803e3d6000fd5b505050506040513d60208110156106d157600080fd5b5051959e949d50929b5090995097509550909350915050565b60008054600160a060020a0316331461076457604080517f08c379a000000000000000000000000000000000000000000000000000000000815260206004820152601f60248201527f4f6e6c792063616c6c61626c65206279207265676973747279206f776e657200604482015290519081900360640190fd5b6001828888888888610774610a98565b600160a060020a03909616865260208601949094526040808601939093526060850191909152608084015260a0830191909152519081900360c001906000f0801580156107c5573d6000803e3d6000fd5b508154600180820184556000938452602093849020909101805473ffffffffffffffffffffffffffffffffffffffff1916600160a060020a03939093169290921790915554604080516000199092018252517fd8562534ed9a3ce564a595a66dbcc871a37cff70205ea8bc8d0276dcaa4d1009929181900390910190a1506001549695505050505050565b600154606090600090839082908690038211156108705760015486900391505b8160405190808252806020026020018201604052801561089a578160200160208202803883390190505b509350600090505b818110156108ff57600180548783019081106108ba57fe5b6000918252602090912001548451600160a060020a03909116908590839081106108e057fe5b600160a060020a039092166020928302909101909101526001016108a2565b5091949190930192509050565b60015490565b60006001338787878787610924610a98565b600160a060020a03909616865260208601949094526040808601939093526060850191909152608084015260a0830191909152519081900360c001906000f080158015610975573d6000803e3d6000fd5b508154600180820184556000938452602093849020909101805473ffffffffffffffffffffffffffffffffffffffff1916600160a060020a03939093169290921790915554604080516000199092018252517fd8562534ed9a3ce564a595a66dbcc871a37cff70205ea8bc8d0276dcaa4d1009929181900390910190a15060015495945050505050565b600054600160a060020a031681565b6001805482908110610a1c57fe5b600091825260209091200154600160a060020a0316905081565b60606001805480602002602001604051908101604052809291908181526020018280548015610a8e57602002820191906000526020600020905b8154600160a060020a03168152600190910190602001808311610a70575b5050505050905090565b60405161073a80610aa9833901905600608060405234801561001057600080fd5b5060405160c08061073a83398101604090815281516020830151918301516060840151608085015160a09095015160008054600160a060020a03909516600160a060020a0319958616179055600180549094163317909355600293909355600555600691909155600491909155600355426007819055621275000160085561069d8061009d6000396000f3006080604052600436106100e55763ffffffff7c01000000000000000000000000000000000000000000000000000000006000350416632d71426d81146100ea578063325a19f11461012857806343d726d61461014f578063455772d2146101665780634665096d146101cb5780634b91b955146101e057806356c1a053146101f5578063631fa7b71461020a57806363de53231461021f57806373d4a13a14610237578063883c22c5146102a45780638da5cb5b146102b9578063bc65793e146102ce578063c623674f146102e3578063eea3f82d146102f8578063f7d2219014610310575b600080fd5b3480156100f657600080fd5b506100ff610325565b6040805173ffffffffffffffffffffffffffffffffffffffff9092168252519081900360200190f35b34801561013457600080fd5b5061013d610341565b60408051918252519081900360200190f35b34801561015b57600080fd5b50610164610347565b005b34801561017257600080fd5b5061017b61039b565b60408051602080825283518183015283519192839290830191858101910280838360005b838110156101b757818101518382015260200161019f565b505050509050019250505060405180910390f35b3480156101d757600080fd5b5061013d61040a565b3480156101ec57600080fd5b5061013d610410565b34801561020157600080fd5b50610164610416565b34801561021657600080fd5b5061013d61058e565b34801561022b57600080fd5b506100ff600435610594565b34801561024357600080fd5b5061024c6105c9565b6040805173ffffffffffffffffffffffffffffffffffffffff90991689526020890197909752878701959095526060870193909352608086019190915260a085015260c084015260e083015251908190036101000190f35b3480156102b057600080fd5b5061013d610604565b3480156102c557600080fd5b506100ff61060a565b3480156102da57600080fd5b5061013d610626565b3480156102ef57600080fd5b5061013d61062c565b34801561030457600080fd5b506100ff600435610632565b34801561031c57600080fd5b5061013d61066b565b60015473ffffffffffffffffffffffffffffffffffffffff1681565b60075481565b60005473ffffffffffffffffffffffffffffffffffffffff16331461036b57600080fd5b600060068190556040517ffa378a7d48087b5b4be3b8236f6f8829009c67d0dc3a6a431e43385d52ea2d1d9190a1565b6060600980548060200260200160405190810160405280929190818152602001828054801561040057602002820191906000526020600020905b815473ffffffffffffffffffffffffffffffffffffffff1681526001909101906020018083116103d5575b5050505050905090565b60085481565b60065481565b600854600090421061042757600080fd5b604080517f9038c886000000000000000000000000000000000000000000000000000000008152306004820152336024820152905173__JobApplicationLibrary_________________91639038c886916044808301926020929190829003018186803b15801561049757600080fd5b505af41580156104ab573d6000803e3d6000fd5b505050506040513d60208110156104c157600080fd5b5051600980546001810182556000919091527f6e1540171b6c0c960b71a7020d9f60077f6af931a8bbf590da0223dacf75c7af01805473ffffffffffffffffffffffffffffffffffffffff831673ffffffffffffffffffffffffffffffffffffffff19909116811790915560408051918252519192507f4353a90ced767b2d04726c58d6595ee553129185698c163fbb141f000fe6dbe5919081900360200190a16040517ffa378a7d48087b5b4be3b8236f6f8829009c67d0dc3a6a431e43385d52ea2d1d90600090a150565b60095490565b60098054829081106105a257fe5b60009182526020909120015473ffffffffffffffffffffffffffffffffffffffff16905081565b60005460025460055460065460045460035460075460085473ffffffffffffffffffffffffffffffffffffffff909716969091929394959697565b60055481565b60005473ffffffffffffffffffffffffffffffffffffffff1681565b60035481565b60025481565b600060098281548110151561064357fe5b60009182526020909120015473ffffffffffffffffffffffffffffffffffffffff1692915050565b600454815600a165627a7a7230582090b6420d9e2c03b67c2596da4a5dc977d67715bf13e5e73cf5ea54d8ac6e7df70029a165627a7a723058208d2158078891bfe150c35ebd468e0ba3880af02285e30ff8b9878d4b685911530029",
  "source": "pragma solidity 0.4.24;\r\n\r\n/// @title Job Listing\r\n/// @dev Used to keep marketplace of job listings from the companies\r\n/// @author Waheed Rahuman waheed@hellotoken.io\r\n\r\nimport \"./Listing.sol\";\r\n\r\ncontract ListingsRegistry {\r\n\r\n  /*\r\n   * Events\r\n   */\r\n\r\n    event NewListing(uint _index);\r\n\r\n  /*\r\n   * Storage\r\n   */\r\n\r\n  // Contract owner\r\n    address public owner;\r\n\r\n  // Array of all listings\r\n    Listing[] public listings;\r\n\r\n  /*\r\n   * Public functions\r\n   */\r\n\r\n    constructor()\r\n      public\r\n    {\r\n      // Defines HelloToken admin address \r\n        owner = msg.sender;\r\n    }\r\n\r\n  /// @dev listingsLength(): Return number of listings\r\n    function listingsLength()\r\n      public\r\n      constant\r\n      returns (uint)\r\n    {\r\n        return listings.length;\r\n    }\r\n    \r\n    function getListings() public view returns (Listing[]){\r\n        return listings;\r\n    }\r\n\r\n    /// @dev getListing(): Return listing info for a given listing\r\n    /// @param _index the index of the listing we want info about\r\n    function getListing(uint _index)\r\n      public\r\n      constant\r\n      returns (Listing, address, bytes32, uint, uint,uint, uint)\r\n    {\r\n      // Test in truffle deelop:\r\n      // ListingsRegistry.deployed().then(function(instance){ return instance.getListing.call(0) })\r\n\r\n      // TODO (Stan): Determine if less gas to do one array lookup into var, and\r\n      // return var struct parts\r\n        return (\r\n          listings[_index],\r\n          listings[_index].owner(),\r\n          listings[_index].ipfsHash(),\r\n          listings[_index].workingHours(),\r\n          listings[_index].resourceType(),\r\n          listings[_index].resourceRate(),\r\n          listings[_index].totalResourceRequired()\r\n        );\r\n    }\r\n\r\n    function fetchPage(uint256 cursor, uint256 howMany)\r\n    public\r\n    view\r\n    returns (Listing[] values, uint256 newCursor)\r\n    {\r\n        uint256 length = howMany;\r\n        if (length > listings.length - cursor) {\r\n            length = listings.length - cursor;\r\n        }\r\n\r\n        values = new Listing[](length);\r\n        for (uint256 i = 0; i < length; i++) {\r\n            values[i] = listings[cursor + i];\r\n        }\r\n\r\n        return (values, cursor + length);\r\n    }\r\n\r\n    /// Sample Remix invocation:\r\n    /// [\"0x01\",\"0x7d\",\"0xfd\",\"0x85\",\"0xd4\",\"0xf6\",\"0xcb\",\"0x4d\",\"0xcd\",\"0x71\",\"0x5a\",\"0x88\",\"0x10\",\"0x1f\",\"0x7b\",\"0x1f\",\"0x06\",\"0xcd\",\"0x1e\",\"0x00\",\"0x9b\",\"0x23\",\"0x27\",\"0xa0\",\"0x80\",\"0x9d\",\"0x01\",\"0xeb\",\"0x9c\",\"0x91\",\"0xf2\",\"0x31\"],\"3140000000000000000\",42\r\n\r\n  /*\r\n  *\t@dev create(); Create a new job requirements\r\n  *\tData Storage\r\n  *\t------------\r\n  *\t_ipfsHash\t\tHash\tHash of data on ipfsHash\r\n  *\t_workingHours\t\tunint\tNo of working hours required\r\n  *\t_resourceType\t\tunint\tResource type Agent or Auditor\r\n  *\t_resourceRate\t\tunint\tRate offered per hour in wei\r\n  *\t_totalResourceRequired\tNumber\tNo of agents/auditors required\r\n  */\r\n\r\n    function create(\r\n        bytes32 _ipfsHash,\r\n        uint _workingHours,\r\n        uint _resourceType,\r\n        uint _resourceRate,\r\n        uint _totalResourceRequired\r\n    )\r\n      public\r\n      returns (uint)\r\n    {\r\n        listings.push(new Listing(msg.sender, _ipfsHash, _workingHours, _resourceType,_resourceRate,_totalResourceRequired));\r\n        emit NewListing(listings.length-1);\r\n        return listings.length;\r\n    }\r\n\r\n\r\n  /*\r\n  *\t@dev createOnBehalf(); Migrate job posting as admin\r\n  *\tData Storage\r\n  *\t------------\r\n  *\t_ipfsHash\t\tHash\tHash of data on ipfsHash\r\n  *\t_workingHours\t\tunint\tNo of working hours required\r\n  *\t_resourceType\t\tunint\tResource type Agent or Auditor\r\n  *\t_resourceRate\t\tunint\tRate offered per hour in wei\r\n  *\t_totalResourceRequired\tNumber\tNo of agents/auditors required\r\n  *\t_creatorAddress\t\tAddress\tAdding listing on behalf of someone (Only by admin)\r\n  */\r\n\r\n    function createOnBehalf(\r\n        bytes32 _ipfsHash,\r\n        uint _workingHours,\r\n        uint _resourceType,\r\n        uint _resourceRate,\r\n        uint _totalResourceRequired,\r\n        address _creatorAddress\r\n    )\r\n      public\r\n      returns (uint)\r\n    {\r\n        require (msg.sender == owner, \"Only callable by registry owner\");\r\n        listings.push(new Listing(_creatorAddress,  _ipfsHash, _workingHours, _resourceType,_resourceRate,_totalResourceRequired));\r\n        emit NewListing(listings.length-1);\r\n        return listings.length;\r\n    }\r\n}",
  "sourcePath": "C:\\i\\HT\\hellonetmarket\\ethereum\\contracts\\ListingsRegistry.sol",
  "compiler": {
    "name": "solc",
    "version": "0.4.24+commit.e67f0147.Emscripten.clang"
  },
  "schemaVersion": "2.0.1",
  "updatedAt": "2018-08-03T15:01:17.324Z"
}