{
  "contractName": "ClaimHolderLibrary",
  "abi": [
    {
      "anonymous": false,
      "inputs": [
        {
          "indexed": true,
          "name": "claimId",
          "type": "bytes32"
        },
        {
          "indexed": true,
          "name": "claimType",
          "type": "uint256"
        },
        {
          "indexed": false,
          "name": "scheme",
          "type": "uint256"
        },
        {
          "indexed": true,
          "name": "issuer",
          "type": "address"
        },
        {
          "indexed": false,
          "name": "signature",
          "type": "bytes"
        },
        {
          "indexed": false,
          "name": "data",
          "type": "bytes"
        },
        {
          "indexed": false,
          "name": "uri",
          "type": "string"
        }
      ],
      "name": "ClaimAdded",
      "type": "event"
    },
    {
      "anonymous": false,
      "inputs": [
        {
          "indexed": true,
          "name": "claimId",
          "type": "bytes32"
        },
        {
          "indexed": true,
          "name": "claimType",
          "type": "uint256"
        },
        {
          "indexed": false,
          "name": "scheme",
          "type": "uint256"
        },
        {
          "indexed": true,
          "name": "issuer",
          "type": "address"
        },
        {
          "indexed": false,
          "name": "signature",
          "type": "bytes"
        },
        {
          "indexed": false,
          "name": "data",
          "type": "bytes"
        },
        {
          "indexed": false,
          "name": "uri",
          "type": "string"
        }
      ],
      "name": "ClaimRemoved",
      "type": "event"
    },
    {
      "constant": false,
      "inputs": [
        {
          "name": "_keyHolderData",
          "type": "KeyHolderLibrary.KeyHolderData storage"
        },
        {
          "name": "_claims",
          "type": "ClaimHolderLibrary.Claims storage"
        },
        {
          "name": "_claimType",
          "type": "uint256"
        },
        {
          "name": "_scheme",
          "type": "uint256"
        },
        {
          "name": "_issuer",
          "type": "address"
        },
        {
          "name": "_signature",
          "type": "bytes"
        },
        {
          "name": "_data",
          "type": "bytes"
        },
        {
          "name": "_uri",
          "type": "string"
        }
      ],
      "name": "addClaim",
      "outputs": [
        {
          "name": "claimRequestId",
          "type": "bytes32"
        }
      ],
      "payable": false,
      "stateMutability": "nonpayable",
      "type": "function"
    },
    {
      "constant": false,
      "inputs": [
        {
          "name": "_keyHolderData",
          "type": "KeyHolderLibrary.KeyHolderData storage"
        },
        {
          "name": "_claims",
          "type": "ClaimHolderLibrary.Claims storage"
        },
        {
          "name": "_claimType",
          "type": "uint256[]"
        },
        {
          "name": "_issuer",
          "type": "address[]"
        },
        {
          "name": "_signature",
          "type": "bytes"
        },
        {
          "name": "_data",
          "type": "bytes"
        },
        {
          "name": "_offsets",
          "type": "uint256[]"
        }
      ],
      "name": "addClaims",
      "outputs": [],
      "payable": false,
      "stateMutability": "nonpayable",
      "type": "function"
    },
    {
      "constant": false,
      "inputs": [
        {
          "name": "_keyHolderData",
          "type": "KeyHolderLibrary.KeyHolderData storage"
        },
        {
          "name": "_claims",
          "type": "ClaimHolderLibrary.Claims storage"
        },
        {
          "name": "_claimId",
          "type": "bytes32"
        }
      ],
      "name": "removeClaim",
      "outputs": [
        {
          "name": "success",
          "type": "bool"
        }
      ],
      "payable": false,
      "stateMutability": "nonpayable",
      "type": "function"
    },
    {
      "constant": true,
      "inputs": [
        {
          "name": "_claims",
          "type": "ClaimHolderLibrary.Claims storage"
        },
        {
          "name": "_claimId",
          "type": "bytes32"
        }
      ],
      "name": "getClaim",
      "outputs": [
        {
          "name": "claimType",
          "type": "uint256"
        },
        {
          "name": "scheme",
          "type": "uint256"
        },
        {
          "name": "issuer",
          "type": "address"
        },
        {
          "name": "signature",
          "type": "bytes"
        },
        {
          "name": "data",
          "type": "bytes"
        },
        {
          "name": "uri",
          "type": "string"
        }
      ],
      "payable": false,
      "stateMutability": "view",
      "type": "function"
    }
  ],
  "bytecode": "0x61115d610030600b82828239805160001a6073146000811461002057610022565bfe5b5030600052607381538281f30073000000000000000000000000000000000000000030146080604052600436106100785763ffffffff7c0100000000000000000000000000000000000000000000000000000000600035041663428e59ee811461007d5780635c02fae1146101cb5780638522d0eb146101fd578063bd2d0c2814610390575b600080fd5b81801561008957600080fd5b5060408051602060046044358181013583810280860185019096528085526101c9958335956024803596369695606495939492019291829185019084908082843750506040805187358901803560208181028481018201909552818452989b9a99890198929750908201955093508392508501908490808284375050604080516020601f89358b018035918201839004830284018301909452808352979a99988101979196509182019450925082915084018382808284375050604080516020601f89358b018035918201839004830284018301909452808352979a999881019791965091820194509250829150840183828082843750506040805187358901803560208181028481018201909552818452989b9a9989019892975090820195509350839250850190849080828437509497506104a09650505050505050565b005b8180156101d757600080fd5b506101e960043560243560443561056c565b604080519115158252519081900360200190f35b61020b600435602435610927565b604051808781526020018681526020018573ffffffffffffffffffffffffffffffffffffffff1673ffffffffffffffffffffffffffffffffffffffff168152602001806020018060200180602001848103845287818151815260200191508051906020019080838360005b8381101561028e578181015183820152602001610276565b50505050905090810190601f1680156102bb5780820380516001836020036101000a031916815260200191505b50848103835286518152865160209182019188019080838360005b838110156102ee5781810151838201526020016102d6565b50505050905090810190601f16801561031b5780820380516001836020036101000a031916815260200191505b50848103825285518152855160209182019187019080838360005b8381101561034e578181015183820152602001610336565b50505050905090810190601f16801561037b5780820380516001836020036101000a031916815260200191505b50995050505050505050505060405180910390f35b81801561039c57600080fd5b50604080516020600460a43581810135601f810184900484028501840190955284845261048e948235946024803595604435956064359560843573ffffffffffffffffffffffffffffffffffffffff16953695929460c494920191819084018382808284375050604080516020601f89358b018035918201839004830284018301909452808352979a99988101979196509182019450925082915084018382808284375050604080516020601f89358b018035918201839004830284018301909452808352979a999881019791965091820194509250829150840183828082843750949750610b349650505050505050565b60408051918252519081900360200190f35b6000805b86518160ff161015610561576105388989898460ff168151811015156104c657fe5b9060200190602002015160018a8660ff168151811015156104e357fe5b906020019060200201516104ff8b8860410260ff166041610f58565b6105248b8a8c8b60ff1681518110151561051557fe5b90602001906020020151610f58565b604080516020810190915260008152610b34565b50828160ff1681518110151561054a57fe5b6020908102909101015191909101906001016104a4565b505050505050505050565b60003330146106c857604080516c010000000000000000000000003302815281519081900360140181207fd8188a4000000000000000000000000000000000000000000000000000000000825260048201879052602482015260016044820152905173__KeyHolderLibrary______________________9163d8188a40916064808301926020929190829003018186803b15801561060957600080fd5b505af415801561061d573d6000803e3d6000fd5b505050506040513d602081101561063357600080fd5b505115156106c857604080517f08c379a000000000000000000000000000000000000000000000000000000000815260206004820152602360248201527f53656e64657220646f6573206e6f742068617665206d616e6167656d656e742060448201527f6b65790000000000000000000000000000000000000000000000000000000000606482015290519081900360840190fd5b600082815260208481526040918290206002808201548254600180850154875181815260809781018881526003880180549485161561010002600019019094169690960497810188905273ffffffffffffffffffffffffffffffffffffffff9094169792968a967f3cf57863a89432c61c4a27073c6ee39e8a764bff5a05aebfbcdcdc80b2e6130a96929593946004820194600590920193919290830190606084019060a0850190889080156107bf5780601f10610794576101008083540402835291602001916107bf565b820191906000526020600020905b8154815290600101906020018083116107a257829003601f168201915b50508481038352865460026000196101006001841615020190911604808252602090910190879080156108335780601f1061080857610100808354040283529160200191610833565b820191906000526020600020905b81548152906001019060200180831161081657829003601f168201915b50508481038252855460026000196101006001841615020190911604808252602090910190869080156108a75780601f1061087c576101008083540402835291602001916108a7565b820191906000526020600020905b81548152906001019060200180831161088a57829003601f168201915b505097505050505050505060405180910390a460008281526020849052604081208181556001810182905560028101805473ffffffffffffffffffffffffffffffffffffffff19169055906108ff600383018261104f565b61090d60048301600061104f565b61091b60058301600061104f565b50600195945050505050565b60008181526020838152604080832080546001808301546002808501546003860180548851601f96821615610100026000190190911693909304948501899004890283018901909752838252889788976060978897889790969573ffffffffffffffffffffffffffffffffffffffff90951694929360048301936005909301929185918301828280156109fb5780601f106109d0576101008083540402835291602001916109fb565b820191906000526020600020905b8154815290600101906020018083116109de57829003601f168201915b5050855460408051602060026001851615610100026000190190941693909304601f810184900484028201840190925281815295985087945092508401905082828015610a895780601f10610a5e57610100808354040283529160200191610a89565b820191906000526020600020905b815481529060010190602001808311610a6c57829003601f168201915b5050845460408051602060026001851615610100026000190190941693909304601f810184900484028201840190925281815295975086945092508401905082828015610b175780601f10610aec57610100808354040283529160200191610b17565b820191906000526020600020905b815481529060010190602001808311610afa57829003601f168201915b505050505090509550955095509550955095509295509295509295565b600080333014610c9157604080516c010000000000000000000000003302815281519081900360140181207fd8188a40000000000000000000000000000000000000000000000000000000008252600482018d9052602482015260036044820152905173__KeyHolderLibrary______________________9163d8188a40916064808301926020929190829003018186803b158015610bd257600080fd5b505af4158015610be6573d6000803e3d6000fd5b505050506040513d6020811015610bfc57600080fd5b50511515610c9157604080517f08c379a000000000000000000000000000000000000000000000000000000000815260206004820152602360248201527f53656e64657220646f6573206e6f742068617665206d616e6167656d656e742060448201527f6b65790000000000000000000000000000000000000000000000000000000000606482015290519081900360840190fd5b50604080516c0100000000000000000000000073ffffffffffffffffffffffffffffffffffffffff8089169182028352601483018b9052835192839003603401909220600081815260208d9052939093206002015490911614610d125760008881526001808b01602090815260408320805492830181558352909120018190555b600081815260208a815260409091208981556001810189905560028101805473ffffffffffffffffffffffffffffffffffffffff191673ffffffffffffffffffffffffffffffffffffffff8a161790558651610d7692600390920191880190611096565b50600081815260208a815260409091208551610d9a92600490920191870190611096565b50600081815260208a815260409091208451610dbe92600590920191860190611096565b508573ffffffffffffffffffffffffffffffffffffffff168882600019167f46149b18aa084502c3f12bc75e19eda8bda8d102b82cce8474677a6d0d5f43c58a89898960405180858152602001806020018060200180602001848103845287818151815260200191508051906020019080838360005b83811015610e4c578181015183820152602001610e34565b50505050905090810190601f168015610e795780820380516001836020036101000a031916815260200191505b50848103835286518152865160209182019188019080838360005b83811015610eac578181015183820152602001610e94565b50505050905090810190601f168015610ed95780820380516001836020036101000a031916815260200191505b50848103825285518152855160209182019187019080838360005b83811015610f0c578181015183820152602001610ef4565b50505050905090810190601f168015610f395780820380516001836020036101000a031916815260200191505b5097505050505050505060405180910390a49998505050505050505050565b606080600080846040519080825280601f01601f191660200182016040528015610f8c578160200160208202803883390190505b509250600091508590505b848601811015611044578681815181101515610faf57fe5b9060200101517f010000000000000000000000000000000000000000000000000000000000000090047f010000000000000000000000000000000000000000000000000000000000000002838381518110151561100857fe5b9060200101907effffffffffffffffffffffffffffffffffffffffffffffffffffffffffffff1916908160001a90535060019182019101610f97565b509095945050505050565b50805460018160011615610100020316600290046000825580601f106110755750611093565b601f0160209004906000526020600020908101906110939190611114565b50565b828054600181600116156101000203166002900490600052602060002090601f016020900481019282601f106110d757805160ff1916838001178555611104565b82800160010185558215611104579182015b828111156111045782518255916020019190600101906110e9565b50611110929150611114565b5090565b61112e91905b80821115611110576000815560010161111a565b905600a165627a7a72305820a3a0ad8c85819d3b23e2a6a68331ae28177b485597ecd0fc45342829b649bef10029",
  "source": "pragma solidity ^0.4.23;\r\n\r\nimport './KeyHolderLibrary.sol';\r\n\r\nlibrary ClaimHolderLibrary {\r\n  event ClaimAdded(bytes32 indexed claimId, uint256 indexed claimType, uint256 scheme, address indexed issuer, bytes signature, bytes data, string uri);\r\n  event ClaimRemoved(bytes32 indexed claimId, uint256 indexed claimType, uint256 scheme, address indexed issuer, bytes signature, bytes data, string uri);\r\n\r\n  struct Claim {\r\n      uint256 claimType;\r\n      uint256 scheme;\r\n      address issuer; // msg.sender\r\n      bytes signature; // this.address + claimType + data\r\n      bytes data;\r\n      string uri;\r\n  }\r\n\r\n  struct Claims {\r\n      mapping (bytes32 => Claim) byId;\r\n      mapping (uint256 => bytes32[]) byType;\r\n  }\r\n\r\n  function addClaim(\r\n      KeyHolderLibrary.KeyHolderData storage _keyHolderData,\r\n      Claims storage _claims,\r\n      uint256 _claimType,\r\n      uint256 _scheme,\r\n      address _issuer,\r\n      bytes _signature,\r\n      bytes _data,\r\n      string _uri\r\n  )\r\n      public\r\n      returns (bytes32 claimRequestId)\r\n  {\r\n      if (msg.sender != address(this)) {\r\n        require(KeyHolderLibrary.keyHasPurpose(_keyHolderData, keccak256(msg.sender), 3), \"Sender does not have management key\");\r\n      }\r\n\r\n      bytes32 claimId = keccak256(_issuer, _claimType);\r\n\r\n      if (_claims.byId[claimId].issuer != _issuer) {\r\n          _claims.byType[_claimType].push(claimId);\r\n      }\r\n\r\n      _claims.byId[claimId].claimType = _claimType;\r\n      _claims.byId[claimId].scheme = _scheme;\r\n      _claims.byId[claimId].issuer = _issuer;\r\n      _claims.byId[claimId].signature = _signature;\r\n      _claims.byId[claimId].data = _data;\r\n      _claims.byId[claimId].uri = _uri;\r\n\r\n      emit ClaimAdded(\r\n          claimId,\r\n          _claimType,\r\n          _scheme,\r\n          _issuer,\r\n          _signature,\r\n          _data,\r\n          _uri\r\n      );\r\n\r\n      return claimId;\r\n  }\r\n\r\n  function addClaims(\r\n      KeyHolderLibrary.KeyHolderData storage _keyHolderData,\r\n      Claims storage _claims,\r\n      uint256[] _claimType,\r\n      address[] _issuer,\r\n      bytes _signature,\r\n      bytes _data,\r\n      uint256[] _offsets\r\n  )\r\n      public\r\n  {\r\n      uint offset = 0;\r\n      for (uint8 i = 0; i < _claimType.length; i++) {\r\n          addClaim(\r\n            _keyHolderData,\r\n            _claims,\r\n            _claimType[i],\r\n            1,\r\n            _issuer[i],\r\n            getBytes(_signature, (i * 65), 65),\r\n            getBytes(_data, offset, _offsets[i]),\r\n            \"\"\r\n          );\r\n          offset += _offsets[i];\r\n      }\r\n  }\r\n\r\n  function removeClaim(\r\n      KeyHolderLibrary.KeyHolderData storage _keyHolderData,\r\n      Claims storage _claims,\r\n      bytes32 _claimId\r\n  )\r\n      public\r\n      returns (bool success)\r\n  {\r\n      if (msg.sender != address(this)) {\r\n        require(KeyHolderLibrary.keyHasPurpose(_keyHolderData, keccak256(msg.sender), 1), \"Sender does not have management key\");\r\n      }\r\n\r\n      emit ClaimRemoved(\r\n          _claimId,\r\n          _claims.byId[_claimId].claimType,\r\n          _claims.byId[_claimId].scheme,\r\n          _claims.byId[_claimId].issuer,\r\n          _claims.byId[_claimId].signature,\r\n          _claims.byId[_claimId].data,\r\n          _claims.byId[_claimId].uri\r\n      );\r\n\r\n      delete _claims.byId[_claimId];\r\n      return true;\r\n  }\r\n\r\n  function getClaim(Claims storage _claims, bytes32 _claimId)\r\n      public\r\n      constant\r\n      returns(\r\n          uint256 claimType,\r\n          uint256 scheme,\r\n          address issuer,\r\n          bytes signature,\r\n          bytes data,\r\n          string uri\r\n      )\r\n  {\r\n      return (\r\n          _claims.byId[_claimId].claimType,\r\n          _claims.byId[_claimId].scheme,\r\n          _claims.byId[_claimId].issuer,\r\n          _claims.byId[_claimId].signature,\r\n          _claims.byId[_claimId].data,\r\n          _claims.byId[_claimId].uri\r\n      );\r\n  }\r\n\r\n  function getBytes(bytes _str, uint256 _offset, uint256 _length)\r\n      internal\r\n      pure\r\n      returns (bytes)\r\n  {\r\n      bytes memory sig = new bytes(_length);\r\n      uint256 j = 0;\r\n      for (uint256 k = _offset; k< _offset + _length; k++) {\r\n        sig[j] = _str[k];\r\n        j++;\r\n      }\r\n      return sig;\r\n  }\r\n}\r\n",
  "sourcePath": "C:\\i\\HT\\drizzleui\\contracts\\identity\\ClaimHolderLibrary.sol",
  "compiler": {
    "name": "solc",
    "version": "0.4.24+commit.e67f0147.Emscripten.clang"
  },
  "schemaVersion": "2.0.1",
  "updatedAt": "2018-07-27T21:38:26.122Z"
}