{
  "contractName": "ClaimHolder",
  "abi": [
    {
      "constant": true,
      "inputs": [
        {
          "name": "_key",
          "type": "bytes32"
        }
      ],
      "name": "getKeyPurpose",
      "outputs": [
        {
          "name": "purpose",
          "type": "uint256"
        }
      ],
      "payable": false,
      "stateMutability": "view",
      "type": "function"
    },
    {
      "constant": true,
      "inputs": [
        {
          "name": "_key",
          "type": "bytes32"
        }
      ],
      "name": "getKey",
      "outputs": [
        {
          "name": "purpose",
          "type": "uint256"
        },
        {
          "name": "keyType",
          "type": "uint256"
        },
        {
          "name": "key",
          "type": "bytes32"
        }
      ],
      "payable": false,
      "stateMutability": "view",
      "type": "function"
    },
    {
      "constant": false,
      "inputs": [
        {
          "name": "_key",
          "type": "bytes32"
        },
        {
          "name": "_purpose",
          "type": "uint256"
        },
        {
          "name": "_type",
          "type": "uint256"
        }
      ],
      "name": "addKey",
      "outputs": [
        {
          "name": "success",
          "type": "bool"
        }
      ],
      "payable": false,
      "stateMutability": "nonpayable",
      "type": "function"
    },
    {
      "constant": false,
      "inputs": [
        {
          "name": "_id",
          "type": "uint256"
        },
        {
          "name": "_approve",
          "type": "bool"
        }
      ],
      "name": "approve",
      "outputs": [
        {
          "name": "success",
          "type": "bool"
        }
      ],
      "payable": false,
      "stateMutability": "nonpayable",
      "type": "function"
    },
    {
      "constant": false,
      "inputs": [
        {
          "name": "_key",
          "type": "bytes32"
        }
      ],
      "name": "removeKey",
      "outputs": [
        {
          "name": "success",
          "type": "bool"
        }
      ],
      "payable": false,
      "stateMutability": "nonpayable",
      "type": "function"
    },
    {
      "constant": true,
      "inputs": [
        {
          "name": "_purpose",
          "type": "uint256"
        }
      ],
      "name": "getKeysByPurpose",
      "outputs": [
        {
          "name": "_keys",
          "type": "bytes32[]"
        }
      ],
      "payable": false,
      "stateMutability": "view",
      "type": "function"
    },
    {
      "constant": false,
      "inputs": [
        {
          "name": "_to",
          "type": "address"
        },
        {
          "name": "_value",
          "type": "uint256"
        },
        {
          "name": "_data",
          "type": "bytes"
        }
      ],
      "name": "execute",
      "outputs": [
        {
          "name": "executionId",
          "type": "uint256"
        }
      ],
      "payable": false,
      "stateMutability": "nonpayable",
      "type": "function"
    },
    {
      "constant": true,
      "inputs": [
        {
          "name": "_key",
          "type": "bytes32"
        },
        {
          "name": "_purpose",
          "type": "uint256"
        }
      ],
      "name": "keyHasPurpose",
      "outputs": [
        {
          "name": "result",
          "type": "bool"
        }
      ],
      "payable": false,
      "stateMutability": "view",
      "type": "function"
    },
    {
      "anonymous": false,
      "inputs": [
        {
          "indexed": true,
          "name": "claimRequestId",
          "type": "uint256"
        },
        {
          "indexed": true,
          "name": "claimType",
          "type": "uint256"
        },
        {
          "indexed": false,
          "name": "scheme",
          "type": "uint256"
        },
        {
          "indexed": true,
          "name": "issuer",
          "type": "address"
        },
        {
          "indexed": false,
          "name": "signature",
          "type": "bytes"
        },
        {
          "indexed": false,
          "name": "data",
          "type": "bytes"
        },
        {
          "indexed": false,
          "name": "uri",
          "type": "string"
        }
      ],
      "name": "ClaimRequested",
      "type": "event"
    },
    {
      "anonymous": false,
      "inputs": [
        {
          "indexed": true,
          "name": "claimId",
          "type": "bytes32"
        },
        {
          "indexed": true,
          "name": "claimType",
          "type": "uint256"
        },
        {
          "indexed": true,
          "name": "issuer",
          "type": "address"
        },
        {
          "indexed": false,
          "name": "signatureType",
          "type": "uint256"
        },
        {
          "indexed": false,
          "name": "signature",
          "type": "bytes32"
        },
        {
          "indexed": false,
          "name": "claim",
          "type": "bytes"
        },
        {
          "indexed": false,
          "name": "uri",
          "type": "string"
        }
      ],
      "name": "ClaimAdded",
      "type": "event"
    },
    {
      "anonymous": false,
      "inputs": [
        {
          "indexed": true,
          "name": "claimId",
          "type": "bytes32"
        },
        {
          "indexed": true,
          "name": "claimType",
          "type": "uint256"
        },
        {
          "indexed": false,
          "name": "scheme",
          "type": "uint256"
        },
        {
          "indexed": true,
          "name": "issuer",
          "type": "address"
        },
        {
          "indexed": false,
          "name": "signature",
          "type": "bytes"
        },
        {
          "indexed": false,
          "name": "data",
          "type": "bytes"
        },
        {
          "indexed": false,
          "name": "uri",
          "type": "string"
        }
      ],
      "name": "ClaimAdded",
      "type": "event"
    },
    {
      "anonymous": false,
      "inputs": [
        {
          "indexed": true,
          "name": "claimId",
          "type": "bytes32"
        },
        {
          "indexed": true,
          "name": "claimType",
          "type": "uint256"
        },
        {
          "indexed": false,
          "name": "scheme",
          "type": "uint256"
        },
        {
          "indexed": true,
          "name": "issuer",
          "type": "address"
        },
        {
          "indexed": false,
          "name": "signature",
          "type": "bytes"
        },
        {
          "indexed": false,
          "name": "data",
          "type": "bytes"
        },
        {
          "indexed": false,
          "name": "uri",
          "type": "string"
        }
      ],
      "name": "ClaimRemoved",
      "type": "event"
    },
    {
      "anonymous": false,
      "inputs": [
        {
          "indexed": true,
          "name": "claimId",
          "type": "bytes32"
        },
        {
          "indexed": true,
          "name": "claimType",
          "type": "uint256"
        },
        {
          "indexed": false,
          "name": "scheme",
          "type": "uint256"
        },
        {
          "indexed": true,
          "name": "issuer",
          "type": "address"
        },
        {
          "indexed": false,
          "name": "signature",
          "type": "bytes"
        },
        {
          "indexed": false,
          "name": "data",
          "type": "bytes"
        },
        {
          "indexed": false,
          "name": "uri",
          "type": "string"
        }
      ],
      "name": "ClaimChanged",
      "type": "event"
    },
    {
      "anonymous": false,
      "inputs": [
        {
          "indexed": true,
          "name": "key",
          "type": "bytes32"
        },
        {
          "indexed": true,
          "name": "purpose",
          "type": "uint256"
        },
        {
          "indexed": true,
          "name": "keyType",
          "type": "uint256"
        }
      ],
      "name": "KeyAdded",
      "type": "event"
    },
    {
      "anonymous": false,
      "inputs": [
        {
          "indexed": true,
          "name": "key",
          "type": "bytes32"
        },
        {
          "indexed": true,
          "name": "purpose",
          "type": "uint256"
        },
        {
          "indexed": true,
          "name": "keyType",
          "type": "uint256"
        }
      ],
      "name": "KeyRemoved",
      "type": "event"
    },
    {
      "anonymous": false,
      "inputs": [
        {
          "indexed": true,
          "name": "executionId",
          "type": "uint256"
        },
        {
          "indexed": true,
          "name": "to",
          "type": "address"
        },
        {
          "indexed": true,
          "name": "value",
          "type": "uint256"
        },
        {
          "indexed": false,
          "name": "data",
          "type": "bytes"
        }
      ],
      "name": "ExecutionRequested",
      "type": "event"
    },
    {
      "anonymous": false,
      "inputs": [
        {
          "indexed": true,
          "name": "executionId",
          "type": "uint256"
        },
        {
          "indexed": true,
          "name": "to",
          "type": "address"
        },
        {
          "indexed": true,
          "name": "value",
          "type": "uint256"
        },
        {
          "indexed": false,
          "name": "data",
          "type": "bytes"
        }
      ],
      "name": "Executed",
      "type": "event"
    },
    {
      "anonymous": false,
      "inputs": [
        {
          "indexed": true,
          "name": "executionId",
          "type": "uint256"
        },
        {
          "indexed": false,
          "name": "approved",
          "type": "bool"
        }
      ],
      "name": "Approved",
      "type": "event"
    },
    {
      "constant": false,
      "inputs": [
        {
          "name": "_claimType",
          "type": "uint256"
        },
        {
          "name": "_scheme",
          "type": "uint256"
        },
        {
          "name": "_issuer",
          "type": "address"
        },
        {
          "name": "_signature",
          "type": "bytes"
        },
        {
          "name": "_data",
          "type": "bytes"
        },
        {
          "name": "_uri",
          "type": "string"
        }
      ],
      "name": "addClaim",
      "outputs": [
        {
          "name": "claimRequestId",
          "type": "bytes32"
        }
      ],
      "payable": false,
      "stateMutability": "nonpayable",
      "type": "function"
    },
    {
      "constant": false,
      "inputs": [
        {
          "name": "_claimType",
          "type": "uint256[]"
        },
        {
          "name": "_issuer",
          "type": "address[]"
        },
        {
          "name": "_signature",
          "type": "bytes"
        },
        {
          "name": "_data",
          "type": "bytes"
        },
        {
          "name": "_offsets",
          "type": "uint256[]"
        }
      ],
      "name": "addClaims",
      "outputs": [],
      "payable": false,
      "stateMutability": "nonpayable",
      "type": "function"
    },
    {
      "constant": false,
      "inputs": [
        {
          "name": "_claimId",
          "type": "bytes32"
        }
      ],
      "name": "removeClaim",
      "outputs": [
        {
          "name": "success",
          "type": "bool"
        }
      ],
      "payable": false,
      "stateMutability": "nonpayable",
      "type": "function"
    },
    {
      "constant": true,
      "inputs": [
        {
          "name": "_claimId",
          "type": "bytes32"
        }
      ],
      "name": "getClaim",
      "outputs": [
        {
          "name": "claimType",
          "type": "uint256"
        },
        {
          "name": "scheme",
          "type": "uint256"
        },
        {
          "name": "issuer",
          "type": "address"
        },
        {
          "name": "signature",
          "type": "bytes"
        },
        {
          "name": "data",
          "type": "bytes"
        },
        {
          "name": "uri",
          "type": "string"
        }
      ],
      "payable": false,
      "stateMutability": "view",
      "type": "function"
    },
    {
      "constant": true,
      "inputs": [
        {
          "name": "_claimType",
          "type": "uint256"
        }
      ],
      "name": "getClaimIdsByType",
      "outputs": [
        {
          "name": "claimIds",
          "type": "bytes32[]"
        }
      ],
      "payable": false,
      "stateMutability": "view",
      "type": "function"
    }
  ],
  "bytecode": "0x608060408190527f30864be50000000000000000000000000000000000000000000000000000000081526000608481905273__KeyHolderLibrary______________________916330864be59160a49160248186803b15801561006157600080fd5b505af4158015610075573d6000803e3d6000fd5b50505050611395806100886000396000f3006080604052600436106100c45763ffffffff7c0100000000000000000000000000000000000000000000000000000000600035041663032c1a8a81146100c957806312aaac70146100f35780631d3812401461012957806321c148f01461015b578063262b54f5146102a05780634eee424a14610308578063747442d314610320578063862642f51461033d5780639010f72614610355578063b1a34e0d1461036d578063b61d27f614610462578063c9100bcb146104d8578063d202158d14610675575b600080fd5b3480156100d557600080fd5b506100e1600435610690565b60408051918252519081900360200190f35b3480156100ff57600080fd5b5061010b600435610736565b60408051938452602084019290925282820152519081900360600190f35b34801561013557600080fd5b506101476004356024356044356107f2565b604080519115158252519081900360200190f35b34801561016757600080fd5b506040805160206004803580820135838102808601850190965280855261029e95369593946024949385019291829185019084908082843750506040805187358901803560208181028481018201909552818452989b9a99890198929750908201955093508392508501908490808284375050604080516020601f89358b018035918201839004830284018301909452808352979a99988101979196509182019450925082915084018382808284375050604080516020601f89358b018035918201839004830284018301909452808352979a999881019791965091820194509250829150840183828082843750506040805187358901803560208181028481018201909552818452989b9a9989019892975090820195509350839250850190849080828437509497506108a89650505050505050565b005b3480156102ac57600080fd5b506102b8600435610adb565b60408051602080825283518183015283519192839290830191858101910280838360005b838110156102f45781810151838201526020016102dc565b505050509050019250505060405180910390f35b34801561031457600080fd5b50610147600435610b3e565b34801561032c57600080fd5b506101476004356024351515610bb8565b34801561034957600080fd5b50610147600435610c67565b34801561036157600080fd5b506102b8600435610cdb565b34801561037957600080fd5b50604080516020601f6064356004818101359283018490048402850184019095528184526100e194803594602480359573ffffffffffffffffffffffffffffffffffffffff60443516953695608494930191819084018382808284375050604080516020601f89358b018035918201839004830284018301909452808352979a99988101979196509182019450925082915084018382808284375050604080516020601f89358b018035918201839004830284018301909452808352979a999881019791965091820194509250829150840183828082843750949750610de29650505050505050565b34801561046e57600080fd5b50604080516020600460443581810135601f81018490048402850184019095528484526100e194823573ffffffffffffffffffffffffffffffffffffffff1694602480359536959460649492019190819084018382808284375094975061100c9650505050505050565b3480156104e457600080fd5b506104f0600435611120565b604051808781526020018681526020018573ffffffffffffffffffffffffffffffffffffffff1673ffffffffffffffffffffffffffffffffffffffff168152602001806020018060200180602001848103845287818151815260200191508051906020019080838360005b8381101561057357818101518382015260200161055b565b50505050905090810190601f1680156105a05780820380516001836020036101000a031916815260200191505b50848103835286518152865160209182019188019080838360005b838110156105d35781810151838201526020016105bb565b50505050905090810190601f1680156106005780820380516001836020036101000a031916815260200191505b50848103825285518152855160209182019187019080838360005b8381101561063357818101518382015260200161061b565b50505050905090810190601f1680156106605780820380516001836020036101000a031916815260200191505b50995050505050505050505060405180910390f35b34801561068157600080fd5b506101476004356024356112ee565b604080517fcf58f45b00000000000000000000000000000000000000000000000000000000815260006004820181905260248201849052915173__KeyHolderLibrary______________________9163cf58f45b916044808301926020929190829003018186803b15801561070457600080fd5b505af4158015610718573d6000803e3d6000fd5b505050506040513d602081101561072e57600080fd5b505192915050565b604080517fb01a9fb30000000000000000000000000000000000000000000000000000000081526000600482018190526024820184905291518291829173__KeyHolderLibrary______________________9163b01a9fb3916044808301926060929190829003018186803b1580156107ae57600080fd5b505af41580156107c2573d6000803e3d6000fd5b505050506040513d60608110156107d857600080fd5b508051602082015160409092015190969195509350915050565b604080517f5d601c3a000000000000000000000000000000000000000000000000000000008152600060048201819052602482018690526044820185905260648201849052915173__KeyHolderLibrary______________________91635d601c3a916084808301926020929190829003018186803b15801561087457600080fd5b505af4158015610888573d6000803e3d6000fd5b505050506040513d602081101561089e57600080fd5b5051949350505050565b73__ClaimHolderLibrary____________________63428e59ee6000600488888888886040518863ffffffff167c010000000000000000000000000000000000000000000000000000000002815260040180888152602001878152602001806020018060200180602001806020018060200186810386528b818151815260200191508051906020019060200280838360005b8381101561095257818101518382015260200161093a565b5050505090500186810385528a818151815260200191508051906020019060200280838360005b83811015610991578181015183820152602001610979565b50505050905001868103845289818151815260200191508051906020019080838360005b838110156109cd5781810151838201526020016109b5565b50505050905090810190601f1680156109fa5780820380516001836020036101000a031916815260200191505b5086810383528851815288516020918201918a019080838360005b83811015610a2d578181015183820152602001610a15565b50505050905090810190601f168015610a5a5780820380516001836020036101000a031916815260200191505b508681038252875181528751602091820191808a01910280838360005b83811015610a8f578181015183820152602001610a77565b505050509050019c5050505050505050505050505060006040518083038186803b158015610abc57600080fd5b505af4158015610ad0573d6000803e3d6000fd5b505050505050505050565b600081815260056020908152604091829020805483518184028101840190945280845260609392830182828015610b3257602002820191906000526020600020905b81548152600190910190602001808311610b1d575b50505050509050919050565b604080517f5c02fae100000000000000000000000000000000000000000000000000000000815260006004828101829052602483015260448201849052915173__ClaimHolderLibrary____________________91635c02fae1916064808301926020929190829003018186803b15801561070457600080fd5b604080517f67d4865f000000000000000000000000000000000000000000000000000000008152600060048201819052602482018590528315156044830152915173__KeyHolderLibrary______________________916367d4865f916064808301926020929190829003018186803b158015610c3457600080fd5b505af4158015610c48573d6000803e3d6000fd5b505050506040513d6020811015610c5e57600080fd5b50519392505050565b604080517f7ab17ba700000000000000000000000000000000000000000000000000000000815260006004820181905260248201849052915173__KeyHolderLibrary______________________91637ab17ba7916044808301926020929190829003018186803b15801561070457600080fd5b606073__KeyHolderLibrary______________________63746199f96000846040518363ffffffff167c0100000000000000000000000000000000000000000000000000000000028152600401808381526020018281526020019250505060006040518083038186803b158015610d5157600080fd5b505af4158015610d65573d6000803e3d6000fd5b505050506040513d6000823e601f3d908101601f191682016040526020811015610d8e57600080fd5b810190808051640100000000811115610da657600080fd5b82016020810184811115610db957600080fd5b8151856020820283011164010000000082111715610dd657600080fd5b50909695505050505050565b600073__ClaimHolderLibrary____________________63bd2d0c28600060048a8a8a8a8a8a6040518963ffffffff167c0100000000000000000000000000000000000000000000000000000000028152600401808981526020018881526020018781526020018681526020018573ffffffffffffffffffffffffffffffffffffffff1673ffffffffffffffffffffffffffffffffffffffff168152602001806020018060200180602001848103845287818151815260200191508051906020019080838360005b83811015610ec2578181015183820152602001610eaa565b50505050905090810190601f168015610eef5780820380516001836020036101000a031916815260200191505b50848103835286518152865160209182019188019080838360005b83811015610f22578181015183820152602001610f0a565b50505050905090810190601f168015610f4f5780820380516001836020036101000a031916815260200191505b50848103825285518152855160209182019187019080838360005b83811015610f82578181015183820152602001610f6a565b50505050905090810190601f168015610faf5780820380516001836020036101000a031916815260200191505b509b50505050505050505050505060206040518083038186803b158015610fd557600080fd5b505af4158015610fe9573d6000803e3d6000fd5b505050506040513d6020811015610fff57600080fd5b5051979650505050505050565b600073__KeyHolderLibrary______________________63e9356c6f60008686866040518563ffffffff167c0100000000000000000000000000000000000000000000000000000000028152600401808581526020018473ffffffffffffffffffffffffffffffffffffffff1673ffffffffffffffffffffffffffffffffffffffff16815260200183815260200180602001828103825283818151815260200191508051906020019080838360005b838110156110d35781810151838201526020016110bb565b50505050905090810190601f1680156111005780820380516001836020036101000a031916815260200191505b509550505050505060206040518083038186803b15801561087457600080fd5b6000806000606080606073__ClaimHolderLibrary____________________638522d0eb6004896040518363ffffffff167c01000000000000000000000000000000000000000000000000000000000281526004018083815260200182600019166000191681526020019250505060006040518083038186803b1580156111a657600080fd5b505af41580156111ba573d6000803e3d6000fd5b505050506040513d6000823e601f3d908101601f1916820160405260c08110156111e357600080fd5b815160208301516040840151606085018051939592949193918301929164010000000081111561121257600080fd5b8201602081018481111561122557600080fd5b815164010000000081118282018710171561123f57600080fd5b5050929190602001805164010000000081111561125b57600080fd5b8201602081018481111561126e57600080fd5b815164010000000081118282018710171561128857600080fd5b505092919060200180516401000000008111156112a457600080fd5b820160208101848111156112b757600080fd5b81516401000000008111828201871017156112d157600080fd5b505092919050505095509550955095509550955091939550919395565b604080517fd8188a400000000000000000000000000000000000000000000000000000000081526000600482018190526024820185905260448201849052915173__KeyHolderLibrary______________________9163d8188a40916064808301926020929190829003018186803b158015610c3457600080fd00a165627a7a72305820c017d0df3a7d1894c9ddabdcfbb1bbfb3f46b863a6af4474fdace67bb789c8620029",
  "deployedBytecode": "0x6080604052600436106100c45763ffffffff7c0100000000000000000000000000000000000000000000000000000000600035041663032c1a8a81146100c957806312aaac70146100f35780631d3812401461012957806321c148f01461015b578063262b54f5146102a05780634eee424a14610308578063747442d314610320578063862642f51461033d5780639010f72614610355578063b1a34e0d1461036d578063b61d27f614610462578063c9100bcb146104d8578063d202158d14610675575b600080fd5b3480156100d557600080fd5b506100e1600435610690565b60408051918252519081900360200190f35b3480156100ff57600080fd5b5061010b600435610736565b60408051938452602084019290925282820152519081900360600190f35b34801561013557600080fd5b506101476004356024356044356107f2565b604080519115158252519081900360200190f35b34801561016757600080fd5b506040805160206004803580820135838102808601850190965280855261029e95369593946024949385019291829185019084908082843750506040805187358901803560208181028481018201909552818452989b9a99890198929750908201955093508392508501908490808284375050604080516020601f89358b018035918201839004830284018301909452808352979a99988101979196509182019450925082915084018382808284375050604080516020601f89358b018035918201839004830284018301909452808352979a999881019791965091820194509250829150840183828082843750506040805187358901803560208181028481018201909552818452989b9a9989019892975090820195509350839250850190849080828437509497506108a89650505050505050565b005b3480156102ac57600080fd5b506102b8600435610adb565b60408051602080825283518183015283519192839290830191858101910280838360005b838110156102f45781810151838201526020016102dc565b505050509050019250505060405180910390f35b34801561031457600080fd5b50610147600435610b3e565b34801561032c57600080fd5b506101476004356024351515610bb8565b34801561034957600080fd5b50610147600435610c67565b34801561036157600080fd5b506102b8600435610cdb565b34801561037957600080fd5b50604080516020601f6064356004818101359283018490048402850184019095528184526100e194803594602480359573ffffffffffffffffffffffffffffffffffffffff60443516953695608494930191819084018382808284375050604080516020601f89358b018035918201839004830284018301909452808352979a99988101979196509182019450925082915084018382808284375050604080516020601f89358b018035918201839004830284018301909452808352979a999881019791965091820194509250829150840183828082843750949750610de29650505050505050565b34801561046e57600080fd5b50604080516020600460443581810135601f81018490048402850184019095528484526100e194823573ffffffffffffffffffffffffffffffffffffffff1694602480359536959460649492019190819084018382808284375094975061100c9650505050505050565b3480156104e457600080fd5b506104f0600435611120565b604051808781526020018681526020018573ffffffffffffffffffffffffffffffffffffffff1673ffffffffffffffffffffffffffffffffffffffff168152602001806020018060200180602001848103845287818151815260200191508051906020019080838360005b8381101561057357818101518382015260200161055b565b50505050905090810190601f1680156105a05780820380516001836020036101000a031916815260200191505b50848103835286518152865160209182019188019080838360005b838110156105d35781810151838201526020016105bb565b50505050905090810190601f1680156106005780820380516001836020036101000a031916815260200191505b50848103825285518152855160209182019187019080838360005b8381101561063357818101518382015260200161061b565b50505050905090810190601f1680156106605780820380516001836020036101000a031916815260200191505b50995050505050505050505060405180910390f35b34801561068157600080fd5b506101476004356024356112ee565b604080517fcf58f45b00000000000000000000000000000000000000000000000000000000815260006004820181905260248201849052915173__KeyHolderLibrary______________________9163cf58f45b916044808301926020929190829003018186803b15801561070457600080fd5b505af4158015610718573d6000803e3d6000fd5b505050506040513d602081101561072e57600080fd5b505192915050565b604080517fb01a9fb30000000000000000000000000000000000000000000000000000000081526000600482018190526024820184905291518291829173__KeyHolderLibrary______________________9163b01a9fb3916044808301926060929190829003018186803b1580156107ae57600080fd5b505af41580156107c2573d6000803e3d6000fd5b505050506040513d60608110156107d857600080fd5b508051602082015160409092015190969195509350915050565b604080517f5d601c3a000000000000000000000000000000000000000000000000000000008152600060048201819052602482018690526044820185905260648201849052915173__KeyHolderLibrary______________________91635d601c3a916084808301926020929190829003018186803b15801561087457600080fd5b505af4158015610888573d6000803e3d6000fd5b505050506040513d602081101561089e57600080fd5b5051949350505050565b73__ClaimHolderLibrary____________________63428e59ee6000600488888888886040518863ffffffff167c010000000000000000000000000000000000000000000000000000000002815260040180888152602001878152602001806020018060200180602001806020018060200186810386528b818151815260200191508051906020019060200280838360005b8381101561095257818101518382015260200161093a565b5050505090500186810385528a818151815260200191508051906020019060200280838360005b83811015610991578181015183820152602001610979565b50505050905001868103845289818151815260200191508051906020019080838360005b838110156109cd5781810151838201526020016109b5565b50505050905090810190601f1680156109fa5780820380516001836020036101000a031916815260200191505b5086810383528851815288516020918201918a019080838360005b83811015610a2d578181015183820152602001610a15565b50505050905090810190601f168015610a5a5780820380516001836020036101000a031916815260200191505b508681038252875181528751602091820191808a01910280838360005b83811015610a8f578181015183820152602001610a77565b505050509050019c5050505050505050505050505060006040518083038186803b158015610abc57600080fd5b505af4158015610ad0573d6000803e3d6000fd5b505050505050505050565b600081815260056020908152604091829020805483518184028101840190945280845260609392830182828015610b3257602002820191906000526020600020905b81548152600190910190602001808311610b1d575b50505050509050919050565b604080517f5c02fae100000000000000000000000000000000000000000000000000000000815260006004828101829052602483015260448201849052915173__ClaimHolderLibrary____________________91635c02fae1916064808301926020929190829003018186803b15801561070457600080fd5b604080517f67d4865f000000000000000000000000000000000000000000000000000000008152600060048201819052602482018590528315156044830152915173__KeyHolderLibrary______________________916367d4865f916064808301926020929190829003018186803b158015610c3457600080fd5b505af4158015610c48573d6000803e3d6000fd5b505050506040513d6020811015610c5e57600080fd5b50519392505050565b604080517f7ab17ba700000000000000000000000000000000000000000000000000000000815260006004820181905260248201849052915173__KeyHolderLibrary______________________91637ab17ba7916044808301926020929190829003018186803b15801561070457600080fd5b606073__KeyHolderLibrary______________________63746199f96000846040518363ffffffff167c0100000000000000000000000000000000000000000000000000000000028152600401808381526020018281526020019250505060006040518083038186803b158015610d5157600080fd5b505af4158015610d65573d6000803e3d6000fd5b505050506040513d6000823e601f3d908101601f191682016040526020811015610d8e57600080fd5b810190808051640100000000811115610da657600080fd5b82016020810184811115610db957600080fd5b8151856020820283011164010000000082111715610dd657600080fd5b50909695505050505050565b600073__ClaimHolderLibrary____________________63bd2d0c28600060048a8a8a8a8a8a6040518963ffffffff167c0100000000000000000000000000000000000000000000000000000000028152600401808981526020018881526020018781526020018681526020018573ffffffffffffffffffffffffffffffffffffffff1673ffffffffffffffffffffffffffffffffffffffff168152602001806020018060200180602001848103845287818151815260200191508051906020019080838360005b83811015610ec2578181015183820152602001610eaa565b50505050905090810190601f168015610eef5780820380516001836020036101000a031916815260200191505b50848103835286518152865160209182019188019080838360005b83811015610f22578181015183820152602001610f0a565b50505050905090810190601f168015610f4f5780820380516001836020036101000a031916815260200191505b50848103825285518152855160209182019187019080838360005b83811015610f82578181015183820152602001610f6a565b50505050905090810190601f168015610faf5780820380516001836020036101000a031916815260200191505b509b50505050505050505050505060206040518083038186803b158015610fd557600080fd5b505af4158015610fe9573d6000803e3d6000fd5b505050506040513d6020811015610fff57600080fd5b5051979650505050505050565b600073__KeyHolderLibrary______________________63e9356c6f60008686866040518563ffffffff167c0100000000000000000000000000000000000000000000000000000000028152600401808581526020018473ffffffffffffffffffffffffffffffffffffffff1673ffffffffffffffffffffffffffffffffffffffff16815260200183815260200180602001828103825283818151815260200191508051906020019080838360005b838110156110d35781810151838201526020016110bb565b50505050905090810190601f1680156111005780820380516001836020036101000a031916815260200191505b509550505050505060206040518083038186803b15801561087457600080fd5b6000806000606080606073__ClaimHolderLibrary____________________638522d0eb6004896040518363ffffffff167c01000000000000000000000000000000000000000000000000000000000281526004018083815260200182600019166000191681526020019250505060006040518083038186803b1580156111a657600080fd5b505af41580156111ba573d6000803e3d6000fd5b505050506040513d6000823e601f3d908101601f1916820160405260c08110156111e357600080fd5b815160208301516040840151606085018051939592949193918301929164010000000081111561121257600080fd5b8201602081018481111561122557600080fd5b815164010000000081118282018710171561123f57600080fd5b5050929190602001805164010000000081111561125b57600080fd5b8201602081018481111561126e57600080fd5b815164010000000081118282018710171561128857600080fd5b505092919060200180516401000000008111156112a457600080fd5b820160208101848111156112b757600080fd5b81516401000000008111828201871017156112d157600080fd5b505092919050505095509550955095509550955091939550919395565b604080517fd8188a400000000000000000000000000000000000000000000000000000000081526000600482018190526024820185905260448201849052915173__KeyHolderLibrary______________________9163d8188a40916064808301926020929190829003018186803b158015610c3457600080fd00a165627a7a72305820c017d0df3a7d1894c9ddabdcfbb1bbfb3f46b863a6af4474fdace67bb789c8620029",
  "source": "pragma solidity ^0.4.23;\r\n\r\nimport './ERC735.sol';\r\nimport './KeyHolder.sol';\r\nimport \"./ClaimHolderLibrary.sol\";\r\n\r\ncontract ClaimHolder is KeyHolder, ERC735 {\r\n\r\n    ClaimHolderLibrary.Claims claims;\r\n\r\n    function addClaim(\r\n        uint256 _claimType,\r\n        uint256 _scheme,\r\n        address _issuer,\r\n        bytes _signature,\r\n        bytes _data,\r\n        string _uri\r\n    )\r\n        public\r\n        returns (bytes32 claimRequestId)\r\n    {\r\n        return ClaimHolderLibrary.addClaim(\r\n            keyHolderData,\r\n            claims,\r\n            _claimType,\r\n            _scheme,\r\n            _issuer,\r\n            _signature,\r\n            _data,\r\n            _uri\r\n        );\r\n    }\r\n\r\n    function addClaims(\r\n        uint256[] _claimType,\r\n        address[] _issuer,\r\n        bytes _signature,\r\n        bytes _data,\r\n        uint256[] _offsets\r\n    )\r\n        public\r\n    {\r\n        ClaimHolderLibrary.addClaims(\r\n            keyHolderData,\r\n            claims,\r\n            _claimType,\r\n            _issuer,\r\n            _signature,\r\n            _data,\r\n            _offsets\r\n        );\r\n    }\r\n\r\n    function removeClaim(bytes32 _claimId) public returns (bool success) {\r\n        return ClaimHolderLibrary.removeClaim(keyHolderData, claims, _claimId);\r\n    }\r\n\r\n    function getClaim(bytes32 _claimId)\r\n        public\r\n        constant\r\n        returns(\r\n            uint256 claimType,\r\n            uint256 scheme,\r\n            address issuer,\r\n            bytes signature,\r\n            bytes data,\r\n            string uri\r\n        )\r\n    {\r\n        return ClaimHolderLibrary.getClaim(claims, _claimId);\r\n    }\r\n\r\n    function getClaimIdsByType(uint256 _claimType)\r\n        public\r\n        constant\r\n        returns(bytes32[] claimIds)\r\n    {\r\n        return claims.byType[_claimType];\r\n    }\r\n}\r\n",
  "sourcePath": "C:\\i\\HT\\drizzleui\\contracts\\identity\\ClaimHolder.sol",
  "compiler": {
    "name": "solc",
    "version": "0.4.24+commit.e67f0147.Emscripten.clang"
  },
  "schemaVersion": "2.0.1",
  "updatedAt": "2018-07-31T21:05:45.203Z"
}