{
  "contractName": "ClaimVerifier",
  "abi": [
    {
      "constant": true,
      "inputs": [],
      "name": "trustedClaimHolder",
      "outputs": [
        {
          "name": "",
          "type": "address"
        }
      ],
      "payable": false,
      "stateMutability": "view",
      "type": "function"
    },
    {
      "inputs": [
        {
          "name": "_trustedClaimHolder",
          "type": "address"
        }
      ],
      "payable": false,
      "stateMutability": "nonpayable",
      "type": "constructor"
    },
    {
      "anonymous": false,
      "inputs": [
        {
          "indexed": false,
          "name": "_identity",
          "type": "address"
        },
        {
          "indexed": false,
          "name": "claimType",
          "type": "uint256"
        }
      ],
      "name": "ClaimValid",
      "type": "event"
    },
    {
      "anonymous": false,
      "inputs": [
        {
          "indexed": false,
          "name": "_identity",
          "type": "address"
        },
        {
          "indexed": false,
          "name": "claimType",
          "type": "uint256"
        }
      ],
      "name": "ClaimInvalid",
      "type": "event"
    },
    {
      "constant": false,
      "inputs": [
        {
          "name": "_identity",
          "type": "address"
        },
        {
          "name": "claimType",
          "type": "uint256"
        }
      ],
      "name": "checkClaim",
      "outputs": [
        {
          "name": "claimValid",
          "type": "bool"
        }
      ],
      "payable": false,
      "stateMutability": "nonpayable",
      "type": "function"
    },
    {
      "constant": true,
      "inputs": [
        {
          "name": "_identity",
          "type": "address"
        },
        {
          "name": "claimType",
          "type": "uint256"
        }
      ],
      "name": "claimIsValid",
      "outputs": [
        {
          "name": "claimValid",
          "type": "bool"
        }
      ],
      "payable": false,
      "stateMutability": "view",
      "type": "function"
    },
    {
      "constant": true,
      "inputs": [
        {
          "name": "sig",
          "type": "bytes"
        },
        {
          "name": "dataHash",
          "type": "bytes32"
        }
      ],
      "name": "getRecoveredAddress",
      "outputs": [
        {
          "name": "addr",
          "type": "address"
        }
      ],
      "payable": false,
      "stateMutability": "pure",
      "type": "function"
    }
  ],
  "bytecode": "0x608060405234801561001057600080fd5b50604051602080610759833981016040525160008054600160a060020a03909216600160a060020a0319909216919091179055610707806100526000396000f3006080604052600436106100615763ffffffff7c01000000000000000000000000000000000000000000000000000000006000350416630382ad26811461006657806336938354146100ab5780639fecd554146100e9578063c3b129e31461011a575b600080fd5b34801561007257600080fd5b5061009773ffffffffffffffffffffffffffffffffffffffff60043516602435610175565b604080519115158252519081900360200190f35b3480156100b757600080fd5b506100c061023a565b6040805173ffffffffffffffffffffffffffffffffffffffff9092168252519081900360200190f35b3480156100f557600080fd5b5061009773ffffffffffffffffffffffffffffffffffffffff60043516602435610256565b34801561012657600080fd5b506040805160206004803580820135601f81018490048402850184019095528484526100c094369492936024939284019190819084018382808284375094975050933594506106209350505050565b60006101818383610256565b156101df576040805173ffffffffffffffffffffffffffffffffffffffff851681526020810184905281517f5637aa6b77cde2de563765b75a65099af73d3bf22cb9d089a64a01777823208e929181900390910190a1506001610234565b6040805173ffffffffffffffffffffffffffffffffffffffff851681526020810184905281517fc1e461cfcaa9ff5efbb053582a325fbfebec1d94ac7e9d9958ee7f74c2b6b558929181900390910190a15060005b92915050565b60005473ffffffffffffffffffffffffffffffffffffffff1681565b60008054604080516c0100000000000000000000000073ffffffffffffffffffffffffffffffffffffffff9384160281526014810185905281519081900360340181207fc9100bcb00000000000000000000000000000000000000000000000000000000825260048201819052915184938493849360609384938692839283928392908f169163c9100bcb91602480820192869290919082900301818387803b15801561030257600080fd5b505af1158015610316573d6000803e3d6000fd5b505050506040513d6000823e601f3d908101601f1916820160405260c081101561033f57600080fd5b815160208301516040840151606085018051939592949193918301929164010000000081111561036e57600080fd5b8201602081018481111561038157600080fd5b815164010000000081118282018710171561039b57600080fd5b505092919060200180516401000000008111156103b757600080fd5b820160208101848111156103ca57600080fd5b81516401000000008111828201871017156103e457600080fd5b5050929190602001805164010000000081111561040057600080fd5b8201602081018481111561041357600080fd5b815164010000000081118282018710171561042d57600080fd5b505092919050505050809a50819b50829c50839d50849e5050505050508c8c87604051808473ffffffffffffffffffffffffffffffffffffffff1673ffffffffffffffffffffffffffffffffffffffff166c0100000000000000000000000002815260140183815260200182805190602001908083835b602083106104c35780518252601f1990920191602091820191016104a4565b5181516000196020949094036101000a93909301928316921916919091179052604080519390910183900383207f19457468657265756d205369676e6564204d6573736167653a0a3332000000008452601c8401819052905192839003603c0190922091995090975061053f94508b9350879250610620915050565b604080516c0100000000000000000000000073ffffffffffffffffffffffffffffffffffffffff8085169190910282528251918290036014018220600080547fd202158d0000000000000000000000000000000000000000000000000000000085526004850183905260036024860152945195975090955092169263d202158d92604480840193602093929083900390910190829087803b1580156105e357600080fd5b505af11580156105f7573d6000803e3d6000fd5b505050506040513d602081101561060d57600080fd5b50519d9c50505050505050505050505050565b60008060008060008651604114151561063c57600094506106d1565b6020870151935060408701519250606087015160001a9150601b8260ff16101561066757601b820191505b60408051600080825260208083018085528a905260ff8616838501526060830188905260808301879052925160019360a0808501949193601f19840193928390039091019190865af11580156106c1573d6000803e3d6000fd5b5050506020604051035190508094505b50505050929150505600a165627a7a72305820d931d3d4de1937f760733ec8f7c7d8f0555d2bb59dbede65bb5e3393f1b29cf40029",
  "source": "pragma solidity ^0.4.23;\r\n\r\nimport './ClaimHolder.sol';\r\n\r\ncontract ClaimVerifier {\r\n\r\n  event ClaimValid(ClaimHolder _identity, uint256 claimType);\r\n  event ClaimInvalid(ClaimHolder _identity, uint256 claimType);\r\n\r\n  ClaimHolder public trustedClaimHolder;\r\n\r\n  constructor(address _trustedClaimHolder) public {\r\n    trustedClaimHolder = ClaimHolder(_trustedClaimHolder);\r\n  }\r\n\r\n  function checkClaim(ClaimHolder _identity, uint256 claimType)\r\n    public\r\n    returns (bool claimValid)\r\n  {\r\n    if (claimIsValid(_identity, claimType)) {\r\n      emit ClaimValid(_identity, claimType);\r\n      return true;\r\n    } else {\r\n      emit ClaimInvalid(_identity, claimType);\r\n      return false;\r\n    }\r\n  }\r\n\r\n  function claimIsValid(ClaimHolder _identity, uint256 claimType)\r\n    public\r\n    constant\r\n    returns (bool claimValid)\r\n  {\r\n    uint256 foundClaimType;\r\n    uint256 scheme;\r\n    address issuer;\r\n    bytes memory sig;\r\n    bytes memory data;\r\n\r\n    // Construct claimId (identifier + claim type)\r\n    bytes32 claimId = keccak256(trustedClaimHolder, claimType);\r\n\r\n    // Fetch claim from user\r\n    ( foundClaimType, scheme, issuer, sig, data, ) = _identity.getClaim(claimId);\r\n\r\n    bytes32 dataHash = keccak256(_identity, claimType, data);\r\n    bytes32 prefixedHash = keccak256(\"\\x19Ethereum Signed Message:\\n32\", dataHash);\r\n\r\n    // Recover address of data signer\r\n    address recovered = getRecoveredAddress(sig, prefixedHash);\r\n\r\n    // Take hash of recovered address\r\n    bytes32 hashedAddr = keccak256(recovered);\r\n\r\n    // Does the trusted identifier have they key which signed the user's claim?\r\n    return trustedClaimHolder.keyHasPurpose(hashedAddr, 3);\r\n  }\r\n\r\n  function getRecoveredAddress(bytes sig, bytes32 dataHash)\r\n      public\r\n      pure\r\n      returns (address addr)\r\n  {\r\n      bytes32 ra;\r\n      bytes32 sa;\r\n      uint8 va;\r\n\r\n      // Check the signature length\r\n      if (sig.length != 65) {\r\n        return (0);\r\n      }\r\n\r\n      // Divide the signature in r, s and v variables\r\n      assembly {\r\n        ra := mload(add(sig, 32))\r\n        sa := mload(add(sig, 64))\r\n        va := byte(0, mload(add(sig, 96)))\r\n      }\r\n\r\n      if (va < 27) {\r\n        va += 27;\r\n      }\r\n\r\n      address recoveredAddress = ecrecover(dataHash, va, ra, sa);\r\n\r\n      return (recoveredAddress);\r\n  }\r\n\r\n}\r\n",
  "sourcePath": "C:\\i\\HT\\drizzleui\\contracts\\identity\\ClaimVerifier.sol",
  "compiler": {
    "name": "solc",
    "version": "0.4.24+commit.e67f0147.Emscripten.clang"
  },
  "schemaVersion": "2.0.1",
  "updatedAt": "2018-07-26T20:43:53.021Z"
}