{
  "contractName": "JobApplicant",
  "abi": [
    {
      "constant": true,
      "inputs": [],
      "name": "applicationTimeout",
      "outputs": [
        {
          "name": "",
          "type": "uint256"
        }
      ],
      "payable": false,
      "stateMutability": "view",
      "type": "function"
    },
    {
      "constant": true,
      "inputs": [],
      "name": "created",
      "outputs": [
        {
          "name": "",
          "type": "uint256"
        }
      ],
      "payable": false,
      "stateMutability": "view",
      "type": "function"
    },
    {
      "constant": true,
      "inputs": [],
      "name": "applicant",
      "outputs": [
        {
          "name": "",
          "type": "address"
        }
      ],
      "payable": false,
      "stateMutability": "view",
      "type": "function"
    },
    {
      "constant": true,
      "inputs": [],
      "name": "listingContract",
      "outputs": [
        {
          "name": "",
          "type": "address"
        }
      ],
      "payable": false,
      "stateMutability": "view",
      "type": "function"
    },
    {
      "inputs": [
        {
          "name": "_listingContractAddress",
          "type": "address"
        },
        {
          "name": "_applicant",
          "type": "address"
        }
      ],
      "payable": false,
      "stateMutability": "nonpayable",
      "type": "constructor"
    },
    {
      "anonymous": false,
      "inputs": [
        {
          "indexed": false,
          "name": "stage",
          "type": "uint8"
        }
      ],
      "name": "JobApplicationChange",
      "type": "event"
    },
    {
      "anonymous": false,
      "inputs": [
        {
          "indexed": false,
          "name": "reviewer",
          "type": "address"
        },
        {
          "indexed": false,
          "name": "reviewee",
          "type": "address"
        },
        {
          "indexed": false,
          "name": "revieweeRole",
          "type": "uint8"
        },
        {
          "indexed": false,
          "name": "rating",
          "type": "uint8"
        },
        {
          "indexed": false,
          "name": "ipfsHash",
          "type": "bytes32"
        }
      ],
      "name": "JobApplicationReview",
      "type": "event"
    },
    {
      "constant": true,
      "inputs": [],
      "name": "data",
      "outputs": [
        {
          "name": "_stage",
          "type": "uint8"
        },
        {
          "name": "_listingContract",
          "type": "address"
        },
        {
          "name": "_applicant",
          "type": "address"
        },
        {
          "name": "_created",
          "type": "uint256"
        },
        {
          "name": "_applicantTimout",
          "type": "uint256"
        }
      ],
      "payable": false,
      "stateMutability": "view",
      "type": "function"
    },
    {
      "constant": false,
      "inputs": [],
      "name": "cancelApplication",
      "outputs": [],
      "payable": false,
      "stateMutability": "nonpayable",
      "type": "function"
    },
    {
      "constant": false,
      "inputs": [],
      "name": "callForInterview",
      "outputs": [],
      "payable": false,
      "stateMutability": "nonpayable",
      "type": "function"
    },
    {
      "constant": true,
      "inputs": [],
      "name": "stage",
      "outputs": [
        {
          "name": "_stage",
          "type": "uint8"
        }
      ],
      "payable": false,
      "stateMutability": "view",
      "type": "function"
    },
    {
      "constant": false,
      "inputs": [],
      "name": "terminateEmployment",
      "outputs": [],
      "payable": false,
      "stateMutability": "nonpayable",
      "type": "function"
    },
    {
      "constant": false,
      "inputs": [],
      "name": "openDispute",
      "outputs": [],
      "payable": false,
      "stateMutability": "nonpayable",
      "type": "function"
    }
  ],
  "bytecode": "0x60806040526000805460ff1916905534801561001a57600080fd5b506040516040806106f7833981016040819052815160209092015160018054600160a060020a031916600160a060020a03808416919091179091556000805461010060a860020a0319166101009286169290920291909117908190554260025590917f6ad037c505eea6fc4312e7006a92c508ba229fdd5aca3a7c821a3ea70f864f2a9160ff1690808260088111156100af57fe5b60ff16815260200191505060405180910390a15050610624806100d36000396000f3006080604052600436106100a35763ffffffff7c0100000000000000000000000000000000000000000000000000000000600035041663038e514f81146100a857806305c180c3146100cf57806308283c0d146100e6578063325a19f1146100fb5780634fd6137c1461011057806373d4a13a14610125578063819a625f1461018757806388e687ea1461019c578063c040e6b8146101cd578063d516532714610206575b600080fd5b3480156100b457600080fd5b506100bd61021b565b60408051918252519081900360200190f35b3480156100db57600080fd5b506100e4610221565b005b3480156100f257600080fd5b506100e461034f565b34801561010757600080fd5b506100bd6103b8565b34801561011c57600080fd5b506100e46103be565b34801561013157600080fd5b5061013a6104b4565b6040518086600881111561014a57fe5b60ff168152600160a060020a0395861660208201529390941660408085019190915260608401929092526080830152519081900360a00192509050f35b34801561019357600080fd5b506100e46104ed565b3480156101a857600080fd5b506101b16105cc565b60408051600160a060020a039092168252519081900360200190f35b3480156101d957600080fd5b506101e26105db565b604051808260088111156101f257fe5b60ff16815260200191505060405180910390f35b34801561021257600080fd5b506101b16105e4565b60035481565b600060019054906101000a9004600160a060020a0316600160a060020a0316638da5cb5b6040518163ffffffff167c0100000000000000000000000000000000000000000000000000000000028152600401602060405180830381600087803b15801561028d57600080fd5b505af11580156102a1573d6000803e3d6000fd5b505050506040513d60208110156102b757600080fd5b5051600160a060020a031633146102cd57600080fd5b60066102d76105db565b60088111156102e257fe5b146102ec57600080fd5b600080546008919060ff19166001835b02179055506000546040517f6ad037c505eea6fc4312e7006a92c508ba229fdd5aca3a7c821a3ea70f864f2a9160ff16908082600881111561033a57fe5b60ff16815260200191505060405180910390a1565b600154600160a060020a0316331461036657600080fd5b60006103706105db565b600881111561037b57fe5b14806103995750600161038c6105db565b600881111561039757fe5b145b15156103a457600080fd5b600080546002919060ff19166001836102fc565b60025481565b600154600160a060020a03163314806104765750600060019054906101000a9004600160a060020a0316600160a060020a0316638da5cb5b6040518163ffffffff167c0100000000000000000000000000000000000000000000000000000000028152600401602060405180830381600087803b15801561043e57600080fd5b505af1158015610452573d6000803e3d6000fd5b505050506040513d602081101561046857600080fd5b5051600160a060020a031633145b151561048157600080fd5b600661048b6105db565b600881111561049657fe5b146104a057600080fd5b600080546007919060ff19166001836102fc565b60008060008060006104c46105db565b6000546001546002549298610100909204600160a060020a039081169850169550909350909150565b600060019054906101000a9004600160a060020a0316600160a060020a0316638da5cb5b6040518163ffffffff167c0100000000000000000000000000000000000000000000000000000000028152600401602060405180830381600087803b15801561055957600080fd5b505af115801561056d573d6000803e3d6000fd5b505050506040513d602081101561058357600080fd5b5051600160a060020a0316331461059957600080fd5b60006105a36105db565b60088111156105ae57fe5b146105b857600080fd5b600080546003919060ff19166001836102fc565b600154600160a060020a031681565b60005460ff1690565b6000546101009004600160a060020a0316815600a165627a7a72305820fc3046dc79cd0e87004ce102d03a4dcd9d42e0bfef34021c7119078180209cc40029",
  "source": "pragma solidity 0.4.24;\r\n\r\n// /// @title JobApplicant\r\n// /// @dev An Application to a Job Listing and its status\r\nimport \"./Listing.sol\";\r\n\r\n\r\ncontract JobApplicant \r\n{\r\n\r\n  /*\r\n  * Events\r\n  */\r\n\r\n    event JobApplicationChange(Stages stage);\r\n    event JobApplicationReview(address reviewer, address reviewee, Roles revieweeRole, uint8 rating, bytes32 ipfsHash);\r\n\r\n    /*\r\n    * Enum\r\n    */\r\n\r\n    enum Stages {\r\n\r\n      // Applicant Status\r\n      AWAITING_INTERVIEW,\t\t\t// Applicant applied for interview and waiting for the interview\r\n      AWAITING_JOBOFFER,\t\t\t// Applicant attended the interview and waiting for the job offer\r\n      CANCEL_APPLICATION,\t\t\t// Applicant cancelled the job application, after applying for the job\r\n\r\n      // Employer Status\r\n      INTERVIEW_PENDING,\t\t\t// Employer reviewed the application and send interview call and waiting for interview acceptance\r\n      JOBOFFER_PENDING,\t\t\t// Employer finished interview and sent job offer and waiting for acceptance from the applicant\r\n      APPLICATION_REJECTED,\t\t// Applicant not eligible for the job\r\n\r\n      EMPLOYEMENT_PERIOD,\t\t\t// Both Employer and Applicant agreed and Job in progress\r\n\r\n      IN_DISPUTE,\t\t\t\t// We are in a dispute between employer and employee on payments    \r\n      EMPLOYEMENT_TERMINATION\t\t// End of Job Contract\r\n\r\n    }\r\n\r\n    enum Roles {\r\n      APPLICANT,\r\n      EMPLOYER\r\n    }\r\n\r\n    /*\r\n    * Storage\r\n    */\r\n\r\n    Stages private internalStage = Stages.AWAITING_INTERVIEW;\r\n    Listing public listingContract; // listing that is being purchased\r\n    address public applicant; // User who is buying. Seller is derived from listing\r\n    uint public created;\r\n    uint public applicationTimeout;\r\n\r\n    /*\r\n    * Modifiers\r\n    */\r\n\r\n    modifier isEmployer() {\r\n        require(msg.sender == listingContract.owner());\r\n        _;\r\n    }\r\n\r\n    modifier isApplicant() {\r\n        require(msg.sender == applicant);\r\n        _;\r\n    }\r\n\r\n    modifier atStage(Stages _stage) {\r\n        require(stage() == _stage);\r\n        _;\r\n    }\r\n\r\n    /*\r\n    * Public functions\r\n    */\r\n\r\n    constructor (\r\n      address _listingContractAddress,\r\n      address _applicant\r\n    )\r\n    public\r\n    {\r\n        applicant = _applicant;\r\n        listingContract = Listing(_listingContractAddress);\r\n        created = now;\r\n        emit JobApplicationChange(internalStage);\r\n    }\r\n\r\n    function data()\r\n    public\r\n    view\r\n    returns (Stages _stage, Listing _listingContract, address _applicant, uint _created, uint _applicantTimout) {\r\n        return (stage(), listingContract, applicant, created, _applicantTimout);\r\n    }\r\n    \r\n\r\n  //////////////////////////////////////////////////////////////////////////////////////////////////////////////\r\n  //\tApplicant cancels the job application\r\n  //////////////////////////////////////////////////////////////////////////////////////////////////////////////\r\n    function cancelApplication()\r\n    public\r\n    {\r\n        // This should be called only by the job listing owner\r\n        require(\r\n            msg.sender == applicant\r\n        );\r\n        \r\n\r\n        // Must be in a valid stage\r\n        require(\r\n            stage() == Stages.AWAITING_INTERVIEW ||\r\n            stage() == Stages.AWAITING_JOBOFFER\r\n        );\r\n\r\n\r\n        internalStage = Stages.CANCEL_APPLICATION;\r\n        emit JobApplicationChange(internalStage);\r\n\r\n    }\r\n\r\n  //////////////////////////////////////////////////////////////////////////////////////////////////////////////\r\n  //\tCall the Applicant for an interview\r\n  //////////////////////////////////////////////////////////////////////////////////////////////////////////////\r\n    function callForInterview()\r\n    public\r\n    {\r\n        // This should be called only by the job listing owner\r\n        require(\r\n            msg.sender == listingContract.owner()\r\n        );\r\n\r\n\r\n        // Must be in a valid stage\r\n        require(\r\n            stage() == Stages.AWAITING_INTERVIEW\r\n        );\r\n\r\n        internalStage = Stages.INTERVIEW_PENDING;\r\n        emit JobApplicationChange(internalStage);\r\n\r\n    }\r\n\r\n  /////////////////////////////////////////////////////////////////////////////////////////////////////////////////////////\r\n  //\t\tThis function returns the current status of the application\r\n  /////////////////////////////////////////////////////////////////////////////////////////////////////////////////////////\r\n    function stage()\r\n    public\r\n    view\r\n    returns (Stages _stage)\r\n    {\r\n        return internalStage;\r\n    }\r\n  //////////////////////////////////////////////////////////////////////////////////////////////////////////////\r\n  //\tTerminate the Job Contract any time\r\n  //////////////////////////////////////////////////////////////////////////////////////////////////////////////\r\n    function terminateEmployment()\r\n    public\r\n    {\r\n      // Must be employee \r\n        require(\r\n            msg.sender == listingContract.owner()\r\n        );\r\n\r\n      // Must be in a valid stage\r\n        require(\r\n            stage() == Stages.EMPLOYEMENT_PERIOD\r\n        );\r\n\r\n        internalStage = Stages.EMPLOYEMENT_TERMINATION;\r\n        emit JobApplicationChange(internalStage);\r\n\r\n      // TODO: Create a dispute contract?\r\n      // Right now there's no way to exit this state.\r\n    }  \r\n  //////////////////////////////////////////////////////////////////////////////////////////////////////////////\r\n  //\tProblem between employer and employee either open a dispute\r\n  //////////////////////////////////////////////////////////////////////////////////////////////////////////////\r\n    function openDispute()\r\n    public\r\n    {\r\n      // Must be employee or employer\r\n        require(\r\n            msg.sender == applicant ||\r\n            msg.sender == listingContract.owner()\r\n        );\r\n\r\n        // Must be in a valid stage\r\n        require(\r\n            stage() == Stages.EMPLOYEMENT_PERIOD\r\n        );\r\n\r\n        internalStage = Stages.IN_DISPUTE;\r\n        emit JobApplicationChange(internalStage);\r\n\r\n      // TODO: Create a dispute contract?\r\n      // Right now there's no way to exit this state.\r\n    }  \r\n//////////////////////////////////////////////////////////////////////////////////////////////////////////////  \r\n}",
  "sourcePath": "C:\\i\\HT\\drizzleui\\contracts\\JobApplicant.sol",
  "compiler": {
    "name": "solc",
    "version": "0.4.24+commit.e67f0147.Emscripten.clang"
  },
  "schemaVersion": "2.0.1",
  "updatedAt": "2018-07-27T21:37:56.673Z"
}