{
  "contractName": "KeyHolder",
  "abi": [
    {
      "inputs": [],
      "payable": false,
      "stateMutability": "nonpayable",
      "type": "constructor"
    },
    {
      "anonymous": false,
      "inputs": [
        {
          "indexed": true,
          "name": "key",
          "type": "bytes32"
        },
        {
          "indexed": true,
          "name": "purpose",
          "type": "uint256"
        },
        {
          "indexed": true,
          "name": "keyType",
          "type": "uint256"
        }
      ],
      "name": "KeyAdded",
      "type": "event"
    },
    {
      "anonymous": false,
      "inputs": [
        {
          "indexed": true,
          "name": "key",
          "type": "bytes32"
        },
        {
          "indexed": true,
          "name": "purpose",
          "type": "uint256"
        },
        {
          "indexed": true,
          "name": "keyType",
          "type": "uint256"
        }
      ],
      "name": "KeyRemoved",
      "type": "event"
    },
    {
      "anonymous": false,
      "inputs": [
        {
          "indexed": true,
          "name": "executionId",
          "type": "uint256"
        },
        {
          "indexed": true,
          "name": "to",
          "type": "address"
        },
        {
          "indexed": true,
          "name": "value",
          "type": "uint256"
        },
        {
          "indexed": false,
          "name": "data",
          "type": "bytes"
        }
      ],
      "name": "ExecutionRequested",
      "type": "event"
    },
    {
      "anonymous": false,
      "inputs": [
        {
          "indexed": true,
          "name": "executionId",
          "type": "uint256"
        },
        {
          "indexed": true,
          "name": "to",
          "type": "address"
        },
        {
          "indexed": true,
          "name": "value",
          "type": "uint256"
        },
        {
          "indexed": false,
          "name": "data",
          "type": "bytes"
        }
      ],
      "name": "Executed",
      "type": "event"
    },
    {
      "anonymous": false,
      "inputs": [
        {
          "indexed": true,
          "name": "executionId",
          "type": "uint256"
        },
        {
          "indexed": false,
          "name": "approved",
          "type": "bool"
        }
      ],
      "name": "Approved",
      "type": "event"
    },
    {
      "constant": true,
      "inputs": [
        {
          "name": "_key",
          "type": "bytes32"
        }
      ],
      "name": "getKey",
      "outputs": [
        {
          "name": "purpose",
          "type": "uint256"
        },
        {
          "name": "keyType",
          "type": "uint256"
        },
        {
          "name": "key",
          "type": "bytes32"
        }
      ],
      "payable": false,
      "stateMutability": "view",
      "type": "function"
    },
    {
      "constant": true,
      "inputs": [
        {
          "name": "_key",
          "type": "bytes32"
        }
      ],
      "name": "getKeyPurpose",
      "outputs": [
        {
          "name": "purpose",
          "type": "uint256"
        }
      ],
      "payable": false,
      "stateMutability": "view",
      "type": "function"
    },
    {
      "constant": true,
      "inputs": [
        {
          "name": "_purpose",
          "type": "uint256"
        }
      ],
      "name": "getKeysByPurpose",
      "outputs": [
        {
          "name": "_keys",
          "type": "bytes32[]"
        }
      ],
      "payable": false,
      "stateMutability": "view",
      "type": "function"
    },
    {
      "constant": false,
      "inputs": [
        {
          "name": "_key",
          "type": "bytes32"
        },
        {
          "name": "_purpose",
          "type": "uint256"
        },
        {
          "name": "_type",
          "type": "uint256"
        }
      ],
      "name": "addKey",
      "outputs": [
        {
          "name": "success",
          "type": "bool"
        }
      ],
      "payable": false,
      "stateMutability": "nonpayable",
      "type": "function"
    },
    {
      "constant": false,
      "inputs": [
        {
          "name": "_id",
          "type": "uint256"
        },
        {
          "name": "_approve",
          "type": "bool"
        }
      ],
      "name": "approve",
      "outputs": [
        {
          "name": "success",
          "type": "bool"
        }
      ],
      "payable": false,
      "stateMutability": "nonpayable",
      "type": "function"
    },
    {
      "constant": false,
      "inputs": [
        {
          "name": "_to",
          "type": "address"
        },
        {
          "name": "_value",
          "type": "uint256"
        },
        {
          "name": "_data",
          "type": "bytes"
        }
      ],
      "name": "execute",
      "outputs": [
        {
          "name": "executionId",
          "type": "uint256"
        }
      ],
      "payable": false,
      "stateMutability": "nonpayable",
      "type": "function"
    },
    {
      "constant": false,
      "inputs": [
        {
          "name": "_key",
          "type": "bytes32"
        }
      ],
      "name": "removeKey",
      "outputs": [
        {
          "name": "success",
          "type": "bool"
        }
      ],
      "payable": false,
      "stateMutability": "nonpayable",
      "type": "function"
    },
    {
      "constant": true,
      "inputs": [
        {
          "name": "_key",
          "type": "bytes32"
        },
        {
          "name": "_purpose",
          "type": "uint256"
        }
      ],
      "name": "keyHasPurpose",
      "outputs": [
        {
          "name": "result",
          "type": "bool"
        }
      ],
      "payable": false,
      "stateMutability": "view",
      "type": "function"
    }
  ],
  "bytecode": "0x608060405234801561001057600080fd5b5073__KeyHolderLibrary______________________6330864be560006040518263ffffffff167c01000000000000000000000000000000000000000000000000000000000281526004018082815260200191505060006040518083038186803b15801561007d57600080fd5b505af4158015610091573d6000803e3d6000fd5b5050505061084f806100a46000396000f30060806040526004361061008d5763ffffffff7c0100000000000000000000000000000000000000000000000000000000600035041663032c1a8a811461009257806312aaac70146100bc5780631d381240146100f2578063747442d314610124578063862642f5146101415780639010f72614610159578063b61d27f6146101c1578063d202158d14610237575b600080fd5b34801561009e57600080fd5b506100aa600435610252565b60408051918252519081900360200190f35b3480156100c857600080fd5b506100d46004356102f8565b60408051938452602084019290925282820152519081900360600190f35b3480156100fe57600080fd5b506101106004356024356044356103b4565b604080519115158252519081900360200190f35b34801561013057600080fd5b50610110600435602435151561046a565b34801561014d57600080fd5b50610110600435610519565b34801561016557600080fd5b5061017160043561058d565b60408051602080825283518183015283519192839290830191858101910280838360005b838110156101ad578181015183820152602001610195565b505050509050019250505060405180910390f35b3480156101cd57600080fd5b50604080516020600460443581810135601f81018490048402850184019095528484526100aa94823573ffffffffffffffffffffffffffffffffffffffff169460248035953695946064949201919081908401838280828437509497506106949650505050505050565b34801561024357600080fd5b506101106004356024356107a8565b604080517fcf58f45b00000000000000000000000000000000000000000000000000000000815260006004820181905260248201849052915173__KeyHolderLibrary______________________9163cf58f45b916044808301926020929190829003018186803b1580156102c657600080fd5b505af41580156102da573d6000803e3d6000fd5b505050506040513d60208110156102f057600080fd5b505192915050565b604080517fb01a9fb30000000000000000000000000000000000000000000000000000000081526000600482018190526024820184905291518291829173__KeyHolderLibrary______________________9163b01a9fb3916044808301926060929190829003018186803b15801561037057600080fd5b505af4158015610384573d6000803e3d6000fd5b505050506040513d606081101561039a57600080fd5b508051602082015160409092015190969195509350915050565b604080517f5d601c3a000000000000000000000000000000000000000000000000000000008152600060048201819052602482018690526044820185905260648201849052915173__KeyHolderLibrary______________________91635d601c3a916084808301926020929190829003018186803b15801561043657600080fd5b505af415801561044a573d6000803e3d6000fd5b505050506040513d602081101561046057600080fd5b5051949350505050565b604080517f67d4865f000000000000000000000000000000000000000000000000000000008152600060048201819052602482018590528315156044830152915173__KeyHolderLibrary______________________916367d4865f916064808301926020929190829003018186803b1580156104e657600080fd5b505af41580156104fa573d6000803e3d6000fd5b505050506040513d602081101561051057600080fd5b50519392505050565b604080517f7ab17ba700000000000000000000000000000000000000000000000000000000815260006004820181905260248201849052915173__KeyHolderLibrary______________________91637ab17ba7916044808301926020929190829003018186803b1580156102c657600080fd5b606073__KeyHolderLibrary______________________63746199f96000846040518363ffffffff167c0100000000000000000000000000000000000000000000000000000000028152600401808381526020018281526020019250505060006040518083038186803b15801561060357600080fd5b505af4158015610617573d6000803e3d6000fd5b505050506040513d6000823e601f3d908101601f19168201604052602081101561064057600080fd5b81019080805164010000000081111561065857600080fd5b8201602081018481111561066b57600080fd5b815185602082028301116401000000008211171561068857600080fd5b50909695505050505050565b600073__KeyHolderLibrary______________________63e9356c6f60008686866040518563ffffffff167c0100000000000000000000000000000000000000000000000000000000028152600401808581526020018473ffffffffffffffffffffffffffffffffffffffff1673ffffffffffffffffffffffffffffffffffffffff16815260200183815260200180602001828103825283818151815260200191508051906020019080838360005b8381101561075b578181015183820152602001610743565b50505050905090810190601f1680156107885780820380516001836020036101000a031916815260200191505b509550505050505060206040518083038186803b15801561043657600080fd5b604080517fd8188a400000000000000000000000000000000000000000000000000000000081526000600482018190526024820185905260448201849052915173__KeyHolderLibrary______________________9163d8188a40916064808301926020929190829003018186803b1580156104e657600080fd00a165627a7a72305820821a73eaca4bb3476f02c59de3c8e9bf197dd7fa0e266b5624c43fc31099cfb10029",
  "deployedBytecode": "0x60806040526004361061008d5763ffffffff7c0100000000000000000000000000000000000000000000000000000000600035041663032c1a8a811461009257806312aaac70146100bc5780631d381240146100f2578063747442d314610124578063862642f5146101415780639010f72614610159578063b61d27f6146101c1578063d202158d14610237575b600080fd5b34801561009e57600080fd5b506100aa600435610252565b60408051918252519081900360200190f35b3480156100c857600080fd5b506100d46004356102f8565b60408051938452602084019290925282820152519081900360600190f35b3480156100fe57600080fd5b506101106004356024356044356103b4565b604080519115158252519081900360200190f35b34801561013057600080fd5b50610110600435602435151561046a565b34801561014d57600080fd5b50610110600435610519565b34801561016557600080fd5b5061017160043561058d565b60408051602080825283518183015283519192839290830191858101910280838360005b838110156101ad578181015183820152602001610195565b505050509050019250505060405180910390f35b3480156101cd57600080fd5b50604080516020600460443581810135601f81018490048402850184019095528484526100aa94823573ffffffffffffffffffffffffffffffffffffffff169460248035953695946064949201919081908401838280828437509497506106949650505050505050565b34801561024357600080fd5b506101106004356024356107a8565b604080517fcf58f45b00000000000000000000000000000000000000000000000000000000815260006004820181905260248201849052915173__KeyHolderLibrary______________________9163cf58f45b916044808301926020929190829003018186803b1580156102c657600080fd5b505af41580156102da573d6000803e3d6000fd5b505050506040513d60208110156102f057600080fd5b505192915050565b604080517fb01a9fb30000000000000000000000000000000000000000000000000000000081526000600482018190526024820184905291518291829173__KeyHolderLibrary______________________9163b01a9fb3916044808301926060929190829003018186803b15801561037057600080fd5b505af4158015610384573d6000803e3d6000fd5b505050506040513d606081101561039a57600080fd5b508051602082015160409092015190969195509350915050565b604080517f5d601c3a000000000000000000000000000000000000000000000000000000008152600060048201819052602482018690526044820185905260648201849052915173__KeyHolderLibrary______________________91635d601c3a916084808301926020929190829003018186803b15801561043657600080fd5b505af415801561044a573d6000803e3d6000fd5b505050506040513d602081101561046057600080fd5b5051949350505050565b604080517f67d4865f000000000000000000000000000000000000000000000000000000008152600060048201819052602482018590528315156044830152915173__KeyHolderLibrary______________________916367d4865f916064808301926020929190829003018186803b1580156104e657600080fd5b505af41580156104fa573d6000803e3d6000fd5b505050506040513d602081101561051057600080fd5b50519392505050565b604080517f7ab17ba700000000000000000000000000000000000000000000000000000000815260006004820181905260248201849052915173__KeyHolderLibrary______________________91637ab17ba7916044808301926020929190829003018186803b1580156102c657600080fd5b606073__KeyHolderLibrary______________________63746199f96000846040518363ffffffff167c0100000000000000000000000000000000000000000000000000000000028152600401808381526020018281526020019250505060006040518083038186803b15801561060357600080fd5b505af4158015610617573d6000803e3d6000fd5b505050506040513d6000823e601f3d908101601f19168201604052602081101561064057600080fd5b81019080805164010000000081111561065857600080fd5b8201602081018481111561066b57600080fd5b815185602082028301116401000000008211171561068857600080fd5b50909695505050505050565b600073__KeyHolderLibrary______________________63e9356c6f60008686866040518563ffffffff167c0100000000000000000000000000000000000000000000000000000000028152600401808581526020018473ffffffffffffffffffffffffffffffffffffffff1673ffffffffffffffffffffffffffffffffffffffff16815260200183815260200180602001828103825283818151815260200191508051906020019080838360005b8381101561075b578181015183820152602001610743565b50505050905090810190601f1680156107885780820380516001836020036101000a031916815260200191505b509550505050505060206040518083038186803b15801561043657600080fd5b604080517fd8188a400000000000000000000000000000000000000000000000000000000081526000600482018190526024820185905260448201849052915173__KeyHolderLibrary______________________9163d8188a40916064808301926020929190829003018186803b1580156104e657600080fd00a165627a7a72305820821a73eaca4bb3476f02c59de3c8e9bf197dd7fa0e266b5624c43fc31099cfb10029",
  "source": "pragma solidity ^0.4.23;\r\n\r\nimport './ERC725.sol';\r\nimport './KeyHolderLibrary.sol';\r\n\r\ncontract KeyHolder is ERC725 {\r\n    KeyHolderLibrary.KeyHolderData keyHolderData;\r\n\r\n    constructor() public {\r\n        KeyHolderLibrary.init(keyHolderData);\r\n    }\r\n\r\n    function getKey(bytes32 _key)\r\n        public\r\n        view\r\n        returns(uint256 purpose, uint256 keyType, bytes32 key)\r\n    {\r\n        return KeyHolderLibrary.getKey(keyHolderData, _key);\r\n    }\r\n\r\n    function getKeyPurpose(bytes32 _key)\r\n        public\r\n        view\r\n        returns(uint256 purpose)\r\n    {\r\n        return KeyHolderLibrary.getKeyPurpose(keyHolderData, _key);\r\n    }\r\n\r\n    function getKeysByPurpose(uint256 _purpose)\r\n        public\r\n        view\r\n        returns(bytes32[] _keys)\r\n    {\r\n        return KeyHolderLibrary.getKeysByPurpose(keyHolderData, _purpose);\r\n    }\r\n\r\n    function addKey(bytes32 _key, uint256 _purpose, uint256 _type)\r\n        public\r\n        returns (bool success)\r\n    {\r\n        return KeyHolderLibrary.addKey(keyHolderData, _key, _purpose, _type);\r\n    }\r\n\r\n    function approve(uint256 _id, bool _approve)\r\n        public\r\n        returns (bool success)\r\n    {\r\n        return KeyHolderLibrary.approve(keyHolderData, _id, _approve);\r\n    }\r\n\r\n    function execute(address _to, uint256 _value, bytes _data)\r\n        public\r\n        returns (uint256 executionId)\r\n    {\r\n        return KeyHolderLibrary.execute(keyHolderData, _to, _value, _data);\r\n    }\r\n\r\n    function removeKey(bytes32 _key)\r\n        public\r\n        returns (bool success)\r\n    {\r\n        return KeyHolderLibrary.removeKey(keyHolderData, _key);\r\n    }\r\n\r\n    function keyHasPurpose(bytes32 _key, uint256 _purpose)\r\n        public\r\n        view\r\n        returns(bool result)\r\n    {\r\n        return KeyHolderLibrary.keyHasPurpose(keyHolderData, _key, _purpose);\r\n    }\r\n\r\n}\r\n",
  "sourcePath": "C:\\i\\HT\\drizzleui\\contracts\\identity\\KeyHolder.sol",
  "compiler": {
    "name": "solc",
    "version": "0.4.24+commit.e67f0147.Emscripten.clang"
  },
  "schemaVersion": "2.0.1",
  "updatedAt": "2018-07-31T21:05:45.223Z"
}