{
  "contractName": "KeyHolderLibrary",
  "abi": [
    {
      "anonymous": false,
      "inputs": [
        {
          "indexed": true,
          "name": "key",
          "type": "bytes32"
        },
        {
          "indexed": true,
          "name": "purpose",
          "type": "uint256"
        },
        {
          "indexed": true,
          "name": "keyType",
          "type": "uint256"
        }
      ],
      "name": "KeyAdded",
      "type": "event"
    },
    {
      "anonymous": false,
      "inputs": [
        {
          "indexed": true,
          "name": "key",
          "type": "bytes32"
        },
        {
          "indexed": true,
          "name": "purpose",
          "type": "uint256"
        },
        {
          "indexed": true,
          "name": "keyType",
          "type": "uint256"
        }
      ],
      "name": "KeyRemoved",
      "type": "event"
    },
    {
      "anonymous": false,
      "inputs": [
        {
          "indexed": true,
          "name": "executionId",
          "type": "uint256"
        },
        {
          "indexed": true,
          "name": "to",
          "type": "address"
        },
        {
          "indexed": true,
          "name": "value",
          "type": "uint256"
        },
        {
          "indexed": false,
          "name": "data",
          "type": "bytes"
        }
      ],
      "name": "ExecutionRequested",
      "type": "event"
    },
    {
      "anonymous": false,
      "inputs": [
        {
          "indexed": true,
          "name": "executionId",
          "type": "uint256"
        },
        {
          "indexed": true,
          "name": "to",
          "type": "address"
        },
        {
          "indexed": true,
          "name": "value",
          "type": "uint256"
        },
        {
          "indexed": false,
          "name": "data",
          "type": "bytes"
        }
      ],
      "name": "ExecutionFailed",
      "type": "event"
    },
    {
      "anonymous": false,
      "inputs": [
        {
          "indexed": true,
          "name": "executionId",
          "type": "uint256"
        },
        {
          "indexed": true,
          "name": "to",
          "type": "address"
        },
        {
          "indexed": true,
          "name": "value",
          "type": "uint256"
        },
        {
          "indexed": false,
          "name": "data",
          "type": "bytes"
        }
      ],
      "name": "Executed",
      "type": "event"
    },
    {
      "anonymous": false,
      "inputs": [
        {
          "indexed": true,
          "name": "executionId",
          "type": "uint256"
        },
        {
          "indexed": false,
          "name": "approved",
          "type": "bool"
        }
      ],
      "name": "Approved",
      "type": "event"
    },
    {
      "constant": false,
      "inputs": [
        {
          "name": "_keyHolderData",
          "type": "KeyHolderLibrary.KeyHolderData storage"
        }
      ],
      "name": "init",
      "outputs": [],
      "payable": false,
      "stateMutability": "nonpayable",
      "type": "function"
    },
    {
      "constant": true,
      "inputs": [
        {
          "name": "_keyHolderData",
          "type": "KeyHolderLibrary.KeyHolderData storage"
        },
        {
          "name": "_key",
          "type": "bytes32"
        }
      ],
      "name": "getKey",
      "outputs": [
        {
          "name": "purpose",
          "type": "uint256"
        },
        {
          "name": "keyType",
          "type": "uint256"
        },
        {
          "name": "key",
          "type": "bytes32"
        }
      ],
      "payable": false,
      "stateMutability": "view",
      "type": "function"
    },
    {
      "constant": true,
      "inputs": [
        {
          "name": "_keyHolderData",
          "type": "KeyHolderLibrary.KeyHolderData storage"
        },
        {
          "name": "_key",
          "type": "bytes32"
        }
      ],
      "name": "getKeyPurpose",
      "outputs": [
        {
          "name": "purpose",
          "type": "uint256"
        }
      ],
      "payable": false,
      "stateMutability": "view",
      "type": "function"
    },
    {
      "constant": true,
      "inputs": [
        {
          "name": "_keyHolderData",
          "type": "KeyHolderLibrary.KeyHolderData storage"
        },
        {
          "name": "_purpose",
          "type": "uint256"
        }
      ],
      "name": "getKeysByPurpose",
      "outputs": [
        {
          "name": "_keys",
          "type": "bytes32[]"
        }
      ],
      "payable": false,
      "stateMutability": "view",
      "type": "function"
    },
    {
      "constant": false,
      "inputs": [
        {
          "name": "_keyHolderData",
          "type": "KeyHolderLibrary.KeyHolderData storage"
        },
        {
          "name": "_key",
          "type": "bytes32"
        },
        {
          "name": "_purpose",
          "type": "uint256"
        },
        {
          "name": "_type",
          "type": "uint256"
        }
      ],
      "name": "addKey",
      "outputs": [
        {
          "name": "success",
          "type": "bool"
        }
      ],
      "payable": false,
      "stateMutability": "nonpayable",
      "type": "function"
    },
    {
      "constant": false,
      "inputs": [
        {
          "name": "_keyHolderData",
          "type": "KeyHolderLibrary.KeyHolderData storage"
        },
        {
          "name": "_id",
          "type": "uint256"
        },
        {
          "name": "_approve",
          "type": "bool"
        }
      ],
      "name": "approve",
      "outputs": [
        {
          "name": "success",
          "type": "bool"
        }
      ],
      "payable": false,
      "stateMutability": "nonpayable",
      "type": "function"
    },
    {
      "constant": false,
      "inputs": [
        {
          "name": "_keyHolderData",
          "type": "KeyHolderLibrary.KeyHolderData storage"
        },
        {
          "name": "_to",
          "type": "address"
        },
        {
          "name": "_value",
          "type": "uint256"
        },
        {
          "name": "_data",
          "type": "bytes"
        }
      ],
      "name": "execute",
      "outputs": [
        {
          "name": "executionId",
          "type": "uint256"
        }
      ],
      "payable": false,
      "stateMutability": "nonpayable",
      "type": "function"
    },
    {
      "constant": false,
      "inputs": [
        {
          "name": "_keyHolderData",
          "type": "KeyHolderLibrary.KeyHolderData storage"
        },
        {
          "name": "_key",
          "type": "bytes32"
        }
      ],
      "name": "removeKey",
      "outputs": [
        {
          "name": "success",
          "type": "bool"
        }
      ],
      "payable": false,
      "stateMutability": "nonpayable",
      "type": "function"
    },
    {
      "constant": true,
      "inputs": [
        {
          "name": "_keyHolderData",
          "type": "KeyHolderLibrary.KeyHolderData storage"
        },
        {
          "name": "_key",
          "type": "bytes32"
        },
        {
          "name": "_purpose",
          "type": "uint256"
        }
      ],
      "name": "keyHasPurpose",
      "outputs": [
        {
          "name": "result",
          "type": "bool"
        }
      ],
      "payable": false,
      "stateMutability": "view",
      "type": "function"
    }
  ],
  "bytecode": "0x610d1e610030600b82828239805160001a6073146000811461002057610022565bfe5b5030600052607381538281f30073000000000000000000000000000000000000000030146080604052600436106100af5763ffffffff7c010000000000000000000000000000000000000000000000000000000060003504166330864be581146100b45780635d601c3a146100ce57806367d4865f14610103578063746199f9146101235780637ab17ba714610181578063b01a9fb31461019c578063cf58f45b146101c8578063d8188a40146101e8578063e9356c6f146101f9575b600080fd5b8180156100c057600080fd5b506100cc600435610275565b005b8180156100da57600080fd5b506100ef600435602435604435606435610306565b604080519115158252519081900360200190f35b81801561010f57600080fd5b506100ef60043560243560443515156104c6565b610131600435602435610850565b60408051602080825283518183015283519192839290830191858101910280838360005b8381101561016d578181015183820152602001610155565b505050509050019250505060405180910390f35b81801561018d57600080fd5b506100ef6004356024356108b6565b6101aa60043560243561099e565b60408051938452602084019290925282820152519081900360600190f35b6101d66004356024356109c2565b60408051918252519081900360200190f35b6100ef6004356024356044356109d8565b81801561020557600080fd5b50604080516020601f6064356004818101359283018490048402850184019095528184526101d69480359473ffffffffffffffffffffffffffffffffffffffff6024803591909116956044359536956084949301918190840183828082843750949750610a1d9650505050505050565b604080516c01000000000000000000000000330281528151908190036014018120600081815260018086016020818152868420600280820187905584825581850185905584865289018252968420805480850182559085528185200185905584845252935491939284917f480000bb1edad8ca1470381cc334b1917fbd51c6531f3a623ea8e0ec7e38a6e991a45050565b600083815260018501602052604081206002015484141561038857604080517f08c379a000000000000000000000000000000000000000000000000000000000815260206004820152601260248201527f4b657920616c7265616479206578697374730000000000000000000000000000604482015290519081900360640190fd5b33301461045057604080516c010000000000000000000000003302815290519081900360140190206103bd90869060016109d8565b151561045057604080517f08c379a000000000000000000000000000000000000000000000000000000000815260206004820152602360248201527f53656e64657220646f6573206e6f742068617665206d616e6167656d656e742060448201527f6b65790000000000000000000000000000000000000000000000000000000000606482015290519081900360840190fd5b600084815260018087016020908152604080842060028082018a905588825590840187905587855289018252808420805493840181558452908320909101869055518391859187917f480000bb1edad8ca1470381cc334b1917fbd51c6531f3a623ea8e0ec7e38a6e991a4506001949350505050565b604080516c010000000000000000000000003302815290519081900360140190206000906104f790859060026109d8565b151561056457604080517f08c379a000000000000000000000000000000000000000000000000000000000815260206004820152601f60248201527f53656e64657220646f6573206e6f74206861766520616374696f6e206b657900604482015290519081900360640190fd5b604080518315158152905184917fb3932da477fe5d6c8ff2eafef050c0f3a1af18fc07121001482600f36f3715d8919081900360200190a26001821515141561082a57600083815260038086016020526040808320918201805460ff19166001908117909155825491516002938401805473ffffffffffffffffffffffffffffffffffffffff9094169590949093919283928692600019928216156101000292909201160480156106565780601f1061062b57610100808354040283529160200191610656565b820191906000526020600020905b81548152906001019060200180831161063957829003601f168201915b50508260ff168152602001925050506000604051808303816000865af19150509050801561077b57600083815260038581016020908152604092839020918201805461010061ff0019909116811790915560018084015484548651858152600296870180549485161590950260001901909316959095049382018490529473ffffffffffffffffffffffffffffffffffffffff9094169388937f1f920dbda597d7bf95035464170fa58d0a4b57f13a1c315ace6793b9f63688b8939291829190820190849080156107685780601f1061073d57610100808354040283529160200191610768565b820191906000526020600020905b81548152906001019060200180831161074b57829003601f168201915b50509250505060405180910390a4610849565b6000838152600385016020908152604091829020600180820154825485518581526002948501805460001995811615610100029590950190941694909404948401859052909473ffffffffffffffffffffffffffffffffffffffff9091169388937fe10c49d9f7c71da23262367013434763cfdb2332267641728d25cd712c5c6a68939290918291820190849080156107685780601f1061073d57610100808354040283529160200191610768565b60008381526003808601602052604090912001805460ff191690555060015b9392505050565b60008181526002830160209081526040918290208054835181840281018401909452808452606093928301828280156108a957602002820191906000526020600020905b81548152600190910190602001808311610894575b5050505050905092915050565b6000818152600183016020526040812060020154821461093757604080517f08c379a000000000000000000000000000000000000000000000000000000000815260206004820152600b60248201527f4e6f2073756368206b6579000000000000000000000000000000000000000000604482015290519081900360640190fd5b600082815260018085016020526040808320918201548254600290930154915190937f585a4aef50f8267a92b32412b331b20f7f8b96f2245b253b9cc50dcc621d339791a45060009081526001918201602052604081208181558083018290556002015590565b60009081526001918201602052604090208054918101546002909101549192909190565b6000908152600191909101602052604090205490565b6000828152600184016020526040812060020154819015156109fd5760009150610a15565b50506000828152600184016020526040902054811015805b509392505050565b835460009081526003808601602052604082200154610100900460ff1615610aa657604080517f08c379a000000000000000000000000000000000000000000000000000000000815260206004820152601060248201527f416c726561647920657865637574656400000000000000000000000000000000604482015290519081900360640190fd5b845460009081526003860160209081526040808320805473ffffffffffffffffffffffffffffffffffffffff191673ffffffffffffffffffffffffffffffffffffffff891617905587548352808320600101869055875483529091208351610b1692600290920191850190610c57565b50828473ffffffffffffffffffffffffffffffffffffffff1686600001547f8afcfabcb00e47a53a8fc3e9f23ff47ee1926194bb1350dd007c50b412a6cee8856040518080602001828103825283818151815260200191508051906020019080838360005b83811015610b93578181015183820152602001610b7b565b50505050905090810190601f168015610bc05780820380516001836020036101000a031916815260200191505b509250505060405180910390a4604080516c01000000000000000000000000330281529051908190036014019020610bfb90869060016109d8565b80610c2f5750604080516c01000000000000000000000000330281529051908190036014019020610c2f90869060026109d8565b15610c4657610c4485866000015460016104c6565b505b508354600181018555949350505050565b828054600181600116156101000203166002900490600052602060002090601f016020900481019282601f10610c9857805160ff1916838001178555610cc5565b82800160010185558215610cc5579182015b82811115610cc5578251825591602001919060010190610caa565b50610cd1929150610cd5565b5090565b610cef91905b80821115610cd15760008155600101610cdb565b905600a165627a7a7230582001a0ab46b58834ed4451df27411427f1bc885ec26f505b74cec12c2f505001520029",
  "source": "pragma solidity ^0.4.23;\r\n\r\nlibrary KeyHolderLibrary {\r\n  event KeyAdded(bytes32 indexed key, uint256 indexed purpose, uint256 indexed keyType);\r\n  event KeyRemoved(bytes32 indexed key, uint256 indexed purpose, uint256 indexed keyType);\r\n  event ExecutionRequested(uint256 indexed executionId, address indexed to, uint256 indexed value, bytes data);\r\n  event ExecutionFailed(uint256 indexed executionId, address indexed to, uint256 indexed value, bytes data);\r\n  event Executed(uint256 indexed executionId, address indexed to, uint256 indexed value, bytes data);\r\n  event Approved(uint256 indexed executionId, bool approved);\r\n\r\n  struct Key {\r\n      uint256 purpose; //e.g., MANAGEMENT_KEY = 1, ACTION_KEY = 2, etc.\r\n      uint256 keyType; // e.g. 1 = ECDSA, 2 = RSA, etc.\r\n      bytes32 key;\r\n  }\r\n\r\n  struct KeyHolderData {\r\n      uint256 executionNonce;\r\n      mapping (bytes32 => Key) keys;\r\n      mapping (uint256 => bytes32[]) keysByPurpose;\r\n      mapping (uint256 => Execution) executions;\r\n  }\r\n\r\n  struct Execution {\r\n      address to;\r\n      uint256 value;\r\n      bytes data;\r\n      bool approved;\r\n      bool executed;\r\n  }\r\n\r\n  function init(KeyHolderData storage _keyHolderData)\r\n      public\r\n  {\r\n      bytes32 _key = keccak256(msg.sender);\r\n      _keyHolderData.keys[_key].key = _key;\r\n      _keyHolderData.keys[_key].purpose = 1;\r\n      _keyHolderData.keys[_key].keyType = 1;\r\n      _keyHolderData.keysByPurpose[1].push(_key);\r\n      emit KeyAdded(_key, _keyHolderData.keys[_key].purpose, 1);\r\n  }\r\n\r\n  function getKey(KeyHolderData storage _keyHolderData, bytes32 _key)\r\n      public\r\n      view\r\n      returns(uint256 purpose, uint256 keyType, bytes32 key)\r\n  {\r\n      return (\r\n          _keyHolderData.keys[_key].purpose,\r\n          _keyHolderData.keys[_key].keyType,\r\n          _keyHolderData.keys[_key].key\r\n      );\r\n  }\r\n\r\n  function getKeyPurpose(KeyHolderData storage _keyHolderData, bytes32 _key)\r\n      public\r\n      view\r\n      returns(uint256 purpose)\r\n  {\r\n      return (_keyHolderData.keys[_key].purpose);\r\n  }\r\n\r\n  function getKeysByPurpose(KeyHolderData storage _keyHolderData, uint256 _purpose)\r\n      public\r\n      view\r\n      returns(bytes32[] _keys)\r\n  {\r\n      return _keyHolderData.keysByPurpose[_purpose];\r\n  }\r\n\r\n  function addKey(KeyHolderData storage _keyHolderData, bytes32 _key, uint256 _purpose, uint256 _type)\r\n      public\r\n      returns (bool success)\r\n  {\r\n      require(_keyHolderData.keys[_key].key != _key, \"Key already exists\"); // Key should not already exist\r\n      if (msg.sender != address(this)) {\r\n        require(keyHasPurpose(_keyHolderData, keccak256(msg.sender), 1), \"Sender does not have management key\"); // Sender has MANAGEMENT_KEY\r\n      }\r\n\r\n      _keyHolderData.keys[_key].key = _key;\r\n      _keyHolderData.keys[_key].purpose = _purpose;\r\n      _keyHolderData.keys[_key].keyType = _type;\r\n\r\n      _keyHolderData.keysByPurpose[_purpose].push(_key);\r\n\r\n      emit KeyAdded(_key, _purpose, _type);\r\n\r\n      return true;\r\n  }\r\n\r\n  function approve(KeyHolderData storage _keyHolderData, uint256 _id, bool _approve)\r\n      public\r\n      returns (bool success)\r\n  {\r\n      require(keyHasPurpose(_keyHolderData, keccak256(msg.sender), 2), \"Sender does not have action key\");\r\n\r\n      emit Approved(_id, _approve);\r\n\r\n      if (_approve == true) {\r\n          _keyHolderData.executions[_id].approved = true;\r\n          success = _keyHolderData.executions[_id].to.call(_keyHolderData.executions[_id].data, 0);\r\n          if (success) {\r\n              _keyHolderData.executions[_id].executed = true;\r\n              emit Executed(\r\n                  _id,\r\n                  _keyHolderData.executions[_id].to,\r\n                  _keyHolderData.executions[_id].value,\r\n                  _keyHolderData.executions[_id].data\r\n              );\r\n              return;\r\n          } else {\r\n              emit ExecutionFailed(\r\n                  _id,\r\n                  _keyHolderData.executions[_id].to,\r\n                  _keyHolderData.executions[_id].value,\r\n                  _keyHolderData.executions[_id].data\r\n              );\r\n              return;\r\n          }\r\n      } else {\r\n          _keyHolderData.executions[_id].approved = false;\r\n      }\r\n      return true;\r\n  }\r\n\r\n  function execute(KeyHolderData storage _keyHolderData, address _to, uint256 _value, bytes _data)\r\n      public\r\n      returns (uint256 executionId)\r\n  {\r\n      require(!_keyHolderData.executions[_keyHolderData.executionNonce].executed, \"Already executed\");\r\n      _keyHolderData.executions[_keyHolderData.executionNonce].to = _to;\r\n      _keyHolderData.executions[_keyHolderData.executionNonce].value = _value;\r\n      _keyHolderData.executions[_keyHolderData.executionNonce].data = _data;\r\n\r\n      emit ExecutionRequested(_keyHolderData.executionNonce, _to, _value, _data);\r\n\r\n      if (keyHasPurpose(_keyHolderData, keccak256(msg.sender),1) || keyHasPurpose(_keyHolderData, keccak256(msg.sender),2)) {\r\n          approve(_keyHolderData, _keyHolderData.executionNonce, true);\r\n      }\r\n\r\n      _keyHolderData.executionNonce++;\r\n      return _keyHolderData.executionNonce-1;\r\n  }\r\n\r\n  function removeKey(KeyHolderData storage _keyHolderData, bytes32 _key)\r\n      public\r\n      returns (bool success)\r\n  {\r\n      require(_keyHolderData.keys[_key].key == _key, \"No such key\");\r\n      emit KeyRemoved(_keyHolderData.keys[_key].key, _keyHolderData.keys[_key].purpose, _keyHolderData.keys[_key].keyType);\r\n\r\n      delete _keyHolderData.keys[_key];\r\n\r\n      return true;\r\n  }\r\n\r\n  function keyHasPurpose(KeyHolderData storage _keyHolderData, bytes32 _key, uint256 _purpose)\r\n      public\r\n      view\r\n      returns(bool result)\r\n  {\r\n      bool isThere;\r\n      if (_keyHolderData.keys[_key].key == 0) return false;\r\n      isThere = _keyHolderData.keys[_key].purpose <= _purpose;\r\n      return isThere;\r\n  }\r\n}\r\n",
  "sourcePath": "C:\\i\\HT\\drizzleui\\contracts\\identity\\KeyHolderLibrary.sol",
  "compiler": {
    "name": "solc",
    "version": "0.4.24+commit.e67f0147.Emscripten.clang"
  },
  "schemaVersion": "2.0.1",
  "updatedAt": "2018-07-31T21:05:45.252Z"
}