{
  "contractName": "Listing",
  "abi": [
    {
      "constant": true,
      "inputs": [],
      "name": "ListingRegistry",
      "outputs": [
        {
          "name": "",
          "type": "address"
        }
      ],
      "payable": false,
      "stateMutability": "view",
      "type": "function"
    },
    {
      "constant": true,
      "inputs": [],
      "name": "created",
      "outputs": [
        {
          "name": "",
          "type": "uint256"
        }
      ],
      "payable": false,
      "stateMutability": "view",
      "type": "function"
    },
    {
      "constant": true,
      "inputs": [],
      "name": "expiration",
      "outputs": [
        {
          "name": "",
          "type": "uint256"
        }
      ],
      "payable": false,
      "stateMutability": "view",
      "type": "function"
    },
    {
      "constant": true,
      "inputs": [],
      "name": "totalResourceRequired",
      "outputs": [
        {
          "name": "",
          "type": "uint256"
        }
      ],
      "payable": false,
      "stateMutability": "view",
      "type": "function"
    },
    {
      "constant": true,
      "inputs": [
        {
          "name": "",
          "type": "uint256"
        }
      ],
      "name": "applicants",
      "outputs": [
        {
          "name": "",
          "type": "address"
        }
      ],
      "payable": false,
      "stateMutability": "view",
      "type": "function"
    },
    {
      "constant": true,
      "inputs": [],
      "name": "resourceRate",
      "outputs": [
        {
          "name": "",
          "type": "uint256"
        }
      ],
      "payable": false,
      "stateMutability": "view",
      "type": "function"
    },
    {
      "constant": true,
      "inputs": [],
      "name": "owner",
      "outputs": [
        {
          "name": "",
          "type": "address"
        }
      ],
      "payable": false,
      "stateMutability": "view",
      "type": "function"
    },
    {
      "constant": true,
      "inputs": [],
      "name": "workingHours",
      "outputs": [
        {
          "name": "",
          "type": "uint256"
        }
      ],
      "payable": false,
      "stateMutability": "view",
      "type": "function"
    },
    {
      "constant": true,
      "inputs": [],
      "name": "ipfsHash",
      "outputs": [
        {
          "name": "",
          "type": "bytes32"
        }
      ],
      "payable": false,
      "stateMutability": "view",
      "type": "function"
    },
    {
      "constant": true,
      "inputs": [],
      "name": "resourceType",
      "outputs": [
        {
          "name": "",
          "type": "uint256"
        }
      ],
      "payable": false,
      "stateMutability": "view",
      "type": "function"
    },
    {
      "inputs": [
        {
          "name": "_owner",
          "type": "address"
        },
        {
          "name": "_ipfsHash",
          "type": "bytes32"
        },
        {
          "name": "_resourceRate",
          "type": "uint256"
        },
        {
          "name": "_totalResourceRequired",
          "type": "uint256"
        },
        {
          "name": "_resourceType",
          "type": "uint256"
        },
        {
          "name": "_workingHours",
          "type": "uint256"
        }
      ],
      "payable": false,
      "stateMutability": "nonpayable",
      "type": "constructor"
    },
    {
      "anonymous": false,
      "inputs": [
        {
          "indexed": false,
          "name": "_jobApplicantContract",
          "type": "address"
        }
      ],
      "name": "ListingApplied",
      "type": "event"
    },
    {
      "anonymous": false,
      "inputs": [],
      "name": "ListingChange",
      "type": "event"
    },
    {
      "constant": true,
      "inputs": [],
      "name": "data",
      "outputs": [
        {
          "name": "_owner",
          "type": "address"
        },
        {
          "name": "_ipfsHash",
          "type": "bytes32"
        },
        {
          "name": "_resourceRate",
          "type": "uint256"
        },
        {
          "name": "_totalResourceRequired",
          "type": "uint256"
        },
        {
          "name": "_resourceType",
          "type": "uint256"
        },
        {
          "name": "_workingHours",
          "type": "uint256"
        },
        {
          "name": "_created",
          "type": "uint256"
        },
        {
          "name": "_expiration",
          "type": "uint256"
        }
      ],
      "payable": false,
      "stateMutability": "view",
      "type": "function"
    },
    {
      "constant": false,
      "inputs": [],
      "name": "applyToJob",
      "outputs": [],
      "payable": false,
      "stateMutability": "nonpayable",
      "type": "function"
    },
    {
      "constant": true,
      "inputs": [],
      "name": "totalJobApplicants",
      "outputs": [
        {
          "name": "",
          "type": "uint256"
        }
      ],
      "payable": false,
      "stateMutability": "view",
      "type": "function"
    },
    {
      "constant": true,
      "inputs": [
        {
          "name": "_index",
          "type": "uint256"
        }
      ],
      "name": "getApplicant",
      "outputs": [
        {
          "name": "",
          "type": "address"
        }
      ],
      "payable": false,
      "stateMutability": "view",
      "type": "function"
    },
    {
      "constant": false,
      "inputs": [],
      "name": "close",
      "outputs": [],
      "payable": false,
      "stateMutability": "nonpayable",
      "type": "function"
    }
  ],
  "bytecode": "0x608060405234801561001057600080fd5b5060405160c08061065b83398101604090815281516020830151918301516060840151608085015160a09095015160008054600160a060020a03909516600160a060020a031995861617905560018054909416331790935560029390935560055560069190915560049190915560035542600781905562127500016008556105be8061009d6000396000f3006080604052600436106100da5763ffffffff7c01000000000000000000000000000000000000000000000000000000006000350416632d71426d81146100df578063325a19f11461011d57806343d726d6146101445780634665096d1461015b5780634b91b9551461017057806356c1a05314610185578063631fa7b71461019a57806363de5323146101af57806373d4a13a146101c7578063883c22c5146102345780638da5cb5b14610249578063bc65793e1461025e578063c623674f14610273578063eea3f82d14610288578063f7d22190146102a0575b600080fd5b3480156100eb57600080fd5b506100f46102b5565b6040805173ffffffffffffffffffffffffffffffffffffffff9092168252519081900360200190f35b34801561012957600080fd5b506101326102d1565b60408051918252519081900360200190f35b34801561015057600080fd5b506101596102d7565b005b34801561016757600080fd5b5061013261032b565b34801561017c57600080fd5b50610132610331565b34801561019157600080fd5b50610159610337565b3480156101a657600080fd5b506101326104af565b3480156101bb57600080fd5b506100f46004356104b5565b3480156101d357600080fd5b506101dc6104ea565b6040805173ffffffffffffffffffffffffffffffffffffffff90991689526020890197909752878701959095526060870193909352608086019190915260a085015260c084015260e083015251908190036101000190f35b34801561024057600080fd5b50610132610525565b34801561025557600080fd5b506100f461052b565b34801561026a57600080fd5b50610132610547565b34801561027f57600080fd5b5061013261054d565b34801561029457600080fd5b506100f4600435610553565b3480156102ac57600080fd5b5061013261058c565b60015473ffffffffffffffffffffffffffffffffffffffff1681565b60075481565b60005473ffffffffffffffffffffffffffffffffffffffff1633146102fb57600080fd5b600060068190556040517ffa378a7d48087b5b4be3b8236f6f8829009c67d0dc3a6a431e43385d52ea2d1d9190a1565b60085481565b60065481565b600854600090421061034857600080fd5b604080517f9038c886000000000000000000000000000000000000000000000000000000008152306004820152336024820152905173__JobApplicationLibrary_________________91639038c886916044808301926020929190829003018186803b1580156103b857600080fd5b505af41580156103cc573d6000803e3d6000fd5b505050506040513d60208110156103e257600080fd5b5051600980546001810182556000919091527f6e1540171b6c0c960b71a7020d9f60077f6af931a8bbf590da0223dacf75c7af01805473ffffffffffffffffffffffffffffffffffffffff831673ffffffffffffffffffffffffffffffffffffffff19909116811790915560408051918252519192507f4353a90ced767b2d04726c58d6595ee553129185698c163fbb141f000fe6dbe5919081900360200190a16040517ffa378a7d48087b5b4be3b8236f6f8829009c67d0dc3a6a431e43385d52ea2d1d90600090a150565b60095490565b60098054829081106104c357fe5b60009182526020909120015473ffffffffffffffffffffffffffffffffffffffff16905081565b60005460025460055460065460045460035460075460085473ffffffffffffffffffffffffffffffffffffffff909716969091929394959697565b60055481565b60005473ffffffffffffffffffffffffffffffffffffffff1681565b60035481565b60025481565b600060098281548110151561056457fe5b60009182526020909120015473ffffffffffffffffffffffffffffffffffffffff1692915050565b600454815600a165627a7a72305820b8bf47ab82e3edd9c6c63de1f964cdbd5814cf965e2c88ab4ce22e0b73b2fe970029",
  "source": "pragma solidity 0.4.24;\r\n\r\n/// @title Listing\r\n/// @dev To an individual Job Listing, an job applicant can apply and employ can hire\r\n\r\nimport \"./JobApplicant.sol\";\r\nimport \"./JobApplicationLibrary.sol\";\r\n\r\n\r\ncontract Listing {\r\n\r\n  /*\r\n   * Events\r\n   */\r\n\r\n    event ListingApplied(JobApplicant _jobApplicantContract);\r\n    event ListingChange();\r\n\r\n/*\r\n*\tData Storage\r\n*\t------------\r\n*\tWorkingHours\r\n*\tResourceType\r\n*\tresourceRate\r\n*\ttotalResourceRequired\r\n*/\r\n\r\n    address public owner;\r\n    address public ListingRegistry; // TODO: Define interface for real ListingRegistry ?\r\n\r\n    // Assume IPFS defaults for hash: function:0x12=sha2, size:0x20=256 bits\r\n    // See: https://ethereum.stackexchange.com/a/17112/20332\r\n    // This assumption may have to change in future, but saves space now\r\n\r\n    bytes32 public ipfsHash;\r\n    uint public workingHours;\r\n    uint public resourceType;\r\n    uint public resourceRate;\r\n    uint public totalResourceRequired;\r\n    uint public created;\r\n    uint public expiration;\r\n\r\n    // Hire[] public hiring;\r\n    JobApplicant[] public applicants;\r\n\r\n    constructor (\r\n      address _owner,\r\n      bytes32 _ipfsHash,\r\n      uint _resourceRate,\r\n      uint _totalResourceRequired,\r\n      uint _resourceType,\r\n      uint _workingHours\r\n    )\r\n\r\n////////////////////////////////////////////////////////////////////////////////////////////////////////\r\n//\t\t\tData Structure\r\n////////////////////////////////////////////////////////////////////////////////////////////////////////\r\n\r\n    public\r\n    {\r\n        owner\t\t\t= _owner;\r\n        ListingRegistry\t\t= msg.sender; // ListingRegistry(msg.sender);\r\n        ipfsHash\t\t\t= _ipfsHash;\r\n        resourceRate\t\t= _resourceRate;\r\n        totalResourceRequired\t= _totalResourceRequired;\r\n        resourceType\t\t= _resourceType;\r\n        workingHours\t\t= _workingHours;\r\n        created\t\t\t= now;\r\n        expiration\t\t= created + 14 days;\r\n    }\r\n\r\n////////////////////////////////////////////////////////////////////////////////////////////////////////\r\n//\t\t\tCheck whether, modifer is the contract owner of the listing\r\n////////////////////////////////////////////////////////////////////////////////////////////////////////\r\n\r\n    modifier isEmployer() {\r\n        require(msg.sender == owner);\r\n        _;\r\n    }\r\n\r\n////////////////////////////////////////////////////////////////////////////////////////////////////////\r\n//\t\t\tListing Data\r\n////////////////////////////////////////////////////////////////////////////////////////////////////////\r\n    function data()\r\n    public\r\n    view\r\n    returns (address _owner, bytes32 _ipfsHash, uint _resourceRate, uint _totalResourceRequired, uint _resourceType,uint _workingHours,uint _created, uint _expiration)\r\n    {\r\n        return (owner, ipfsHash, resourceRate, totalResourceRequired, resourceType, workingHours, created, expiration);\r\n    }\r\n\r\n/////////////////////////////////////////////////////////////////////////////////////////////////////////////////////\r\n  /// @dev ApplyToJob()\t\t--> An applicant can apply for a Job Listing\r\n/////////////////////////////////////////////////////////////////////////////////////////////////////////////////////\r\n    function applyToJob()\r\n    public    \r\n    {\r\n\r\n    // Ensure that we are not past the expiration\r\n        require(now < expiration);\r\n\r\n        // Create Job Application contract\r\n        JobApplicant applicant = JobApplicationLibrary.newApplicant(this, msg.sender);\r\n\r\n        applicants.push(applicant);\r\n\r\n        // TODO STAN: How to call function *AND* transfer value??\r\n        // applicant.pay.value(msg.value)();\r\n\r\n        emit ListingApplied(applicant);\r\n        emit ListingChange();\r\n    }\r\n\r\n////////////////////////////////////////////////////////////////////////////////////////////////////////\r\n///\t@dev totalJobApplicants(): Return number of applicants for a given Job Listing\r\n////////////////////////////////////////////////////////////////////////////////////////////////////////\r\n    function totalJobApplicants()\r\n      public\r\n      constant\r\n      returns (uint)\r\n    {\r\n        return applicants.length;\r\n    }\r\n\r\n    /// @dev getApplicant(): Return Job Application info for a given Job Listing\r\n    /// @param _index the index of the Listing we want info about\r\n    function getApplicant(uint _index)\r\n      public\r\n      constant\r\n      returns (JobApplicant)\r\n    {\r\n        return (\r\n          applicants[_index]\r\n        );\r\n    }\r\n\r\n////////////////////////////////////////////////////////////////////////////////////////////////////////\r\n///\t\t\tHiring Contract Starts\t\t\t\t\t\t\t      //\r\n////////////////////////////////////////////////////////////////////////////////////////////////////////\r\n\r\n//   function hireApplicant(uint _agentApply)\r\n//     public\r\n//     payable\r\n//   {\r\n//     // Ensure that this is not trying to hire more than required agents\r\n// //    require(_agentApply <= totalResourceRequired);\r\n\r\n//     // Ensure that we are not past the expiration\r\n//     require(now < expiration);\r\n\r\n//     // Create Job Application contract\r\n//     JobApplicant applicant = JobApplicationLibrary.newApplicant(this, msg.sender);\r\n\r\n//     // Count units as sold\r\n//     //totalResourceRequired -= _agentApply;\r\n\r\n//     applicants.push(applicant);\r\n\r\n//     // TODO STAN: How to call function *AND* transfer value??\r\n//     // applicant.pay.value(msg.value)();\r\n\r\n//     emit ListingApplied(applicant);\r\n//     emit ListingChange();\r\n//   }\r\n\r\n////////////////////////////////////////////////////////////////////////////////////////////////////////\r\n  /// @dev close(): Allows an employer to close the Job Listing from further applicants\r\n////////////////////////////////////////////////////////////////////////////////////////////////////////\r\n    function close()\r\n        public\r\n        isEmployer\r\n    {\r\n        totalResourceRequired = 0;\r\n        emit ListingChange();\r\n    }\r\n////////////////////////////////////////////////////////////////////////////////////////////////////////\r\n\r\n}\r\n\r\n\r\n\r\n\r\n",
  "sourcePath": "C:\\i\\HT\\drizzleui\\contracts\\Listing.sol",
  "compiler": {
    "name": "solc",
    "version": "0.4.24+commit.e67f0147.Emscripten.clang"
  },
  "schemaVersion": "2.0.1",
  "updatedAt": "2018-07-27T21:38:26.133Z"
}