{
  "contractName": "PurchaseLibrary",
  "abi": [
    {
      "constant": false,
      "inputs": [
        {
          "name": "listing",
          "type": "Listing"
        },
        {
          "name": "_buyer",
          "type": "address"
        }
      ],
      "name": "newPurchase",
      "outputs": [
        {
          "name": "purchase",
          "type": "Purchase"
        }
      ],
      "payable": false,
      "stateMutability": "nonpayable",
      "type": "function"
    }
  ],
  "bytecode": "0x610cf0610030600b82828239805160001a6073146000811461002057610022565bfe5b5030600052607381538281f30073000000000000000000000000000000000000000030146080604052600436106100575763ffffffff7c01000000000000000000000000000000000000000000000000000000006000350416631c6b9b03811461005c575b600080fd5b81801561006857600080fd5b5061009073ffffffffffffffffffffffffffffffffffffffff600435811690602435166100b9565b6040805173ffffffffffffffffffffffffffffffffffffffff9092168252519081900360200190f35b600082826100c561010d565b73ffffffffffffffffffffffffffffffffffffffff928316815291166020820152604080519182900301906000f080158015610105573d6000803e3d6000fd5b509392505050565b604051610ba78061011e83390190560060806040526000805460ff1916905534801561001a57600080fd5b50604051604080610ba7833981016040819052815160209092015160018054600160a060020a031916600160a060020a03808416919091179091556000805461010060a860020a0319166101009286169290920291909117908190554260025590917f297fa9ffcce4a8f1e427986966e131669169a104212e72d48d20e935391873399160ff1690808260068111156100af57fe5b60ff16815260200191505060405180910390a15050610ad4806100d36000396000f3006080604052600436106100ae5763ffffffff7c01000000000000000000000000000000000000000000000000000000006000350416631b9265b881146100b3578063325a19f1146100bd5780634fd6137c146100e4578063546be7b5146100f95780637150d8ae1461011757806373d4a13a14610148578063a3c0ac10146101aa578063c040e6b8146101bf578063d5165327146101f8578063e5a4e1be1461020d578063f96182cf14610222575b600080fd5b6100bb610240565b005b3480156100c957600080fd5b506100d26102bb565b60408051918252519081900360200190f35b3480156100f057600080fd5b506100bb6102c1565b34801561010557600080fd5b506100bb60ff6004351660243561041c565b34801561012357600080fd5b5061012c6105db565b60408051600160a060020a039092168252519081900360200190f35b34801561015457600080fd5b5061015d6105ea565b6040518086600681111561016d57fe5b60ff168152600160a060020a0395861660208201529390941660408085019190915260608401929092526080830152519081900360a00192509050f35b3480156101b657600080fd5b506100bb610629565b3480156101cb57600080fd5b506101d4610743565b604051808260068111156101e457fe5b60ff16815260200191505060405180910390f35b34801561020457600080fd5b5061012c61077b565b34801561021957600080fd5b506100d261078f565b34801561022e57600080fd5b506100bb60ff60043516602435610795565b60008061024b610743565b600681111561025657fe5b1461026057600080fd5b6000805460ff1916600117908190556040517f297fa9ffcce4a8f1e427986966e131669169a104212e72d48d20e935391873399160ff1690808260068111156102a557fe5b60ff16815260200191505060405180910390a150565b60025481565b600154600160a060020a03163314806103795750600060019054906101000a9004600160a060020a0316600160a060020a0316638da5cb5b6040518163ffffffff167c0100000000000000000000000000000000000000000000000000000000028152600401602060405180830381600087803b15801561034157600080fd5b505af1158015610355573d6000803e3d6000fd5b505050506040513d602081101561036b57600080fd5b5051600160a060020a031633145b151561038457600080fd5b600261038e610743565b600681111561039957fe5b14806103b7575060036103aa610743565b60068111156103b557fe5b145b15156103c257600080fd5b6000805460ff1916600417908190556040517f297fa9ffcce4a8f1e427986966e131669169a104212e72d48d20e935391873399160ff16908082600681111561040757fe5b60ff16815260200191505060405180910390a1565b600154600160a060020a0316331461043357600080fd5b60028061043e610743565b600681111561044957fe5b1461045357600080fd5b600160ff8416101561046457600080fd5b600560ff8416111561047557600080fd5b6000805460ff1916600317908190556040517f297fa9ffcce4a8f1e427986966e131669169a104212e72d48d20e935391873399160ff1690808260068111156104ba57fe5b60ff16815260200191505060405180910390a17f8c0b60a2085201dd932be0d3d6a63cccfb7d8ba44b923a03d2ff02aaa6dfcfcc600160009054906101000a9004600160a060020a0316600060019054906101000a9004600160a060020a0316600160a060020a0316638da5cb5b6040518163ffffffff167c0100000000000000000000000000000000000000000000000000000000028152600401602060405180830381600087803b15801561057057600080fd5b505af1158015610584573d6000803e3d6000fd5b505050506040513d602081101561059a57600080fd5b505160408051600160a060020a03938416815292909116602083015260018282015260ff8616606083015260808201859052519081900360a00190a1505050565b600154600160a060020a031681565b60008060008060006105fa610743565b6000546001546002546003549399610100909304600160a060020a039081169950909116965094509092509050565b600060019054906101000a9004600160a060020a0316600160a060020a0316638da5cb5b6040518163ffffffff167c0100000000000000000000000000000000000000000000000000000000028152600401602060405180830381600087803b15801561069557600080fd5b505af11580156106a9573d6000803e3d6000fd5b505050506040513d60208110156106bf57600080fd5b5051600160a060020a031633146106d557600080fd5b6001806106e0610743565b60068111156106eb57fe5b146106f557600080fd5b6000805460ff19166002179081905542621baf80016003556040517f297fa9ffcce4a8f1e427986966e131669169a104212e72d48d20e935391873399160ff1690808260068111156102a557fe5b6000600260005460ff16600681111561075857fe5b14156107705760035442111561077057506003610778565b5060005460ff165b90565b6000546101009004600160a060020a031681565b60035481565b600060019054906101000a9004600160a060020a0316600160a060020a0316638da5cb5b6040518163ffffffff167c0100000000000000000000000000000000000000000000000000000000028152600401602060405180830381600087803b15801561080157600080fd5b505af1158015610815573d6000803e3d6000fd5b505050506040513d602081101561082b57600080fd5b5051600160a060020a0316331461084157600080fd5b60038061084c610743565b600681111561085757fe5b1461086157600080fd5b600160ff8416101561087257600080fd5b600560ff8416111561088357600080fd5b6000805460ff19166006908117918290556040517f297fa9ffcce4a8f1e427986966e131669169a104212e72d48d20e935391873399260ff1691819083908111156108ca57fe5b60ff16815260200191505060405180910390a17f8c0b60a2085201dd932be0d3d6a63cccfb7d8ba44b923a03d2ff02aaa6dfcfcc600060019054906101000a9004600160a060020a0316600160a060020a0316638da5cb5b6040518163ffffffff167c0100000000000000000000000000000000000000000000000000000000028152600401602060405180830381600087803b15801561096a57600080fd5b505af115801561097e573d6000803e3d6000fd5b505050506040513d602081101561099457600080fd5b505160015460408051600160a060020a03938416815292909116602083015260008282015260ff8616606083015260808201859052519081900360a00190a1600060019054906101000a9004600160a060020a0316600160a060020a0316638da5cb5b6040518163ffffffff167c0100000000000000000000000000000000000000000000000000000000028152600401602060405180830381600087803b158015610a3f57600080fd5b505af1158015610a53573d6000803e3d6000fd5b505050506040513d6020811015610a6957600080fd5b5051604051600160a060020a0390911690303180156108fc02916000818181858888f19350505050158015610aa2573d6000803e3d6000fd5b505050505600a165627a7a723058207305c76a76d06c6802378b111b1ac74fc2c1672737a0a84c56a993d27b3712c80029a165627a7a72305820dc5352b5839a241766654fae07156ef9071a6026c54e6ca0265bdc8f983973d60029",
  "source": "pragma solidity 0.4.24;\r\n\r\n/// @title PurchaseLibrary\r\n/// @dev An collection of helper tools for a purchase\r\n\r\nimport \"./Purchase.sol\";\r\nimport \"./Listing.sol\";\r\n\r\nlibrary PurchaseLibrary {\r\n\r\n    function newPurchase(Listing listing, address _buyer)\r\n    public\r\n    returns (Purchase purchase)\r\n    {\r\n        purchase = new Purchase(listing, _buyer);\r\n    }\r\n\r\n}\r\n",
  "sourcePath": "C:\\i\\HT\\drizzleui\\contracts\\PurchaseLibrary.sol",
  "compiler": {
    "name": "solc",
    "version": "0.4.24+commit.e67f0147.Emscripten.clang"
  },
  "schemaVersion": "2.0.1",
  "updatedAt": "2018-07-31T21:05:45.231Z"
}