{
  "contractName": "Purchase",
  "abi": [
    {
      "constant": true,
      "inputs": [],
      "name": "created",
      "outputs": [
        {
          "name": "",
          "type": "uint256"
        }
      ],
      "payable": false,
      "stateMutability": "view",
      "type": "function"
    },
    {
      "constant": true,
      "inputs": [],
      "name": "buyer",
      "outputs": [
        {
          "name": "",
          "type": "address"
        }
      ],
      "payable": false,
      "stateMutability": "view",
      "type": "function"
    },
    {
      "constant": true,
      "inputs": [],
      "name": "listingContract",
      "outputs": [
        {
          "name": "",
          "type": "address"
        }
      ],
      "payable": false,
      "stateMutability": "view",
      "type": "function"
    },
    {
      "constant": true,
      "inputs": [],
      "name": "buyerTimout",
      "outputs": [
        {
          "name": "",
          "type": "uint256"
        }
      ],
      "payable": false,
      "stateMutability": "view",
      "type": "function"
    },
    {
      "inputs": [
        {
          "name": "_listingContractAddress",
          "type": "address"
        },
        {
          "name": "_buyer",
          "type": "address"
        }
      ],
      "payable": false,
      "stateMutability": "nonpayable",
      "type": "constructor"
    },
    {
      "anonymous": false,
      "inputs": [
        {
          "indexed": false,
          "name": "stage",
          "type": "uint8"
        }
      ],
      "name": "PurchaseChange",
      "type": "event"
    },
    {
      "anonymous": false,
      "inputs": [
        {
          "indexed": false,
          "name": "reviewer",
          "type": "address"
        },
        {
          "indexed": false,
          "name": "reviewee",
          "type": "address"
        },
        {
          "indexed": false,
          "name": "revieweeRole",
          "type": "uint8"
        },
        {
          "indexed": false,
          "name": "rating",
          "type": "uint8"
        },
        {
          "indexed": false,
          "name": "ipfsHash",
          "type": "bytes32"
        }
      ],
      "name": "PurchaseReview",
      "type": "event"
    },
    {
      "constant": true,
      "inputs": [],
      "name": "data",
      "outputs": [
        {
          "name": "_stage",
          "type": "uint8"
        },
        {
          "name": "_listingContract",
          "type": "address"
        },
        {
          "name": "_buyer",
          "type": "address"
        },
        {
          "name": "_created",
          "type": "uint256"
        },
        {
          "name": "_buyerTimout",
          "type": "uint256"
        }
      ],
      "payable": false,
      "stateMutability": "view",
      "type": "function"
    },
    {
      "constant": false,
      "inputs": [],
      "name": "pay",
      "outputs": [],
      "payable": true,
      "stateMutability": "payable",
      "type": "function"
    },
    {
      "constant": true,
      "inputs": [],
      "name": "stage",
      "outputs": [
        {
          "name": "_stage",
          "type": "uint8"
        }
      ],
      "payable": false,
      "stateMutability": "view",
      "type": "function"
    },
    {
      "constant": false,
      "inputs": [],
      "name": "sellerConfirmShipped",
      "outputs": [],
      "payable": false,
      "stateMutability": "nonpayable",
      "type": "function"
    },
    {
      "constant": false,
      "inputs": [
        {
          "name": "_rating",
          "type": "uint8"
        },
        {
          "name": "_ipfsHash",
          "type": "bytes32"
        }
      ],
      "name": "buyerConfirmReceipt",
      "outputs": [],
      "payable": false,
      "stateMutability": "nonpayable",
      "type": "function"
    },
    {
      "constant": false,
      "inputs": [
        {
          "name": "_rating",
          "type": "uint8"
        },
        {
          "name": "_ipfsHash",
          "type": "bytes32"
        }
      ],
      "name": "sellerCollectPayout",
      "outputs": [],
      "payable": false,
      "stateMutability": "nonpayable",
      "type": "function"
    },
    {
      "constant": false,
      "inputs": [],
      "name": "openDispute",
      "outputs": [],
      "payable": false,
      "stateMutability": "nonpayable",
      "type": "function"
    }
  ],
  "bytecode": "0x60806040526000805460ff1916905534801561001a57600080fd5b50604051604080610ba7833981016040819052815160209092015160018054600160a060020a031916600160a060020a03808416919091179091556000805461010060a860020a0319166101009286169290920291909117908190554260025590917f297fa9ffcce4a8f1e427986966e131669169a104212e72d48d20e935391873399160ff1690808260068111156100af57fe5b60ff16815260200191505060405180910390a15050610ad4806100d36000396000f3006080604052600436106100ae5763ffffffff7c01000000000000000000000000000000000000000000000000000000006000350416631b9265b881146100b3578063325a19f1146100bd5780634fd6137c146100e4578063546be7b5146100f95780637150d8ae1461011757806373d4a13a14610148578063a3c0ac10146101aa578063c040e6b8146101bf578063d5165327146101f8578063e5a4e1be1461020d578063f96182cf14610222575b600080fd5b6100bb610240565b005b3480156100c957600080fd5b506100d26102bb565b60408051918252519081900360200190f35b3480156100f057600080fd5b506100bb6102c1565b34801561010557600080fd5b506100bb60ff6004351660243561041c565b34801561012357600080fd5b5061012c6105db565b60408051600160a060020a039092168252519081900360200190f35b34801561015457600080fd5b5061015d6105ea565b6040518086600681111561016d57fe5b60ff168152600160a060020a0395861660208201529390941660408085019190915260608401929092526080830152519081900360a00192509050f35b3480156101b657600080fd5b506100bb610629565b3480156101cb57600080fd5b506101d4610743565b604051808260068111156101e457fe5b60ff16815260200191505060405180910390f35b34801561020457600080fd5b5061012c61077b565b34801561021957600080fd5b506100d261078f565b34801561022e57600080fd5b506100bb60ff60043516602435610795565b60008061024b610743565b600681111561025657fe5b1461026057600080fd5b6000805460ff1916600117908190556040517f297fa9ffcce4a8f1e427986966e131669169a104212e72d48d20e935391873399160ff1690808260068111156102a557fe5b60ff16815260200191505060405180910390a150565b60025481565b600154600160a060020a03163314806103795750600060019054906101000a9004600160a060020a0316600160a060020a0316638da5cb5b6040518163ffffffff167c0100000000000000000000000000000000000000000000000000000000028152600401602060405180830381600087803b15801561034157600080fd5b505af1158015610355573d6000803e3d6000fd5b505050506040513d602081101561036b57600080fd5b5051600160a060020a031633145b151561038457600080fd5b600261038e610743565b600681111561039957fe5b14806103b7575060036103aa610743565b60068111156103b557fe5b145b15156103c257600080fd5b6000805460ff1916600417908190556040517f297fa9ffcce4a8f1e427986966e131669169a104212e72d48d20e935391873399160ff16908082600681111561040757fe5b60ff16815260200191505060405180910390a1565b600154600160a060020a0316331461043357600080fd5b60028061043e610743565b600681111561044957fe5b1461045357600080fd5b600160ff8416101561046457600080fd5b600560ff8416111561047557600080fd5b6000805460ff1916600317908190556040517f297fa9ffcce4a8f1e427986966e131669169a104212e72d48d20e935391873399160ff1690808260068111156104ba57fe5b60ff16815260200191505060405180910390a17f8c0b60a2085201dd932be0d3d6a63cccfb7d8ba44b923a03d2ff02aaa6dfcfcc600160009054906101000a9004600160a060020a0316600060019054906101000a9004600160a060020a0316600160a060020a0316638da5cb5b6040518163ffffffff167c0100000000000000000000000000000000000000000000000000000000028152600401602060405180830381600087803b15801561057057600080fd5b505af1158015610584573d6000803e3d6000fd5b505050506040513d602081101561059a57600080fd5b505160408051600160a060020a03938416815292909116602083015260018282015260ff8616606083015260808201859052519081900360a00190a1505050565b600154600160a060020a031681565b60008060008060006105fa610743565b6000546001546002546003549399610100909304600160a060020a039081169950909116965094509092509050565b600060019054906101000a9004600160a060020a0316600160a060020a0316638da5cb5b6040518163ffffffff167c0100000000000000000000000000000000000000000000000000000000028152600401602060405180830381600087803b15801561069557600080fd5b505af11580156106a9573d6000803e3d6000fd5b505050506040513d60208110156106bf57600080fd5b5051600160a060020a031633146106d557600080fd5b6001806106e0610743565b60068111156106eb57fe5b146106f557600080fd5b6000805460ff19166002179081905542621baf80016003556040517f297fa9ffcce4a8f1e427986966e131669169a104212e72d48d20e935391873399160ff1690808260068111156102a557fe5b6000600260005460ff16600681111561075857fe5b14156107705760035442111561077057506003610778565b5060005460ff165b90565b6000546101009004600160a060020a031681565b60035481565b600060019054906101000a9004600160a060020a0316600160a060020a0316638da5cb5b6040518163ffffffff167c0100000000000000000000000000000000000000000000000000000000028152600401602060405180830381600087803b15801561080157600080fd5b505af1158015610815573d6000803e3d6000fd5b505050506040513d602081101561082b57600080fd5b5051600160a060020a0316331461084157600080fd5b60038061084c610743565b600681111561085757fe5b1461086157600080fd5b600160ff8416101561087257600080fd5b600560ff8416111561088357600080fd5b6000805460ff19166006908117918290556040517f297fa9ffcce4a8f1e427986966e131669169a104212e72d48d20e935391873399260ff1691819083908111156108ca57fe5b60ff16815260200191505060405180910390a17f8c0b60a2085201dd932be0d3d6a63cccfb7d8ba44b923a03d2ff02aaa6dfcfcc600060019054906101000a9004600160a060020a0316600160a060020a0316638da5cb5b6040518163ffffffff167c0100000000000000000000000000000000000000000000000000000000028152600401602060405180830381600087803b15801561096a57600080fd5b505af115801561097e573d6000803e3d6000fd5b505050506040513d602081101561099457600080fd5b505160015460408051600160a060020a03938416815292909116602083015260008282015260ff8616606083015260808201859052519081900360a00190a1600060019054906101000a9004600160a060020a0316600160a060020a0316638da5cb5b6040518163ffffffff167c0100000000000000000000000000000000000000000000000000000000028152600401602060405180830381600087803b158015610a3f57600080fd5b505af1158015610a53573d6000803e3d6000fd5b505050506040513d6020811015610a6957600080fd5b5051604051600160a060020a0390911690303180156108fc02916000818181858888f19350505050158015610aa2573d6000803e3d6000fd5b505050505600a165627a7a723058201827a02c54c6b78fb444662b92a7832f7492475b93c23b93649795b1839171840029",
  "source": "pragma solidity 0.4.24;\r\n\r\n/// @title Purchase\r\n/// @dev An purchase Origin Listing representing a purchase/booking\r\nimport \"./Listing.sol\";\r\n\r\n\r\ncontract Purchase {\r\n\r\n  /*\r\n  * Events\r\n  */\r\n\r\n  event PurchaseChange(Stages stage);\r\n  event PurchaseReview(address reviewer, address reviewee, Roles revieweeRole, uint8 rating, bytes32 ipfsHash);\r\n\r\n  /*\r\n  * Enum\r\n  */\r\n\r\n  enum Stages {\r\n    AWAITING_PAYMENT, // Buyer hasn't paid full amount yet\r\n    SHIPPING_PENDING, // Waiting for the seller to ship\r\n    BUYER_PENDING, // Waiting for buyer to confirm receipt\r\n    SELLER_PENDING, // Waiting for seller to confirm all is good\r\n    IN_DISPUTE, // We are in a dispute\r\n    REVIEW_PERIOD, // Time for reviews (only when transaction did not go through)\r\n    COMPLETE // It's all over\r\n  }\r\n\r\n  enum Roles {\r\n    BUYER,\r\n    SELLER\r\n  }\r\n\r\n  /*\r\n  * Storage\r\n  */\r\n\r\n  Stages private internalStage = Stages.AWAITING_PAYMENT;\r\n\r\n  Listing public listingContract; // listing that is being purchased\r\n  address public buyer; // User who is buying. Seller is derived from listing\r\n  uint public created;\r\n  uint public buyerTimout;\r\n\r\n  /*\r\n  * Modifiers\r\n  */\r\n\r\n  modifier isSeller() {\r\n    require(msg.sender == listingContract.owner());\r\n    _;\r\n  }\r\n\r\n  modifier isBuyer() {\r\n    require(msg.sender == buyer);\r\n    _;\r\n  }\r\n\r\n  modifier atStage(Stages _stage) {\r\n    require(stage() == _stage);\r\n    _;\r\n  }\r\n\r\n  /*\r\n  * Public functions\r\n  */\r\n\r\n  constructor(\r\n    address _listingContractAddress,\r\n    address _buyer\r\n  )\r\n  public\r\n  {\r\n    buyer = _buyer;\r\n    listingContract = Listing(_listingContractAddress);\r\n    created = now;\r\n    emit PurchaseChange(internalStage);\r\n  }\r\n\r\n  function data()\r\n  public\r\n  view\r\n  returns (Stages _stage, Listing _listingContract, address _buyer, uint _created, uint _buyerTimout) {\r\n      return (stage(), listingContract, buyer, created, buyerTimout);\r\n  }\r\n\r\n  // Pay for listing\r\n  // We used to limit this to buyer, but that prevents Listing contract from\r\n  // paying\r\n  function pay()\r\n  public\r\n  payable\r\n  atStage(Stages.AWAITING_PAYMENT)\r\n  {\r\n    // if (address(this).balance >= listingContract.price()) {\r\n      // Buyer (or their proxy) has paid enough to cover purchase\r\n      internalStage = Stages.SHIPPING_PENDING;\r\n      emit PurchaseChange(internalStage);\r\n    // }\r\n    // Possible that nothing happens, and contract just accumulates sent value\r\n  }\r\n\r\n  function stage()\r\n  public\r\n  view\r\n  returns (Stages _stage)\r\n  {\r\n    if (internalStage == Stages.BUYER_PENDING) {\r\n      if (now > buyerTimout) {\r\n        return Stages.SELLER_PENDING;\r\n      }\r\n    }\r\n    return internalStage;\r\n  }\r\n\r\n  function sellerConfirmShipped()\r\n  public\r\n  isSeller\r\n  atStage(Stages.SHIPPING_PENDING)\r\n  {\r\n      internalStage = Stages.BUYER_PENDING;\r\n      buyerTimout = now + 21 days;\r\n      emit PurchaseChange(internalStage);\r\n  }\r\n\r\n  function buyerConfirmReceipt(uint8 _rating, bytes32 _ipfsHash)\r\n  public\r\n  isBuyer\r\n  atStage(Stages.BUYER_PENDING)\r\n  {\r\n    // Checks\r\n    require(_rating >= 1);\r\n    require(_rating <= 5);\r\n\r\n    // State changes\r\n    internalStage = Stages.SELLER_PENDING;\r\n\r\n    // Events\r\n    emit PurchaseChange(internalStage);\r\n    emit PurchaseReview(buyer, listingContract.owner(), Roles.SELLER, _rating, _ipfsHash);\r\n  }\r\n\r\n  function sellerCollectPayout(uint8 _rating, bytes32 _ipfsHash)\r\n  public\r\n  isSeller\r\n  atStage(Stages.SELLER_PENDING)\r\n  {\r\n    // Checks\r\n    require(_rating >= 1);\r\n    require(_rating <= 5);\r\n\r\n    // State changes\r\n    internalStage = Stages.COMPLETE;\r\n    \r\n    // Events\r\n    emit PurchaseChange(internalStage);\r\n    emit PurchaseReview(listingContract.owner(), buyer, Roles.BUYER, _rating, _ipfsHash);\r\n\r\n    // Transfers\r\n    // Send contract funds to seller (ie owner of Listing)\r\n    // Transfering money always needs to be the last thing we do, do avoid\r\n    // rentrancy bugs. (Though here the seller would just be getting their own money)\r\n    listingContract.owner().transfer(address(this).balance);\r\n  }\r\n\r\n  function openDispute()\r\n  public\r\n  {\r\n    // Must be buyer or seller\r\n    require(\r\n      (msg.sender == buyer) ||\r\n      (msg.sender == listingContract.owner())\r\n    );\r\n\r\n    // Must be in a valid stage\r\n    require(\r\n      (stage() == Stages.BUYER_PENDING) ||\r\n      (stage() == Stages.SELLER_PENDING)\r\n    );\r\n\r\n    internalStage = Stages.IN_DISPUTE;\r\n    emit PurchaseChange(internalStage);\r\n\r\n    // TODO: Create a dispute contract?\r\n    // Right now there's no way to exit this state.\r\n  }\r\n}\r\n",
  "sourcePath": "C:\\i\\HT\\drizzleui\\contracts\\Purchase.sol",
  "compiler": {
    "name": "solc",
    "version": "0.4.24+commit.e67f0147.Emscripten.clang"
  },
  "schemaVersion": "2.0.1",
  "updatedAt": "2018-07-26T20:43:53.011Z"
}